{
  "contractName": "Main",
  "abi": [
    {
      "inputs": [
        {
          "internalType": "address[]",
          "name": "_accounts",
          "type": "address[]"
        }
      ],
      "stateMutability": "nonpayable",
      "type": "constructor"
    },
    {
      "anonymous": false,
      "inputs": [
        {
          "indexed": true,
          "internalType": "uint256",
          "name": "sessionId",
          "type": "uint256"
        },
        {
          "indexed": true,
          "internalType": "address",
          "name": "sessionAddress",
          "type": "address"
        },
        {
          "indexed": false,
          "internalType": "bytes32",
          "name": "sessionHash",
          "type": "bytes32"
        }
      ],
      "name": "NewSessionCreated",
      "type": "event"
    },
    {
      "inputs": [
        {
          "internalType": "address",
          "name": "",
          "type": "address"
        }
      ],
      "name": "_completeAccount",
      "outputs": [
        {
          "internalType": "bool",
          "name": "",
          "type": "bool"
        }
      ],
      "stateMutability": "view",
      "type": "function",
      "constant": true
    },
    {
      "inputs": [],
      "name": "admin",
      "outputs": [
        {
          "internalType": "address",
          "name": "",
          "type": "address"
        }
      ],
      "stateMutability": "view",
      "type": "function",
      "constant": true
    },
    {
      "inputs": [
        {
          "internalType": "address",
          "name": "",
          "type": "address"
        }
      ],
      "name": "registered",
      "outputs": [
        {
          "internalType": "bool",
          "name": "",
          "type": "bool"
        }
      ],
      "stateMutability": "view",
      "type": "function",
      "constant": true
    },
    {
      "inputs": [
        {
          "internalType": "string",
          "name": "_name",
          "type": "string"
        },
        {
          "internalType": "string",
          "name": "_email",
          "type": "string"
        }
      ],
      "name": "register",
      "outputs": [],
      "stateMutability": "nonpayable",
      "type": "function"
    },
    {
      "inputs": [
        {
          "internalType": "address",
          "name": "_addr",
          "type": "address"
        }
      ],
      "name": "participants",
      "outputs": [
        {
          "components": [
            {
              "internalType": "address",
              "name": "account",
              "type": "address"
            },
            {
              "internalType": "string",
              "name": "name",
              "type": "string"
            },
            {
              "internalType": "string",
              "name": "email",
              "type": "string"
            },
            {
              "internalType": "uint256",
              "name": "bidCount",
              "type": "uint256"
            },
            {
              "internalType": "uint256",
              "name": "bidDeviation",
              "type": "uint256"
            }
          ],
          "internalType": "struct Main.IParticipant",
          "name": "",
          "type": "tuple"
        }
      ],
      "stateMutability": "view",
      "type": "function",
      "constant": true
    },
    {
      "inputs": [
        {
          "internalType": "address",
          "name": "_addr",
          "type": "address"
        }
      ],
      "name": "setBidCount",
      "outputs": [
        {
          "internalType": "uint256",
          "name": "",
          "type": "uint256"
        }
      ],
      "stateMutability": "nonpayable",
      "type": "function"
    },
    {
      "inputs": [
        {
          "internalType": "address",
          "name": "_addr",
          "type": "address"
        },
        {
          "internalType": "uint256",
          "name": "_dev",
          "type": "uint256"
        }
      ],
      "name": "setBidDev",
      "outputs": [
        {
          "internalType": "uint256",
          "name": "",
          "type": "uint256"
        }
      ],
      "stateMutability": "nonpayable",
      "type": "function"
    },
    {
      "inputs": [],
      "name": "nParticipants",
      "outputs": [
        {
          "internalType": "uint256",
          "name": "",
          "type": "uint256"
        }
      ],
      "stateMutability": "view",
      "type": "function",
      "constant": true
    },
    {
      "inputs": [
        {
          "internalType": "uint256",
          "name": "_index",
          "type": "uint256"
        }
      ],
      "name": "iParticipants",
      "outputs": [
        {
          "internalType": "address",
          "name": "",
          "type": "address"
        }
      ],
      "stateMutability": "view",
      "type": "function",
      "constant": true
    },
    {
      "inputs": [
        {
          "internalType": "address",
          "name": "_maincontract",
          "type": "address"
        },
        {
          "internalType": "string",
          "name": "_productName",
          "type": "string"
        },
        {
          "internalType": "string",
          "name": "_description",
          "type": "string"
        },
        {
          "internalType": "string",
          "name": "_imageHashes",
          "type": "string"
        }
      ],
      "name": "addSession",
      "outputs": [],
      "stateMutability": "nonpayable",
      "type": "function"
    },
    {
      "inputs": [
        {
          "internalType": "address",
          "name": "_participant",
          "type": "address"
        },
        {
          "internalType": "address",
          "name": "_sessionAddr",
          "type": "address"
        }
      ],
      "name": "hasBid",
      "outputs": [
        {
          "internalType": "bool",
          "name": "",
          "type": "bool"
        }
      ],
      "stateMutability": "view",
      "type": "function",
      "constant": true
    },
    {
      "inputs": [
        {
          "internalType": "address",
          "name": "_participant",
          "type": "address"
        },
        {
          "internalType": "address",
          "name": "_sessionAddr",
          "type": "address"
        }
      ],
      "name": "setHasBid",
      "outputs": [
        {
          "internalType": "bool",
          "name": "",
          "type": "bool"
        }
      ],
      "stateMutability": "nonpayable",
      "type": "function"
    },
    {
      "inputs": [],
      "name": "nSessions",
      "outputs": [
        {
          "internalType": "uint256",
          "name": "",
          "type": "uint256"
        }
      ],
      "stateMutability": "view",
      "type": "function",
      "constant": true
    },
    {
      "inputs": [
        {
          "internalType": "uint256",
          "name": "_index",
          "type": "uint256"
        }
      ],
      "name": "sessions",
      "outputs": [
        {
          "internalType": "address",
          "name": "",
          "type": "address"
        }
      ],
      "stateMutability": "view",
      "type": "function",
      "constant": true
    },
    {
      "inputs": [
        {
          "internalType": "address",
          "name": "_addr",
          "type": "address"
        }
      ],
      "name": "getSessionHash",
      "outputs": [
        {
          "internalType": "bytes32",
          "name": "",
          "type": "bytes32"
        }
      ],
      "stateMutability": "view",
      "type": "function",
      "constant": true
    }
  ],
  "bytecode": "0x60806040523480156200001157600080fd5b50604051620052283803806200522883398181016040528101906200003791906200050a565b336000806101000a81548173ffffffffffffffffffffffffffffffffffffffff021916908373ffffffffffffffffffffffffffffffffffffffff1602179055506000815190506000600190505b81811015620000d157620000bb838281518110620000a757620000a66200055b565b5b6020026020010151620000da60201b60201c565b8080620000c890620005c3565b91505062000084565b50505062000705565b3373ffffffffffffffffffffffffffffffffffffffff1660008054906101000a900473ffffffffffffffffffffffffffffffffffffffff1673ffffffffffffffffffffffffffffffffffffffff16146200016b576040517f08c379a0000000000000000000000000000000000000000000000000000000008152600401620001629062000671565b60405180910390fd5b600073ffffffffffffffffffffffffffffffffffffffff168173ffffffffffffffffffffffffffffffffffffffff1603620001dd576040517f08c379a0000000000000000000000000000000000000000000000000000000008152600401620001d490620006e3565b60405180910390fd5b80600160008373ffffffffffffffffffffffffffffffffffffffff1673ffffffffffffffffffffffffffffffffffffffff16815260200190815260200160002060000160006101000a81548173ffffffffffffffffffffffffffffffffffffffff021916908373ffffffffffffffffffffffffffffffffffffffff1602179055506002819080600181540180825580915050600190039060005260206000200160009091909190916101000a81548173ffffffffffffffffffffffffffffffffffffffff021916908373ffffffffffffffffffffffffffffffffffffffff1602179055506001600360008373ffffffffffffffffffffffffffffffffffffffff1673ffffffffffffffffffffffffffffffffffffffff16815260200190815260200160002060006101000a81548160ff02191690831515021790555050565b6000604051905090565b600080fd5b600080fd5b600080fd5b6000601f19601f8301169050919050565b7f4e487b7100000000000000000000000000000000000000000000000000000000600052604160045260246000fd5b620003808262000335565b810181811067ffffffffffffffff82111715620003a257620003a162000346565b5b80604052505050565b6000620003b76200031c565b9050620003c5828262000375565b919050565b600067ffffffffffffffff821115620003e857620003e762000346565b5b602082029050602081019050919050565b600080fd5b600073ffffffffffffffffffffffffffffffffffffffff82169050919050565b60006200042b82620003fe565b9050919050565b6200043d816200041e565b81146200044957600080fd5b50565b6000815190506200045d8162000432565b92915050565b60006200047a6200047484620003ca565b620003ab565b90508083825260208201905060208402830185811115620004a0576200049f620003f9565b5b835b81811015620004cd5780620004b888826200044c565b845260208401935050602081019050620004a2565b5050509392505050565b600082601f830112620004ef57620004ee62000330565b5b81516200050184826020860162000463565b91505092915050565b60006020828403121562000523576200052262000326565b5b600082015167ffffffffffffffff8111156200054457620005436200032b565b5b6200055284828501620004d7565b91505092915050565b7f4e487b7100000000000000000000000000000000000000000000000000000000600052603260045260246000fd5b7f4e487b7100000000000000000000000000000000000000000000000000000000600052601160045260246000fd5b6000819050919050565b6000620005d082620005b9565b91507fffffffffffffffffffffffffffffffffffffffffffffffffffffffffffffffff82036200060557620006046200058a565b5b600182019050919050565b600082825260208201905092915050565b7f4d61696e3a204f6e6c792061646d696e2063616e20646f207468697321000000600082015250565b600062000659601d8362000610565b9150620006668262000621565b602082019050919050565b600060208201905081810360008301526200068c816200064a565b9050919050565b7f4d61696e3a20496e76616c6964207061727469636970616e7400000000000000600082015250565b6000620006cb60198362000610565b9150620006d88262000693565b602082019050919050565b60006020820190508181036000830152620006fe81620006bc565b9050919050565b614b1380620007156000396000f3fe60806040523480156200001157600080fd5b50600436106200010c5760003560e01c8063852b257911620000a5578063b2dd5c07116200006f578063b2dd5c071462000323578063b63bc3b41462000359578063dc3ff17d146200037b578063f851a44014620003b1576200010c565b8063852b2579146200026157806388b72aaf1462000297578063a3b9c9e514620002b7578063a569b83d14620002ed576200010c565b80633ffbd47f11620000e75780633ffbd47f14620001b3578063454eed7d14620001d357806367ac2c3814620001f557806383c4b7a3146200022b576200010c565b806309e69ede1462000111578063291cace41462000147578063395e4a80146200017d575b600080fd5b6200012f600480360381019062000129919062000fd3565b620003d3565b6040516200013e919062001152565b60405180910390f35b6200016560048036038101906200015f9190620011a7565b620005cc565b604051620001749190620011ff565b60405180910390f35b6200019b600480360381019062000195919062000fd3565b6200061e565b604051620001aa919062001237565b60405180910390f35b620001d16004803603810190620001cb9190620012c2565b62000667565b005b620001dd6200095f565b604051620001ec9190620011ff565b60405180910390f35b6200021360048036038101906200020d919062001350565b62000969565b604051620002229190620013b4565b60405180910390f35b620002496004803603810190620002439190620013d1565b620009fd565b60405162000258919062001414565b60405180910390f35b6200027f600480360381019062000279919062000fd3565b62000a3a565b6040516200028e9190620011ff565b60405180910390f35b620002b56004803603810190620002af919062001431565b62000a9c565b005b620002d56004803603810190620002cf9190620013d1565b62000db0565b604051620002e4919062001414565b60405180910390f35b6200030b600480360381019062000305919062000fd3565b62000dfb565b6040516200031a9190620013b4565b60405180910390f35b6200034160048036038101906200033b919062000fd3565b62000e1b565b604051620003509190620013b4565b60405180910390f35b6200036362000e3b565b604051620003729190620011ff565b60405180910390f35b62000399600480360381019062000393919062001350565b62000e48565b604051620003a89190620013b4565b60405180910390f35b620003bb62000eed565b604051620003ca919062001414565b60405180910390f35b620003dd62000f11565b600160008373ffffffffffffffffffffffffffffffffffffffff1673ffffffffffffffffffffffffffffffffffffffff1681526020019081526020016000206040518060a00160405290816000820160009054906101000a900473ffffffffffffffffffffffffffffffffffffffff1673ffffffffffffffffffffffffffffffffffffffff1673ffffffffffffffffffffffffffffffffffffffff1681526020016001820180546200048f906200153d565b80601f0160208091040260200160405190810160405280929190818152602001828054620004bd906200153d565b80156200050e5780601f10620004e2576101008083540402835291602001916200050e565b820191906000526020600020905b815481529060010190602001808311620004f057829003601f168201915b5050505050815260200160028201805462000529906200153d565b80601f016020809104026020016040519081016040528092919081815260200182805462000557906200153d565b8015620005a85780601f106200057c57610100808354040283529160200191620005a8565b820191906000526020600020905b8154815290600101906020018083116200058a57829003601f168201915b50505050508152602001600382015481526020016004820154815250509050919050565b600081600160008573ffffffffffffffffffffffffffffffffffffffff1673ffffffffffffffffffffffffffffffffffffffff1681526020019081526020016000206004018190555081905092915050565b6000600660008373ffffffffffffffffffffffffffffffffffffffff1673ffffffffffffffffffffffffffffffffffffffff168152602001908152602001600020549050919050565b3373ffffffffffffffffffffffffffffffffffffffff16600160003373ffffffffffffffffffffffffffffffffffffffff1673ffffffffffffffffffffffffffffffffffffffff16815260200190815260200160002060000160009054906101000a900473ffffffffffffffffffffffffffffffffffffffff1673ffffffffffffffffffffffffffffffffffffffff16146200073a576040517f08c379a00000000000000000000000000000000000000000000000000000000081526004016200073190620015f9565b60405180910390fd5b600960009054906101000a900460ff16156200078d576040517f08c379a000000000000000000000000000000000000000000000000000000000815260040162000784906200166b565b60405180910390fd5b6001600960006101000a81548160ff0219169083151502179055506000339050600460008273ffffffffffffffffffffffffffffffffffffffff1673ffffffffffffffffffffffffffffffffffffffff16815260200190815260200160002060009054906101000a900460ff16156200083d576040517f08c379a00000000000000000000000000000000000000000000000000000000081526004016200083490620016dd565b60405180910390fd5b8484600160008473ffffffffffffffffffffffffffffffffffffffff1673ffffffffffffffffffffffffffffffffffffffff1681526020019081526020016000206001019182620008909291906200190b565b508282600160008473ffffffffffffffffffffffffffffffffffffffff1673ffffffffffffffffffffffffffffffffffffffff1681526020019081526020016000206002019182620008e49291906200190b565b506001600460008373ffffffffffffffffffffffffffffffffffffffff1673ffffffffffffffffffffffffffffffffffffffff16815260200190815260200160002060006101000a81548160ff021916908315150217905550506000600960006101000a81548160ff02191690831515021790555050505050565b6000600754905090565b6000600860008473ffffffffffffffffffffffffffffffffffffffff1673ffffffffffffffffffffffffffffffffffffffff16815260200190815260200160002060008373ffffffffffffffffffffffffffffffffffffffff1673ffffffffffffffffffffffffffffffffffffffff16815260200190815260200160002060009054906101000a900460ff16905092915050565b60006005600083815260200190815260200160002060009054906101000a900473ffffffffffffffffffffffffffffffffffffffff169050919050565b6000600160008373ffffffffffffffffffffffffffffffffffffffff1673ffffffffffffffffffffffffffffffffffffffff168152602001908152602001600020600301600081548092919062000a919062001a1f565b919050559050919050565b3373ffffffffffffffffffffffffffffffffffffffff1660008054906101000a900473ffffffffffffffffffffffffffffffffffffffff1673ffffffffffffffffffffffffffffffffffffffff161462000b2d576040517f08c379a000000000000000000000000000000000000000000000000000000000815260040162000b249062001abc565b60405180910390fd5b600960009054906101000a900460ff161562000b80576040517f08c379a000000000000000000000000000000000000000000000000000000000815260040162000b77906200166b565b60405180910390fd5b6001600960006101000a81548160ff02191690831515021790555060008060009054906101000a900473ffffffffffffffffffffffffffffffffffffffff168888888888888860405162000bd49062000f56565b62000be798979695949392919062001b20565b604051809103906000f08015801562000c04573d6000803e3d6000fd5b509050600081905060008273ffffffffffffffffffffffffffffffffffffffff16630a7a25b96040518163ffffffff1660e01b81526004016020604051808303816000875af115801562000c5c573d6000803e3d6000fd5b505050506040513d601f19601f8201168201806040525081019062000c82919062001bc9565b90508160056000600754815260200190815260200160002060006101000a81548173ffffffffffffffffffffffffffffffffffffffff021916908373ffffffffffffffffffffffffffffffffffffffff16021790555080600660008473ffffffffffffffffffffffffffffffffffffffff1673ffffffffffffffffffffffffffffffffffffffff168152602001908152602001600020819055508173ffffffffffffffffffffffffffffffffffffffff166007547fb26ae93027fd68d19d2d1930b7ae161eb49b0def5540c1101f0174b66f619cd38360405162000d67919062001237565b60405180910390a36007600081548092919062000d849062001a1f565b91905055505050506000600960006101000a81548160ff02191690831515021790555050505050505050565b60006002828154811062000dc95762000dc862001bfb565b5b9060005260206000200160009054906101000a900473ffffffffffffffffffffffffffffffffffffffff169050919050565b60046020528060005260406000206000915054906101000a900460ff1681565b60036020528060005260406000206000915054906101000a900460ff1681565b6000600280549050905090565b6000806001905080600860008673ffffffffffffffffffffffffffffffffffffffff1673ffffffffffffffffffffffffffffffffffffffff16815260200190815260200160002060008573ffffffffffffffffffffffffffffffffffffffff1673ffffffffffffffffffffffffffffffffffffffff16815260200190815260200160002060006101000a81548160ff0219169083151502179055508091505092915050565b60008054906101000a900473ffffffffffffffffffffffffffffffffffffffff1681565b6040518060a00160405280600073ffffffffffffffffffffffffffffffffffffffff168152602001606081526020016060815260200160008152602001600081525090565b612eb38062001c2b83390190565b600080fd5b600080fd5b600073ffffffffffffffffffffffffffffffffffffffff82169050919050565b600062000f9b8262000f6e565b9050919050565b62000fad8162000f8e565b811462000fb957600080fd5b50565b60008135905062000fcd8162000fa2565b92915050565b60006020828403121562000fec5762000feb62000f64565b5b600062000ffc8482850162000fbc565b91505092915050565b620010108162000f8e565b82525050565b600081519050919050565b600082825260208201905092915050565b60005b838110156200105257808201518184015260208101905062001035565b60008484015250505050565b6000601f19601f8301169050919050565b60006200107c8262001016565b62001088818562001021565b93506200109a81856020860162001032565b620010a5816200105e565b840191505092915050565b6000819050919050565b620010c581620010b0565b82525050565b600060a083016000830151620010e5600086018262001005565b5060208301518482036020860152620010ff82826200106f565b915050604083015184820360408601526200111b82826200106f565b9150506060830151620011326060860182620010ba565b506080830151620011476080860182620010ba565b508091505092915050565b600060208201905081810360008301526200116e8184620010cb565b905092915050565b6200118181620010b0565b81146200118d57600080fd5b50565b600081359050620011a18162001176565b92915050565b60008060408385031215620011c157620011c062000f64565b5b6000620011d18582860162000fbc565b9250506020620011e48582860162001190565b9150509250929050565b620011f981620010b0565b82525050565b6000602082019050620012166000830184620011ee565b92915050565b6000819050919050565b62001231816200121c565b82525050565b60006020820190506200124e600083018462001226565b92915050565b600080fd5b600080fd5b600080fd5b60008083601f8401126200127c576200127b62001254565b5b8235905067ffffffffffffffff8111156200129c576200129b62001259565b5b602083019150836001820283011115620012bb57620012ba6200125e565b5b9250929050565b60008060008060408587031215620012df57620012de62000f64565b5b600085013567ffffffffffffffff8111156200130057620012ff62000f69565b5b6200130e8782880162001263565b9450945050602085013567ffffffffffffffff81111562001334576200133362000f69565b5b620013428782880162001263565b925092505092959194509250565b600080604083850312156200136a576200136962000f64565b5b60006200137a8582860162000fbc565b92505060206200138d8582860162000fbc565b9150509250929050565b60008115159050919050565b620013ae8162001397565b82525050565b6000602082019050620013cb6000830184620013a3565b92915050565b600060208284031215620013ea57620013e962000f64565b5b6000620013fa8482850162001190565b91505092915050565b6200140e8162000f8e565b82525050565b60006020820190506200142b600083018462001403565b92915050565b60008060008060008060006080888a03121562001453576200145262000f64565b5b6000620014638a828b0162000fbc565b975050602088013567ffffffffffffffff81111562001487576200148662000f69565b5b620014958a828b0162001263565b9650965050604088013567ffffffffffffffff811115620014bb57620014ba62000f69565b5b620014c98a828b0162001263565b9450945050606088013567ffffffffffffffff811115620014ef57620014ee62000f69565b5b620014fd8a828b0162001263565b925092505092959891949750929550565b7f4e487b7100000000000000000000000000000000000000000000000000000000600052602260045260246000fd5b600060028204905060018216806200155657607f821691505b6020821081036200156c576200156b6200150e565b5b50919050565b600082825260208201905092915050565b7f4d61696e3a204f6e6c79207265676973746572656420757365722063616e207560008201527f706461746520746865697220696e666f21000000000000000000000000000000602082015250565b6000620015e160318362001572565b9150620015ee8262001583565b604082019050919050565b600060208201905081810360008301526200161481620015d2565b9050919050565b7f4d61696e3a205265656e7472616e742063616c6c2e0000000000000000000000600082015250565b60006200165360158362001572565b915062001660826200161b565b602082019050919050565b60006020820190508181036000830152620016868162001644565b9050919050565b7f4d61696e3a20596f7572206163636f756e7420697320636f6d706c6574656421600082015250565b6000620016c560208362001572565b9150620016d2826200168d565b602082019050919050565b60006020820190508181036000830152620016f881620016b6565b9050919050565b600082905092915050565b7f4e487b7100000000000000000000000000000000000000000000000000000000600052604160045260246000fd5b60008190508160005260206000209050919050565b60006020601f8301049050919050565b600082821b905092915050565b6000600883026200179d7fffffffffffffffffffffffffffffffffffffffffffffffffffffffffffffffff826200175e565b620017a986836200175e565b95508019841693508086168417925050509392505050565b6000819050919050565b6000620017ec620017e6620017e084620010b0565b620017c1565b620010b0565b9050919050565b6000819050919050565b6200180883620017cb565b620018206200181782620017f3565b8484546200176b565b825550505050565b600090565b6200183762001828565b62001844818484620017fd565b505050565b5b818110156200186c57620018606000826200182d565b6001810190506200184a565b5050565b601f821115620018bb57620018858162001739565b62001890846200174e565b81016020851015620018a0578190505b620018b8620018af856200174e565b83018262001849565b50505b505050565b600082821c905092915050565b6000620018e060001984600802620018c0565b1980831691505092915050565b6000620018fb8383620018cd565b9150826002028217905092915050565b620019178383620016ff565b67ffffffffffffffff8111156200193357620019326200170a565b5b6200193f82546200153d565b6200194c82828562001870565b6000601f8311600181146200198057600084156200196b578287013590505b620019778582620018ed565b865550620019e7565b601f198416620019908662001739565b60005b82811015620019ba5784890135825560018201915060208501945060208101905062001993565b86831015620019da5784890135620019d6601f891682620018cd565b8355505b6001600288020188555050505b50505050505050565b7f4e487b7100000000000000000000000000000000000000000000000000000000600052601160045260246000fd5b600062001a2c82620010b0565b91507fffffffffffffffffffffffffffffffffffffffffffffffffffffffffffffffff820362001a615762001a60620019f0565b5b600182019050919050565b7f4d61696e3a204f6e6c792061646d696e2063616e20646f207468697321000000600082015250565b600062001aa4601d8362001572565b915062001ab18262001a6c565b602082019050919050565b6000602082019050818103600083015262001ad78162001a95565b9050919050565b82818337600083830152505050565b600062001afb838562001572565b935062001b0a83858462001ade565b62001b15836200105e565b840190509392505050565b600060a08201905062001b37600083018b62001403565b62001b46602083018a62001403565b818103604083015262001b5b81888a62001aed565b9050818103606083015262001b7281868862001aed565b9050818103608083015262001b8981848662001aed565b90509998505050505050505050565b62001ba3816200121c565b811462001baf57600080fd5b50565b60008151905062001bc38162001b98565b92915050565b60006020828403121562001be25762001be162000f64565b5b600062001bf28482850162001bb2565b91505092915050565b7f4e487b7100000000000000000000000000000000000000000000000000000000600052603260045260246000fdfe60806040523480156200001157600080fd5b5060405162002eb338038062002eb38339818101604052810190620000379190620003f4565b84600260006101000a81548173ffffffffffffffffffffffffffffffffffffffff021916908373ffffffffffffffffffffffffffffffffffffffff160217905550836000806101000a81548173ffffffffffffffffffffffffffffffffffffffff021916908373ffffffffffffffffffffffffffffffffffffffff16021790555083600160006101000a81548173ffffffffffffffffffffffffffffffffffffffff021916908373ffffffffffffffffffffffffffffffffffffffff1602179055506000604051806080016040528060405180606001604052808781526020018681526020018581525081526020016000815260200160008152602001600060048111156200014b576200014a620004d9565b5b8152509050806005600082015181600001600082015181600001908162000173919062000753565b5060208201518160010190816200018b919062000753565b506040820151816002019081620001a3919062000753565b505050602082015181600301556040820151816004015560608201518160050160006101000a81548160ff02191690836004811115620001e857620001e7620004d9565b5b02179055509050505050505050506200083a565b6000604051905090565b600080fd5b600080fd5b600073ffffffffffffffffffffffffffffffffffffffff82169050919050565b60006200023d8262000210565b9050919050565b6200024f8162000230565b81146200025b57600080fd5b50565b6000815190506200026f8162000244565b92915050565b600080fd5b600080fd5b6000601f19601f8301169050919050565b7f4e487b7100000000000000000000000000000000000000000000000000000000600052604160045260246000fd5b620002ca826200027f565b810181811067ffffffffffffffff82111715620002ec57620002eb62000290565b5b80604052505050565b600062000301620001fc565b90506200030f8282620002bf565b919050565b600067ffffffffffffffff82111562000332576200033162000290565b5b6200033d826200027f565b9050602081019050919050565b60005b838110156200036a5780820151818401526020810190506200034d565b60008484015250505050565b60006200038d620003878462000314565b620002f5565b905082815260208101848484011115620003ac57620003ab6200027a565b5b620003b98482856200034a565b509392505050565b600082601f830112620003d957620003d862000275565b5b8151620003eb84826020860162000376565b91505092915050565b600080600080600060a0868803121562000413576200041262000206565b5b600062000423888289016200025e565b955050602062000436888289016200025e565b945050604086015167ffffffffffffffff8111156200045a57620004596200020b565b5b6200046888828901620003c1565b935050606086015167ffffffffffffffff8111156200048c576200048b6200020b565b5b6200049a88828901620003c1565b925050608086015167ffffffffffffffff811115620004be57620004bd6200020b565b5b620004cc88828901620003c1565b9150509295509295909350565b7f4e487b7100000000000000000000000000000000000000000000000000000000600052602160045260246000fd5b600081519050919050565b7f4e487b7100000000000000000000000000000000000000000000000000000000600052602260045260246000fd5b600060028204905060018216806200055b57607f821691505b60208210810362000571576200057062000513565b5b50919050565b60008190508160005260206000209050919050565b60006020601f8301049050919050565b600082821b905092915050565b600060088302620005db7fffffffffffffffffffffffffffffffffffffffffffffffffffffffffffffffff826200059c565b620005e786836200059c565b95508019841693508086168417925050509392505050565b6000819050919050565b6000819050919050565b6000620006346200062e6200062884620005ff565b62000609565b620005ff565b9050919050565b6000819050919050565b620006508362000613565b620006686200065f826200063b565b848454620005a9565b825550505050565b600090565b6200067f62000670565b6200068c81848462000645565b505050565b5b81811015620006b457620006a860008262000675565b60018101905062000692565b5050565b601f8211156200070357620006cd8162000577565b620006d8846200058c565b81016020851015620006e8578190505b62000700620006f7856200058c565b83018262000691565b50505b505050565b600082821c905092915050565b6000620007286000198460080262000708565b1980831691505092915050565b600062000743838362000715565b9150826002028217905092915050565b6200075e8262000508565b67ffffffffffffffff8111156200077a576200077962000290565b5b62000786825462000542565b62000793828285620006b8565b600060209050601f831160018114620007cb5760008415620007b6578287015190505b620007c2858262000735565b86555062000832565b601f198416620007db8662000577565b60005b828110156200080557848901518255600182019150602085019450602081019050620007de565b8683101562000825578489015162000821601f89168262000715565b8355505b6001600288020188555050505b505050505050565b612669806200084a6000396000f3fe608060405234801561001057600080fd5b50600436106100a95760003560e01c8063c87da02d11610071578063c87da02d14610152578063cbd8c61314610170578063d270e7ab1461017a578063f851a44014610198578063fe0ae165146101b6578063ff6a6d65146101c0576100a9565b80630a7a25b9146100ae5780632b3abd37146100cc578063546905e3146100fc5780639463b1cd14610118578063a3bfdf4714610136575b600080fd5b6100b66101f0565b6040516100c3919061189e565b60405180910390f35b6100e660048036038101906100e1919061192b565b610249565b6040516100f39190611971565b60405180910390f35b610116600480360381019061011191906119b8565b610300565b005b610120610ab7565b60405161012d9190611bbc565b60405180910390f35b610150600480360381019061014b91906119b8565b610cea565b005b61015a611091565b6040516101679190611971565b60405180910390f35b61017861109b565b005b6101826112b1565b60405161018f9190611bed565b60405180910390f35b6101a06112d5565b6040516101ad9190611bed565b60405180910390f35b6101be6112fb565b005b6101da60048036038101906101d591906119b8565b611511565b6040516101e79190611c46565b60405180910390f35b60003060008054906101000a900473ffffffffffffffffffffffffffffffffffffffff16604051602001610225929190611ca9565b60405160208183030381529060405280519060200120600381905550600354905090565b60008073ffffffffffffffffffffffffffffffffffffffff168273ffffffffffffffffffffffffffffffffffffffff16036102b9576040517f08c379a00000000000000000000000000000000000000000000000000000000081526004016102b090611d32565b60405180910390fd5b600c60008373ffffffffffffffffffffffffffffffffffffffff1673ffffffffffffffffffffffffffffffffffffffff168152602001908152602001600020549050919050565b6001600481111561031457610313611ae2565b5b6005800160009054906101000a900460ff16600481111561033857610337611ae2565b5b148061037957506002600481111561035357610352611ae2565b5b6005800160009054906101000a900460ff16600481111561037757610376611ae2565b5b145b6103b8576040517f08c379a00000000000000000000000000000000000000000000000000000000081526004016103af90611dc4565b60405180910390fd5b600160009054906101000a900473ffffffffffffffffffffffffffffffffffffffff1673ffffffffffffffffffffffffffffffffffffffff1663b2dd5c07336040518263ffffffff1660e01b81526004016104139190611bed565b602060405180830381865afa158015610430573d6000803e3d6000fd5b505050506040513d601f19601f820116820180604052508101906104549190611e1c565b610493576040517f08c379a000000000000000000000000000000000000000000000000000000000815260040161048a90611ebb565b60405180910390fd5b600160009054906101000a900473ffffffffffffffffffffffffffffffffffffffff1673ffffffffffffffffffffffffffffffffffffffff1663a569b83d336040518263ffffffff1660e01b81526004016104ee9190611bed565b602060405180830381865afa15801561050b573d6000803e3d6000fd5b505050506040513d601f19601f8201168201806040525081019061052f9190611e1c565b61056e576040517f08c379a000000000000000000000000000000000000000000000000000000000815260040161056590611f4d565b60405180910390fd5b600460009054906101000a900460ff16156105be576040517f08c379a00000000000000000000000000000000000000000000000000000000081526004016105b590611fb9565b60405180910390fd5b6001600460006101000a81548160ff0219169083151502179055506000339050600030905060008073ffffffffffffffffffffffffffffffffffffffff168373ffffffffffffffffffffffffffffffffffffffff1603610653576040517f08c379a000000000000000000000000000000000000000000000000000000000815260040161064a90612025565b60405180910390fd5b60008411610696576040517f08c379a000000000000000000000000000000000000000000000000000000000815260040161068d906120b7565b60405180910390fd5b600160009054906101000a900473ffffffffffffffffffffffffffffffffffffffff1673ffffffffffffffffffffffffffffffffffffffff166367ac2c3884846040518363ffffffff1660e01b81526004016106f39291906120d7565b602060405180830381865afa158015610710573d6000803e3d6000fd5b505050506040513d601f19601f820116820180604052508101906107349190611e1c565b61097c57600160009054906101000a900473ffffffffffffffffffffffffffffffffffffffff1673ffffffffffffffffffffffffffffffffffffffff1663dc3ff17d84846040518363ffffffff1660e01b81526004016107959291906120d7565b6020604051808303816000875af11580156107b4573d6000803e3d6000fd5b505050506040513d601f19601f820116820180604052508101906107d89190611e1c565b5082600b6000600d54815260200190815260200160002060000160006101000a81548173ffffffffffffffffffffffffffffffffffffffff021916908373ffffffffffffffffffffffffffffffffffffffff16021790555083600b6000600d54815260200190815260200160002060010181905550600d54600c60008573ffffffffffffffffffffffffffffffffffffffff1673ffffffffffffffffffffffffffffffffffffffff1681526020019081526020016000208190555060026005800160006101000a81548160ff021916908360048111156108bb576108ba611ae2565b5b0217905550600160009054906101000a900473ffffffffffffffffffffffffffffffffffffffff1673ffffffffffffffffffffffffffffffffffffffff1663852b2579846040518263ffffffff1660e01b815260040161091b9190611bed565b6020604051808303816000875af115801561093a573d6000803e3d6000fd5b505050506040513d601f19601f8201168201806040525081019061095e9190612115565b50600d600081548092919061097290612171565b9190505550610a2f565b600b6000600c60008673ffffffffffffffffffffffffffffffffffffffff1673ffffffffffffffffffffffffffffffffffffffff16815260200190815260200160002054815260200190815260200160002060010154905083600b6000600c60008773ffffffffffffffffffffffffffffffffffffffff1673ffffffffffffffffffffffffffffffffffffffff168152602001908152602001600020548152602001908152602001600020600101819055505b8273ffffffffffffffffffffffffffffffffffffffff168273ffffffffffffffffffffffffffffffffffffffff167f16998438c1125bcbd2d3e02b75155344463330c3643f9892640287bfa618696e8387604051610a8e9291906121b9565b60405180910390a35050506000600460006101000a81548160ff02191690831515021790555050565b610abf6117f4565b600560405180608001604052908160008201604051806060016040529081600082018054610aec90612211565b80601f0160208091040260200160405190810160405280929190818152602001828054610b1890612211565b8015610b655780601f10610b3a57610100808354040283529160200191610b65565b820191906000526020600020905b815481529060010190602001808311610b4857829003601f168201915b50505050508152602001600182018054610b7e90612211565b80601f0160208091040260200160405190810160405280929190818152602001828054610baa90612211565b8015610bf75780601f10610bcc57610100808354040283529160200191610bf7565b820191906000526020600020905b815481529060010190602001808311610bda57829003601f168201915b50505050508152602001600282018054610c1090612211565b80601f0160208091040260200160405190810160405280929190818152602001828054610c3c90612211565b8015610c895780601f10610c5e57610100808354040283529160200191610c89565b820191906000526020600020905b815481529060010190602001808311610c6c57829003601f168201915b505050505081525050815260200160038201548152602001600482015481526020016005820160009054906101000a900460ff166004811115610ccf57610cce611ae2565b5b6004811115610ce157610ce0611ae2565b5b81525050905090565b6003806004811115610cff57610cfe611ae2565b5b6005800160009054906101000a900460ff166004811115610d2357610d22611ae2565b5b14610d63576040517f08c379a0000000000000000000000000000000000000000000000000000000008152600401610d5a90611dc4565b60405180910390fd5b3373ffffffffffffffffffffffffffffffffffffffff16600260009054906101000a900473ffffffffffffffffffffffffffffffffffffffff1673ffffffffffffffffffffffffffffffffffffffff1614610df3576040517f08c379a0000000000000000000000000000000000000000000000000000000008152600401610dea9061228e565b60405180910390fd5b600460009054906101000a900460ff1615610e43576040517f08c379a0000000000000000000000000000000000000000000000000000000008152600401610e3a90611fb9565b60405180910390fd5b6001600460006101000a81548160ff0219169083151502179055506000600d54905060008060008560056004018190555060046005800160006101000a81548160ff02191690836004811115610e9c57610e9b611ae2565b5b021790555060005b84811015610ff7576000600b60008381526020019081526020016000206001015490506000600b600084815260200190815260200160002060000160009054906101000a900473ffffffffffffffffffffffffffffffffffffffff169050610f0c838a61159e565b95508585610f1a91906122ae565b9450856064610f2991906122e2565b82610f349190612316565b84610f3f91906122ae565b9350600160009054906101000a900473ffffffffffffffffffffffffffffffffffffffff1673ffffffffffffffffffffffffffffffffffffffff1663291cace482886040518363ffffffff1660e01b8152600401610f9e929190612358565b6020604051808303816000875af1158015610fbd573d6000803e3d6000fd5b505050506040513d601f19601f82011682018060405250810190610fe19190612115565b5050508080610fef90612171565b915050610ea4565b50818460646110069190612316565b61101091906122e2565b8161101b91906123b0565b600560030181905550856005600301543073ffffffffffffffffffffffffffffffffffffffff167f82f2875e1f7150881b873d3109dfaae5dab5d194d3ffed405b015104c0fea3f760405160405180910390a4505050506000600460006101000a81548160ff0219169083151502179055505050565b6000600d54905090565b60028060048111156110b0576110af611ae2565b5b6005800160009054906101000a900460ff1660048111156110d4576110d3611ae2565b5b14611114576040517f08c379a000000000000000000000000000000000000000000000000000000000815260040161110b90611dc4565b60405180910390fd5b3373ffffffffffffffffffffffffffffffffffffffff16600260009054906101000a900473ffffffffffffffffffffffffffffffffffffffff1673ffffffffffffffffffffffffffffffffffffffff16146111a4576040517f08c379a000000000000000000000000000000000000000000000000000000000815260040161119b9061228e565b60405180910390fd5b600460009054906101000a900460ff16156111f4576040517f08c379a00000000000000000000000000000000000000000000000000000000081526004016111eb90611fb9565b60405180910390fd5b6001600460006101000a81548160ff02191690831515021790555060036005800160006101000a81548160ff0219169083600481111561123757611236611ae2565b5b0217905550600360048111156112505761124f611ae2565b5b3073ffffffffffffffffffffffffffffffffffffffff167fb9d8da1dad982a47da9a81522b2a6ca5a69228f5d6644e928904fad64a5e3eda60405160405180910390a36000600460006101000a81548160ff02191690831515021790555050565b60008054906101000a900473ffffffffffffffffffffffffffffffffffffffff1681565b600260009054906101000a900473ffffffffffffffffffffffffffffffffffffffff1681565b60008060048111156113105761130f611ae2565b5b6005800160009054906101000a900460ff16600481111561133457611333611ae2565b5b14611374576040517f08c379a000000000000000000000000000000000000000000000000000000000815260040161136b90611dc4565b60405180910390fd5b3373ffffffffffffffffffffffffffffffffffffffff16600260009054906101000a900473ffffffffffffffffffffffffffffffffffffffff1673ffffffffffffffffffffffffffffffffffffffff1614611404576040517f08c379a00000000000000000000000000000000000000000000000000000000081526004016113fb9061228e565b60405180910390fd5b600460009054906101000a900460ff1615611454576040517f08c379a000000000000000000000000000000000000000000000000000000000815260040161144b90611fb9565b60405180910390fd5b6001600460006101000a81548160ff02191690831515021790555060016005800160006101000a81548160ff0219169083600481111561149757611496611ae2565b5b0217905550600160048111156114b0576114af611ae2565b5b3073ffffffffffffffffffffffffffffffffffffffff167f48dcd0338d5a7d1172cde81c1ada6efa321f132cc89321510a677fe7c5dad28060405160405180910390a36000600460006101000a81548160ff02191690831515021790555050565b611519611834565b600b60008381526020019081526020016000206040518060400160405290816000820160009054906101000a900473ffffffffffffffffffffffffffffffffffffffff1673ffffffffffffffffffffffffffffffffffffffff1673ffffffffffffffffffffffffffffffffffffffff1681526020016001820154815250509050919050565b60003373ffffffffffffffffffffffffffffffffffffffff16600260009054906101000a900473ffffffffffffffffffffffffffffffffffffffff1673ffffffffffffffffffffffffffffffffffffffff1614611630576040517f08c379a00000000000000000000000000000000000000000000000000000000081526004016116279061228e565b60405180910390fd5b600080600080600d5490506000600b600089815260200190815260200160002060000160009054906101000a900473ffffffffffffffffffffffffffffffffffffffff169050600160009054906101000a900473ffffffffffffffffffffffffffffffffffffffff1673ffffffffffffffffffffffffffffffffffffffff166309e69ede826040518263ffffffff1660e01b81526004016116d19190611bed565b600060405180830381865afa1580156116ee573d6000803e3d6000fd5b505050506040513d6000823e3d601f19601f8201168201806040525081019061171791906125ea565b608001519450600b600089815260200190815260200160002060010154871061177a57866064600b60008b8152602001908152602001600020600101548961175f91906122e2565b6117699190612316565b61177391906123b0565b93506117b6565b86606488600b60008c81526020019081526020016000206001015461179f91906122e2565b6117a99190612316565b6117b391906123b0565b93505b6001826117c391906122ae565b8483876117d09190612316565b6117da91906122ae565b6117e491906123b0565b9250829550505050505092915050565b6040518060800160405280611807611864565b815260200160008152602001600081526020016000600481111561182e5761182d611ae2565b5b81525090565b6040518060400160405280600073ffffffffffffffffffffffffffffffffffffffff168152602001600081525090565b60405180606001604052806060815260200160608152602001606081525090565b6000819050919050565b61189881611885565b82525050565b60006020820190506118b3600083018461188f565b92915050565b6000604051905090565b600080fd5b600080fd5b600073ffffffffffffffffffffffffffffffffffffffff82169050919050565b60006118f8826118cd565b9050919050565b611908816118ed565b811461191357600080fd5b50565b600081359050611925816118ff565b92915050565b600060208284031215611941576119406118c3565b5b600061194f84828501611916565b91505092915050565b6000819050919050565b61196b81611958565b82525050565b60006020820190506119866000830184611962565b92915050565b61199581611958565b81146119a057600080fd5b50565b6000813590506119b28161198c565b92915050565b6000602082840312156119ce576119cd6118c3565b5b60006119dc848285016119a3565b91505092915050565b600081519050919050565b600082825260208201905092915050565b60005b83811015611a1f578082015181840152602081019050611a04565b60008484015250505050565b6000601f19601f8301169050919050565b6000611a47826119e5565b611a5181856119f0565b9350611a61818560208601611a01565b611a6a81611a2b565b840191505092915050565b60006060830160008301518482036000860152611a928282611a3c565b91505060208301518482036020860152611aac8282611a3c565b91505060408301518482036040860152611ac68282611a3c565b9150508091505092915050565b611adc81611958565b82525050565b7f4e487b7100000000000000000000000000000000000000000000000000000000600052602160045260246000fd5b60058110611b2257611b21611ae2565b5b50565b6000819050611b3382611b11565b919050565b6000611b4382611b25565b9050919050565b611b5381611b38565b82525050565b60006080830160008301518482036000860152611b768282611a75565b9150506020830151611b8b6020860182611ad3565b506040830151611b9e6040860182611ad3565b506060830151611bb16060860182611b4a565b508091505092915050565b60006020820190508181036000830152611bd68184611b59565b905092915050565b611be7816118ed565b82525050565b6000602082019050611c026000830184611bde565b92915050565b611c11816118ed565b82525050565b604082016000820151611c2d6000850182611c08565b506020820151611c406020850182611ad3565b50505050565b6000604082019050611c5b6000830184611c17565b92915050565b60008160601b9050919050565b6000611c7982611c61565b9050919050565b6000611c8b82611c6e565b9050919050565b611ca3611c9e826118ed565b611c80565b82525050565b6000611cb58285611c92565b601482019150611cc58284611c92565b6014820191508190509392505050565b600082825260208201905092915050565b7f53657373696f6e3a20496e76616c696420626964646572416464720000000000600082015250565b6000611d1c601b83611cd5565b9150611d2782611ce6565b602082019050919050565b60006020820190508181036000830152611d4b81611d0f565b9050919050565b7f53657373696f6e3a204e6f7420616c6c6f7720776974682063757272656e742060008201527f73657373696f6e20737461746521000000000000000000000000000000000000602082015250565b6000611dae602e83611cd5565b9150611db982611d52565b604082019050919050565b60006020820190508181036000830152611ddd81611da1565b9050919050565b60008115159050919050565b611df981611de4565b8114611e0457600080fd5b50565b600081519050611e1681611df0565b92915050565b600060208284031215611e3257611e316118c3565b5b6000611e4084828501611e07565b91505092915050565b7f53657373696f6e3a204f6e6c792072656769737465726564206164647265737360008201527f2063616e20646f20746869732100000000000000000000000000000000000000602082015250565b6000611ea5602d83611cd5565b9150611eb082611e49565b604082019050919050565b60006020820190508181036000830152611ed481611e98565b9050919050565b7f53657373696f6e3a20526567697374657220796f7572204e616d6520616e642060008201527f456d61696c206669727374210000000000000000000000000000000000000000602082015250565b6000611f37602c83611cd5565b9150611f4282611edb565b604082019050919050565b60006020820190508181036000830152611f6681611f2a565b9050919050565b7f53657373696f6e3a205265656e7472616e742063616c6c2e0000000000000000600082015250565b6000611fa3601883611cd5565b9150611fae82611f6d565b602082019050919050565b60006020820190508181036000830152611fd281611f96565b9050919050565b7f53657373696f6e3a204269646465722061646472283029000000000000000000600082015250565b600061200f601783611cd5565b915061201a82611fd9565b602082019050919050565b6000602082019050818103600083015261203e81612002565b9050919050565b7f53657373696f6e3a205f7072696365206d75737420626520677265617465722060008201527f7468616e20300000000000000000000000000000000000000000000000000000602082015250565b60006120a1602683611cd5565b91506120ac82612045565b604082019050919050565b600060208201905081810360008301526120d081612094565b9050919050565b60006040820190506120ec6000830185611bde565b6120f96020830184611bde565b9392505050565b60008151905061210f8161198c565b92915050565b60006020828403121561212b5761212a6118c3565b5b600061213984828501612100565b91505092915050565b7f4e487b7100000000000000000000000000000000000000000000000000000000600052601160045260246000fd5b600061217c82611958565b91507fffffffffffffffffffffffffffffffffffffffffffffffffffffffffffffffff82036121ae576121ad612142565b5b600182019050919050565b60006040820190506121ce6000830185611962565b6121db6020830184611962565b9392505050565b7f4e487b7100000000000000000000000000000000000000000000000000000000600052602260045260246000fd5b6000600282049050600182168061222957607f821691505b60208210810361223c5761223b6121e2565b5b50919050565b7f53657373696f6e3a204f6e6c792061646d696e2063616e20646f207468697321600082015250565b6000612278602083611cd5565b915061228382612242565b602082019050919050565b600060208201905081810360008301526122a78161226b565b9050919050565b60006122b982611958565b91506122c483611958565b92508282019050808211156122dc576122db612142565b5b92915050565b60006122ed82611958565b91506122f883611958565b92508282039050818111156123105761230f612142565b5b92915050565b600061232182611958565b915061232c83611958565b925082820261233a81611958565b9150828204841483151761235157612350612142565b5b5092915050565b600060408201905061236d6000830185611bde565b61237a6020830184611962565b9392505050565b7f4e487b7100000000000000000000000000000000000000000000000000000000600052601260045260246000fd5b60006123bb82611958565b91506123c683611958565b9250826123d6576123d5612381565b5b828204905092915050565b600080fd5b7f4e487b7100000000000000000000000000000000000000000000000000000000600052604160045260246000fd5b61241e82611a2b565b810181811067ffffffffffffffff8211171561243d5761243c6123e6565b5b80604052505050565b60006124506118b9565b905061245c8282612415565b919050565b600080fd5b600081519050612475816118ff565b92915050565b600080fd5b600080fd5b600067ffffffffffffffff8211156124a05761249f6123e6565b5b6124a982611a2b565b9050602081019050919050565b60006124c96124c484612485565b612446565b9050828152602081018484840111156124e5576124e4612480565b5b6124f0848285611a01565b509392505050565b600082601f83011261250d5761250c61247b565b5b815161251d8482602086016124b6565b91505092915050565b600060a0828403121561253c5761253b6123e1565b5b61254660a0612446565b9050600061255684828501612466565b600083015250602082015167ffffffffffffffff81111561257a57612579612461565b5b612586848285016124f8565b602083015250604082015167ffffffffffffffff8111156125aa576125a9612461565b5b6125b6848285016124f8565b60408301525060606125ca84828501612100565b60608301525060806125de84828501612100565b60808301525092915050565b600060208284031215612600576125ff6118c3565b5b600082015167ffffffffffffffff81111561261e5761261d6118c8565b5b61262a84828501612526565b9150509291505056fea2646970667358221220da33cb479f3031f3f031352878e10e1e45c791af028853a7b695219eba95564364736f6c63430008130033a26469706673582212200ff05a42c9960657f16837e3b197babde9a1091c26d927bc508ef2fa67fa912464736f6c63430008130033",
  "immutableReferences": {},
  "source": "// SPDX-License-Identifier: MIT\n\npragma solidity ^0.8.14;\nimport \"./Session.sol\";\n\ncontract Main {\n    address public admin;\n\n    // Structure to hold details of Bidder\n    struct IParticipant {\n        address account;\n        string name;\n        string email;\n        uint256 bidCount;\n        uint256 bidDeviation;\n    }\n    //map to IParticipant\n    mapping(address => IParticipant) private _participants;\n    address[] private _iParticipants;\n\n    mapping(address => bool) public registered;\n    mapping(address => bool) public _completeAccount;\n\n    //map to save session addr\n    mapping(uint256 => address) private _sessions;\n    //map to save session hash\n    mapping(address => bytes32) private _sessionHashes;\n    uint256 private _sessionId;\n\n    //hasBis[bidderAddr][sessionAddr] --> check bidder has bid or not\n    mapping(address => mapping(address => bool)) private _hasBid;\n\n    // For re-entrance guarantee\n    bool private locked;\n\n    event NewSessionCreated(\n        uint256 indexed sessionId,\n        address indexed sessionAddress,\n        bytes32 sessionHash\n    );\n\n    constructor(address[] memory _accounts) {\n        admin = msg.sender;\n        uint256 accountsLength = _accounts.length;\n        for (uint256 i = 1; i < accountsLength; i++) {\n            registerByAdmin(_accounts[i]);\n        }\n    }\n\n    // Register new participant by admin\n    function registerByAdmin(address _newParticipant) private _onlyAdmin {\n        require(_newParticipant != address(0), \"Main: Invalid participant\");\n\n        //Update map to IParticipant\n        _participants[_newParticipant].account = _newParticipant;\n\n        // Update to save address of participant\n        _iParticipants.push(_newParticipant);\n        registered[_newParticipant] = true;\n    }\n\n    // Register/update user name and email by registed participants\n    function register(\n        string calldata _name,\n        string calldata _email\n    ) external _onlyRegistered nonReentrant {\n        address account = msg.sender;\n        require(!_completeAccount[account], \"Main: Your account is completed!\");\n        _participants[account].name = _name;\n        _participants[account].email = _email;\n        _completeAccount[account] = true;\n    }\n\n    // Get participant by address\n    function participants(\n        address _addr\n    ) external view returns (IParticipant memory) {\n        return _participants[_addr];\n    }\n\n    // Update bidCount of participant\n    function setBidCount(address _addr) external returns (uint256) {\n        return _participants[_addr].bidCount++;\n    }\n\n    // Update bidDeviation of participant\n    function setBidDev(address _addr, uint256 _dev) external returns (uint256) {\n        _participants[_addr].bidDeviation = _dev;\n        return _dev;\n    }\n\n    // Get number of participants\n    function nParticipants() external view returns (uint256) {\n        return _iParticipants.length;\n    }\n\n    // Get address of participant by index (use to loop through the list of participants)\n    function iParticipants(uint256 _index) external view returns (address) {\n        return _iParticipants[_index];\n    }\n\n    // Add a Session Contract\n    function addSession(\n        address _maincontract,\n        string calldata _productName,\n        string calldata _description,\n        string calldata _imageHashes\n    ) external _onlyAdmin nonReentrant {\n        // New instance of Session each time called\n        Session newSession = new Session(\n            admin,\n            _maincontract,\n            _productName,\n            _description,\n            _imageHashes\n        );\n        address sessionAddr = address(newSession);\n        bytes32 sessionHash = newSession.SessionHash();\n\n        //save address by ID\n        _sessions[_sessionId] = sessionAddr;\n        //save session hash to Main contract\n        _sessionHashes[sessionAddr] = sessionHash;\n\n        emit NewSessionCreated(_sessionId, sessionAddr, sessionHash);\n        _sessionId++;\n    }\n\n    //Check that participant addr has bidded\n    function hasBid(\n        address _participant,\n        address _sessionAddr\n    ) external view returns (bool) {\n        return _hasBid[_participant][_sessionAddr];\n    }\n\n    function setHasBid(\n        address _participant,\n        address _sessionAddr\n    ) external returns (bool) {\n        bool setBid = true;\n        _hasBid[_participant][_sessionAddr] = setBid;\n        return setBid;\n    }\n\n    // Get number of sessions\n    function nSessions() external view returns (uint256) {\n        return _sessionId;\n    }\n\n    // Get address of session by index (use to loop through the list of sessions)\n    function sessions(uint256 _index) external view returns (address) {\n        return _sessions[_index];\n    }\n\n    // Get saved session hash in Main contract\n    function getSessionHash(address _addr) external view returns (bytes32) {\n        return _sessionHashes[_addr];\n    }\n\n    modifier _onlyAdmin() {\n        require(admin == msg.sender, \"Main: Only admin can do this!\");\n        _;\n    }\n\n    modifier _onlyRegistered() {\n        require(\n            _participants[msg.sender].account == msg.sender,\n            \"Main: Only registered user can update their info!\"\n        );\n        _;\n    }\n\n    modifier nonReentrant() {\n        require(!locked, \"Main: Reentrant call.\");\n        locked = true;\n        _;\n        locked = false;\n    }\n}\n",
  "sourcePath": "/home/canvy/funix/BDP305-Final/FunixPricingChain/truffle/contracts/Main.sol",
  "compiler": {
    "name": "solc",
    "version": "0.8.19+commit.7dd6d404.Emscripten.clang"
  },
  "schemaVersion": "3.4.13",
  "updatedAt": "2023-04-05T12:41:50.125Z",
  "networkType": "ethereum",
  "devdoc": {
    "kind": "dev",
    "methods": {},
    "version": 1
  },
  "userdoc": {
    "kind": "user",
    "methods": {},
    "version": 1
  }
}