{
  "contractName": "Main",
  "abi": [
    {
      "inputs": [
        {
          "internalType": "address[]",
          "name": "_accounts",
          "type": "address[]"
        }
      ],
      "stateMutability": "nonpayable",
      "type": "constructor"
    },
    {
      "anonymous": false,
      "inputs": [
        {
          "indexed": true,
          "internalType": "address",
          "name": "sessionAddress",
          "type": "address"
        },
        {
          "indexed": true,
          "internalType": "bytes32",
          "name": "sessionHash",
          "type": "bytes32"
        }
      ],
      "name": "NewSessionCreated",
      "type": "event"
    },
    {
      "inputs": [],
      "name": "admin",
      "outputs": [
        {
          "internalType": "address",
          "name": "",
          "type": "address"
        }
      ],
      "stateMutability": "view",
      "type": "function",
      "constant": true
    },
    {
      "inputs": [
        {
          "internalType": "address",
          "name": "",
          "type": "address"
        }
      ],
      "name": "completeAccount",
      "outputs": [
        {
          "internalType": "bool",
          "name": "",
          "type": "bool"
        }
      ],
      "stateMutability": "view",
      "type": "function",
      "constant": true
    },
    {
      "inputs": [
        {
          "internalType": "address",
          "name": "",
          "type": "address"
        }
      ],
      "name": "hasWhitelisted",
      "outputs": [
        {
          "internalType": "bool",
          "name": "",
          "type": "bool"
        }
      ],
      "stateMutability": "view",
      "type": "function",
      "constant": true
    },
    {
      "inputs": [
        {
          "internalType": "string",
          "name": "_name",
          "type": "string"
        },
        {
          "internalType": "string",
          "name": "_email",
          "type": "string"
        }
      ],
      "name": "register",
      "outputs": [],
      "stateMutability": "nonpayable",
      "type": "function"
    },
    {
      "inputs": [
        {
          "internalType": "address",
          "name": "_maincontract",
          "type": "address"
        },
        {
          "internalType": "string",
          "name": "_productName",
          "type": "string"
        },
        {
          "internalType": "string",
          "name": "_description",
          "type": "string"
        },
        {
          "internalType": "string",
          "name": "_imageHashes",
          "type": "string"
        }
      ],
      "name": "addSession",
      "outputs": [],
      "stateMutability": "nonpayable",
      "type": "function"
    },
    {
      "inputs": [
        {
          "internalType": "address",
          "name": "_newParticipant",
          "type": "address"
        }
      ],
      "name": "addWhitelist",
      "outputs": [
        {
          "internalType": "bool",
          "name": "",
          "type": "bool"
        }
      ],
      "stateMutability": "nonpayable",
      "type": "function"
    },
    {
      "inputs": [
        {
          "internalType": "address",
          "name": "_addr",
          "type": "address"
        }
      ],
      "name": "participants",
      "outputs": [
        {
          "components": [
            {
              "internalType": "address",
              "name": "account",
              "type": "address"
            },
            {
              "internalType": "string",
              "name": "name",
              "type": "string"
            },
            {
              "internalType": "string",
              "name": "email",
              "type": "string"
            },
            {
              "internalType": "uint32",
              "name": "bidCount",
              "type": "uint32"
            },
            {
              "internalType": "uint32",
              "name": "bidDeviation",
              "type": "uint32"
            }
          ],
          "internalType": "struct Main.IParticipant",
          "name": "",
          "type": "tuple"
        }
      ],
      "stateMutability": "view",
      "type": "function",
      "constant": true
    },
    {
      "inputs": [
        {
          "internalType": "address",
          "name": "_addr",
          "type": "address"
        }
      ],
      "name": "setBidCount",
      "outputs": [
        {
          "internalType": "uint32",
          "name": "",
          "type": "uint32"
        }
      ],
      "stateMutability": "nonpayable",
      "type": "function"
    },
    {
      "inputs": [
        {
          "internalType": "address",
          "name": "_addr",
          "type": "address"
        },
        {
          "internalType": "uint32",
          "name": "_dev",
          "type": "uint32"
        }
      ],
      "name": "setBidDev",
      "outputs": [
        {
          "internalType": "uint32",
          "name": "",
          "type": "uint32"
        }
      ],
      "stateMutability": "nonpayable",
      "type": "function"
    },
    {
      "inputs": [],
      "name": "nParticipants",
      "outputs": [
        {
          "internalType": "uint256",
          "name": "",
          "type": "uint256"
        }
      ],
      "stateMutability": "view",
      "type": "function",
      "constant": true
    },
    {
      "inputs": [
        {
          "internalType": "uint32",
          "name": "_index",
          "type": "uint32"
        }
      ],
      "name": "iParticipants",
      "outputs": [
        {
          "internalType": "address",
          "name": "",
          "type": "address"
        }
      ],
      "stateMutability": "view",
      "type": "function",
      "constant": true
    },
    {
      "inputs": [
        {
          "internalType": "address",
          "name": "_participant",
          "type": "address"
        },
        {
          "internalType": "address",
          "name": "_sessionAddr",
          "type": "address"
        }
      ],
      "name": "hasBid",
      "outputs": [
        {
          "internalType": "bool",
          "name": "",
          "type": "bool"
        }
      ],
      "stateMutability": "view",
      "type": "function",
      "constant": true
    },
    {
      "inputs": [
        {
          "internalType": "address",
          "name": "_participant",
          "type": "address"
        },
        {
          "internalType": "address",
          "name": "_sessionAddr",
          "type": "address"
        }
      ],
      "name": "setHasBid",
      "outputs": [
        {
          "internalType": "bool",
          "name": "",
          "type": "bool"
        }
      ],
      "stateMutability": "nonpayable",
      "type": "function"
    },
    {
      "inputs": [],
      "name": "nSessions",
      "outputs": [
        {
          "internalType": "uint256",
          "name": "",
          "type": "uint256"
        }
      ],
      "stateMutability": "view",
      "type": "function",
      "constant": true
    },
    {
      "inputs": [
        {
          "internalType": "uint32",
          "name": "_index",
          "type": "uint32"
        }
      ],
      "name": "sessions",
      "outputs": [
        {
          "internalType": "address",
          "name": "",
          "type": "address"
        }
      ],
      "stateMutability": "view",
      "type": "function",
      "constant": true
    },
    {
      "inputs": [
        {
          "internalType": "address",
          "name": "_addr",
          "type": "address"
        }
      ],
      "name": "getSessionHash",
      "outputs": [
        {
          "internalType": "bytes32",
          "name": "",
          "type": "bytes32"
        }
      ],
      "stateMutability": "view",
      "type": "function",
      "constant": true
    }
  ],
  "bytecode": "0x60806040523480156200001157600080fd5b5060405162006356380380620063568339818101604052810190620000379190620005f3565b336000806101000a81548173ffffffffffffffffffffffffffffffffffffffff021916908373ffffffffffffffffffffffffffffffffffffffff1602179055506000815190506000600190505b81811015620000d157620000bb838281518110620000a757620000a662000644565b5b6020026020010151620000da60201b60201c565b8080620000c890620006ac565b91505062000084565b505050620008ac565b3373ffffffffffffffffffffffffffffffffffffffff1660008054906101000a900473ffffffffffffffffffffffffffffffffffffffff1673ffffffffffffffffffffffffffffffffffffffff16146200016b576040517f08c379a000000000000000000000000000000000000000000000000000000000815260040162000162906200075a565b60405180910390fd5b600073ffffffffffffffffffffffffffffffffffffffff168173ffffffffffffffffffffffffffffffffffffffff1603620001a557600080fd5b60008054906101000a900473ffffffffffffffffffffffffffffffffffffffff1673ffffffffffffffffffffffffffffffffffffffff168173ffffffffffffffffffffffffffffffffffffffff160362000236576040517f08c379a00000000000000000000000000000000000000000000000000000000081526004016200022d90620007f2565b60405180910390fd5b600360008273ffffffffffffffffffffffffffffffffffffffff1673ffffffffffffffffffffffffffffffffffffffff16815260200190815260200160002060009054906101000a900460ff1615620002c6576040517f08c379a0000000000000000000000000000000000000000000000000000000008152600401620002bd906200088a565b60405180910390fd5b80600160008373ffffffffffffffffffffffffffffffffffffffff1673ffffffffffffffffffffffffffffffffffffffff16815260200190815260200160002060000160006101000a81548173ffffffffffffffffffffffffffffffffffffffff021916908373ffffffffffffffffffffffffffffffffffffffff1602179055506002819080600181540180825580915050600190039060005260206000200160009091909190916101000a81548173ffffffffffffffffffffffffffffffffffffffff021916908373ffffffffffffffffffffffffffffffffffffffff1602179055506001600360008373ffffffffffffffffffffffffffffffffffffffff1673ffffffffffffffffffffffffffffffffffffffff16815260200190815260200160002060006101000a81548160ff02191690831515021790555050565b6000604051905090565b600080fd5b600080fd5b600080fd5b6000601f19601f8301169050919050565b7f4e487b7100000000000000000000000000000000000000000000000000000000600052604160045260246000fd5b62000469826200041e565b810181811067ffffffffffffffff821117156200048b576200048a6200042f565b5b80604052505050565b6000620004a062000405565b9050620004ae82826200045e565b919050565b600067ffffffffffffffff821115620004d157620004d06200042f565b5b602082029050602081019050919050565b600080fd5b600073ffffffffffffffffffffffffffffffffffffffff82169050919050565b60006200051482620004e7565b9050919050565b620005268162000507565b81146200053257600080fd5b50565b60008151905062000546816200051b565b92915050565b6000620005636200055d84620004b3565b62000494565b90508083825260208201905060208402830185811115620005895762000588620004e2565b5b835b81811015620005b65780620005a1888262000535565b8452602084019350506020810190506200058b565b5050509392505050565b600082601f830112620005d857620005d762000419565b5b8151620005ea8482602086016200054c565b91505092915050565b6000602082840312156200060c576200060b6200040f565b5b600082015167ffffffffffffffff8111156200062d576200062c62000414565b5b6200063b84828501620005c0565b91505092915050565b7f4e487b7100000000000000000000000000000000000000000000000000000000600052603260045260246000fd5b7f4e487b7100000000000000000000000000000000000000000000000000000000600052601160045260246000fd5b6000819050919050565b6000620006b982620006a2565b91507fffffffffffffffffffffffffffffffffffffffffffffffffffffffffffffffff8203620006ee57620006ed62000673565b5b600182019050919050565b600082825260208201905092915050565b7f4d61696e3a204f6e6c792061646d696e2063616e20646f207468697321000000600082015250565b600062000742601d83620006f9565b91506200074f826200070a565b602082019050919050565b60006020820190508181036000830152620007758162000733565b9050919050565b7f4d61696e3a2041646d696e2063616e27742062652077686974656c697374656460008201527f2100000000000000000000000000000000000000000000000000000000000000602082015250565b6000620007da602183620006f9565b9150620007e7826200077c565b604082019050919050565b600060208201905081810360008301526200080d81620007cb565b9050919050565b7f4d61696e3a205061727469636970616e742069732077686974656c697374656460008201527f2100000000000000000000000000000000000000000000000000000000000000602082015250565b600062000872602183620006f9565b91506200087f8262000814565b604082019050919050565b60006020820190508181036000830152620008a58162000863565b9050919050565b615a9a80620008bc6000396000f3fe60806040523480156200001157600080fd5b5060043610620001185760003560e01c8063852b257911620000a5578063ef73f485116200006f578063ef73f4851462000351578063efce20131462000387578063f80f5dd514620003bd578063f851a44014620003f35762000118565b8063852b257914620002a357806388b72aaf14620002d9578063b63bc3b414620002f9578063dc3ff17d146200031b5762000118565b8063454eed7d11620000e7578063454eed7d14620001df57806355631683146200020157806367ac2c381462000237578063736a6a7c146200026d5762000118565b806309e69ede146200011d578063395e4a8014620001535780633e02472714620001895780633ffbd47f14620001bf575b600080fd5b6200013b6004803603810190620001359190620015d4565b62000415565b6040516200014a919062001759565b60405180910390f35b6200017160048036038101906200016b9190620015d4565b62000646565b60405162000180919062001798565b60405180910390f35b620001a76004803603810190620001a19190620017e6565b6200068f565b604051620001b691906200183e565b60405180910390f35b620001dd6004803603810190620001d79190620018c9565b620006fb565b005b620001e9620009b8565b604051620001f8919062001972565b60405180910390f35b6200021f60048036038101906200021991906200198f565b620009c5565b6040516200022e9190620019d2565b60405180910390f35b6200025560048036038101906200024f9190620019ef565b62000a16565b60405162000264919062001a53565b60405180910390f35b6200028b6004803603810190620002859190620015d4565b62000aaa565b6040516200029a919062001a53565b60405180910390f35b620002c16004803603810190620002bb9190620015d4565b62000aca565b604051620002d091906200183e565b60405180910390f35b620002f76004803603810190620002f1919062001a70565b62000b55565b005b6200030362000f64565b60405162000312919062001972565b60405180910390f35b620003396004803603810190620003339190620019ef565b62000f71565b60405162000348919062001a53565b60405180910390f35b6200036f6004803603810190620003699190620015d4565b62001016565b6040516200037e919062001a53565b60405180910390f35b620003a560048036038101906200039f91906200198f565b62001036565b604051620003b49190620019d2565b60405180910390f35b620003db6004803603810190620003d59190620015d4565b62001087565b604051620003ea919062001a53565b60405180910390f35b620003fd620011b7565b6040516200040c9190620019d2565b60405180910390f35b6200041f62001506565b600160008373ffffffffffffffffffffffffffffffffffffffff1673ffffffffffffffffffffffffffffffffffffffff1681526020019081526020016000206040518060a00160405290816000820160009054906101000a900473ffffffffffffffffffffffffffffffffffffffff1673ffffffffffffffffffffffffffffffffffffffff1673ffffffffffffffffffffffffffffffffffffffff168152602001600182018054620004d19062001b7c565b80601f0160208091040260200160405190810160405280929190818152602001828054620004ff9062001b7c565b8015620005505780601f10620005245761010080835404028352916020019162000550565b820191906000526020600020905b8154815290600101906020018083116200053257829003601f168201915b505050505081526020016002820180546200056b9062001b7c565b80601f0160208091040260200160405190810160405280929190818152602001828054620005999062001b7c565b8015620005ea5780601f10620005be57610100808354040283529160200191620005ea565b820191906000526020600020905b815481529060010190602001808311620005cc57829003601f168201915b505050505081526020016003820160009054906101000a900463ffffffff1663ffffffff1663ffffffff1681526020016003820160049054906101000a900463ffffffff1663ffffffff1663ffffffff16815250509050919050565b6000600660008373ffffffffffffffffffffffffffffffffffffffff1673ffffffffffffffffffffffffffffffffffffffff168152602001908152602001600020549050919050565b600081600160008573ffffffffffffffffffffffffffffffffffffffff1673ffffffffffffffffffffffffffffffffffffffff16815260200190815260200160002060030160046101000a81548163ffffffff021916908363ffffffff16021790555081905092915050565b600360003373ffffffffffffffffffffffffffffffffffffffff1673ffffffffffffffffffffffffffffffffffffffff16815260200190815260200160002060009054906101000a900460ff166200078a576040517f08c379a0000000000000000000000000000000000000000000000000000000008152600401620007819062001c38565b60405180910390fd5b600033905060008585905011620007d8576040517f08c379a0000000000000000000000000000000000000000000000000000000008152600401620007cf9062001caa565b60405180910390fd5b6000838390501162000821576040517f08c379a0000000000000000000000000000000000000000000000000000000008152600401620008189062001d1c565b60405180910390fd5b600460008273ffffffffffffffffffffffffffffffffffffffff1673ffffffffffffffffffffffffffffffffffffffff16815260200190815260200160002060009054906101000a900460ff1615620008b1576040517f08c379a0000000000000000000000000000000000000000000000000000000008152600401620008a89062001d8e565b60405180910390fd5b8484600160008473ffffffffffffffffffffffffffffffffffffffff1673ffffffffffffffffffffffffffffffffffffffff16815260200190815260200160002060010191826200090492919062001fbc565b508282600160008473ffffffffffffffffffffffffffffffffffffffff1673ffffffffffffffffffffffffffffffffffffffff16815260200190815260200160002060020191826200095892919062001fbc565b506001600460008373ffffffffffffffffffffffffffffffffffffffff1673ffffffffffffffffffffffffffffffffffffffff16815260200190815260200160002060006101000a81548160ff0219169083151502179055505050505050565b6000600580549050905090565b600060058263ffffffff1681548110620009e457620009e3620020a1565b5b9060005260206000200160009054906101000a900473ffffffffffffffffffffffffffffffffffffffff169050919050565b6000600760008473ffffffffffffffffffffffffffffffffffffffff1673ffffffffffffffffffffffffffffffffffffffff16815260200190815260200160002060008373ffffffffffffffffffffffffffffffffffffffff1673ffffffffffffffffffffffffffffffffffffffff16815260200190815260200160002060009054906101000a900460ff16905092915050565b60036020528060005260406000206000915054906101000a900460ff1681565b6000600160008373ffffffffffffffffffffffffffffffffffffffff1673ffffffffffffffffffffffffffffffffffffffff168152602001908152602001600020600301600081819054906101000a900463ffffffff168092919062000b3090620020ff565b91906101000a81548163ffffffff021916908363ffffffff1602179055509050919050565b3373ffffffffffffffffffffffffffffffffffffffff1660008054906101000a900473ffffffffffffffffffffffffffffffffffffffff1673ffffffffffffffffffffffffffffffffffffffff161462000be6576040517f08c379a000000000000000000000000000000000000000000000000000000000815260040162000bdd9062002180565b60405180910390fd5b600860009054906101000a900460ff161562000c39576040517f08c379a000000000000000000000000000000000000000000000000000000000815260040162000c3090620021f2565b60405180910390fd5b6001600860006101000a81548160ff021916908315150217905550600073ffffffffffffffffffffffffffffffffffffffff168773ffffffffffffffffffffffffffffffffffffffff160362000c8e57600080fd5b6000868690501162000cd7576040517f08c379a000000000000000000000000000000000000000000000000000000000815260040162000cce906200228a565b60405180910390fd5b6000848490501162000d20576040517f08c379a000000000000000000000000000000000000000000000000000000000815260040162000d179062002322565b60405180910390fd5b6000828290501162000d69576040517f08c379a000000000000000000000000000000000000000000000000000000000815260040162000d6090620023ba565b60405180910390fd5b60008060009054906101000a900473ffffffffffffffffffffffffffffffffffffffff168888888888888860405162000da29062001557565b62000db59897969594939291906200241e565b604051809103906000f08015801562000dd2573d6000803e3d6000fd5b509050600081905060008273ffffffffffffffffffffffffffffffffffffffff16630a7a25b96040518163ffffffff1660e01b81526004016020604051808303816000875af115801562000e2a573d6000803e3d6000fd5b505050506040513d601f19601f8201168201806040525081019062000e509190620024c7565b90506005829080600181540180825580915050600190039060005260206000200160009091909190916101000a81548173ffffffffffffffffffffffffffffffffffffffff021916908373ffffffffffffffffffffffffffffffffffffffff16021790555080600660008473ffffffffffffffffffffffffffffffffffffffff1673ffffffffffffffffffffffffffffffffffffffff16815260200190815260200160002081905550808273ffffffffffffffffffffffffffffffffffffffff167f537ab9b9bbcfd50e21747fcbec8e6e36448bdeae1114245b77c07969112d0d3f60405160405180910390a35050506000600860006101000a81548160ff02191690831515021790555050505050505050565b6000600280549050905090565b6000806001905080600760008673ffffffffffffffffffffffffffffffffffffffff1673ffffffffffffffffffffffffffffffffffffffff16815260200190815260200160002060008573ffffffffffffffffffffffffffffffffffffffff1673ffffffffffffffffffffffffffffffffffffffff16815260200190815260200160002060006101000a81548160ff0219169083151502179055508091505092915050565b60046020528060005260406000206000915054906101000a900460ff1681565b600060028263ffffffff1681548110620010555762001054620020a1565b5b9060005260206000200160009054906101000a900473ffffffffffffffffffffffffffffffffffffffff169050919050565b60003373ffffffffffffffffffffffffffffffffffffffff1660008054906101000a900473ffffffffffffffffffffffffffffffffffffffff1673ffffffffffffffffffffffffffffffffffffffff16146200111a576040517f08c379a0000000000000000000000000000000000000000000000000000000008152600401620011119062002180565b60405180910390fd5b600860009054906101000a900460ff16156200116d576040517f08c379a00000000000000000000000000000000000000000000000000000000081526004016200116490620021f2565b60405180910390fd5b6001600860006101000a81548160ff0219169083151502179055506200119382620011db565b600190506000600860006101000a81548160ff021916908315150217905550919050565b60008054906101000a900473ffffffffffffffffffffffffffffffffffffffff1681565b3373ffffffffffffffffffffffffffffffffffffffff1660008054906101000a900473ffffffffffffffffffffffffffffffffffffffff1673ffffffffffffffffffffffffffffffffffffffff16146200126c576040517f08c379a0000000000000000000000000000000000000000000000000000000008152600401620012639062002180565b60405180910390fd5b600073ffffffffffffffffffffffffffffffffffffffff168173ffffffffffffffffffffffffffffffffffffffff1603620012a657600080fd5b60008054906101000a900473ffffffffffffffffffffffffffffffffffffffff1673ffffffffffffffffffffffffffffffffffffffff168173ffffffffffffffffffffffffffffffffffffffff160362001337576040517f08c379a00000000000000000000000000000000000000000000000000000000081526004016200132e906200256f565b60405180910390fd5b600360008273ffffffffffffffffffffffffffffffffffffffff1673ffffffffffffffffffffffffffffffffffffffff16815260200190815260200160002060009054906101000a900460ff1615620013c7576040517f08c379a0000000000000000000000000000000000000000000000000000000008152600401620013be9062002607565b60405180910390fd5b80600160008373ffffffffffffffffffffffffffffffffffffffff1673ffffffffffffffffffffffffffffffffffffffff16815260200190815260200160002060000160006101000a81548173ffffffffffffffffffffffffffffffffffffffff021916908373ffffffffffffffffffffffffffffffffffffffff1602179055506002819080600181540180825580915050600190039060005260206000200160009091909190916101000a81548173ffffffffffffffffffffffffffffffffffffffff021916908373ffffffffffffffffffffffffffffffffffffffff1602179055506001600360008373ffffffffffffffffffffffffffffffffffffffff1673ffffffffffffffffffffffffffffffffffffffff16815260200190815260200160002060006101000a81548160ff02191690831515021790555050565b6040518060a00160405280600073ffffffffffffffffffffffffffffffffffffffff1681526020016060815260200160608152602001600063ffffffff168152602001600063ffffffff1681525090565b61343b806200262a83390190565b600080fd5b600080fd5b600073ffffffffffffffffffffffffffffffffffffffff82169050919050565b60006200159c826200156f565b9050919050565b620015ae816200158f565b8114620015ba57600080fd5b50565b600081359050620015ce81620015a3565b92915050565b600060208284031215620015ed57620015ec62001565565b5b6000620015fd84828501620015bd565b91505092915050565b62001611816200158f565b82525050565b600081519050919050565b600082825260208201905092915050565b60005b838110156200165357808201518184015260208101905062001636565b60008484015250505050565b6000601f19601f8301169050919050565b60006200167d8262001617565b62001689818562001622565b93506200169b81856020860162001633565b620016a6816200165f565b840191505092915050565b600063ffffffff82169050919050565b620016cc81620016b1565b82525050565b600060a083016000830151620016ec600086018262001606565b506020830151848203602086015262001706828262001670565b9150506040830151848203604086015262001722828262001670565b9150506060830151620017396060860182620016c1565b5060808301516200174e6080860182620016c1565b508091505092915050565b60006020820190508181036000830152620017758184620016d2565b905092915050565b6000819050919050565b62001792816200177d565b82525050565b6000602082019050620017af600083018462001787565b92915050565b620017c081620016b1565b8114620017cc57600080fd5b50565b600081359050620017e081620017b5565b92915050565b600080604083850312156200180057620017ff62001565565b5b60006200181085828601620015bd565b92505060206200182385828601620017cf565b9150509250929050565b6200183881620016b1565b82525050565b60006020820190506200185560008301846200182d565b92915050565b600080fd5b600080fd5b600080fd5b60008083601f8401126200188357620018826200185b565b5b8235905067ffffffffffffffff811115620018a357620018a262001860565b5b602083019150836001820283011115620018c257620018c162001865565b5b9250929050565b60008060008060408587031215620018e657620018e562001565565b5b600085013567ffffffffffffffff8111156200190757620019066200156a565b5b62001915878288016200186a565b9450945050602085013567ffffffffffffffff8111156200193b576200193a6200156a565b5b62001949878288016200186a565b925092505092959194509250565b6000819050919050565b6200196c8162001957565b82525050565b600060208201905062001989600083018462001961565b92915050565b600060208284031215620019a857620019a762001565565b5b6000620019b884828501620017cf565b91505092915050565b620019cc816200158f565b82525050565b6000602082019050620019e96000830184620019c1565b92915050565b6000806040838503121562001a095762001a0862001565565b5b600062001a1985828601620015bd565b925050602062001a2c85828601620015bd565b9150509250929050565b60008115159050919050565b62001a4d8162001a36565b82525050565b600060208201905062001a6a600083018462001a42565b92915050565b60008060008060008060006080888a03121562001a925762001a9162001565565b5b600062001aa28a828b01620015bd565b975050602088013567ffffffffffffffff81111562001ac65762001ac56200156a565b5b62001ad48a828b016200186a565b9650965050604088013567ffffffffffffffff81111562001afa5762001af96200156a565b5b62001b088a828b016200186a565b9450945050606088013567ffffffffffffffff81111562001b2e5762001b2d6200156a565b5b62001b3c8a828b016200186a565b925092505092959891949750929550565b7f4e487b7100000000000000000000000000000000000000000000000000000000600052602260045260246000fd5b6000600282049050600182168062001b9557607f821691505b60208210810362001bab5762001baa62001b4d565b5b50919050565b600082825260208201905092915050565b7f4d61696e3a204f6e6c79207265676973746572656420757365722063616e206460008201527f6f20697421000000000000000000000000000000000000000000000000000000602082015250565b600062001c2060258362001bb1565b915062001c2d8262001bc2565b604082019050919050565b6000602082019050818103600083015262001c538162001c11565b9050919050565b7f4d61696e3a204e616d652073686f756c64206e6f7420626520656d7074790000600082015250565b600062001c92601e8362001bb1565b915062001c9f8262001c5a565b602082019050919050565b6000602082019050818103600083015262001cc58162001c83565b9050919050565b7f4d61696e3a20456d61696c2073686f756c64206e6f7420626520656d70747900600082015250565b600062001d04601f8362001bb1565b915062001d118262001ccc565b602082019050919050565b6000602082019050818103600083015262001d378162001cf5565b9050919050565b7f4d61696e3a20596f7572206163636f756e7420697320636f6d706c6574656421600082015250565b600062001d7660208362001bb1565b915062001d838262001d3e565b602082019050919050565b6000602082019050818103600083015262001da98162001d67565b9050919050565b600082905092915050565b7f4e487b7100000000000000000000000000000000000000000000000000000000600052604160045260246000fd5b60008190508160005260206000209050919050565b60006020601f8301049050919050565b600082821b905092915050565b60006008830262001e4e7fffffffffffffffffffffffffffffffffffffffffffffffffffffffffffffffff8262001e0f565b62001e5a868362001e0f565b95508019841693508086168417925050509392505050565b6000819050919050565b600062001e9d62001e9762001e918462001957565b62001e72565b62001957565b9050919050565b6000819050919050565b62001eb98362001e7c565b62001ed162001ec88262001ea4565b84845462001e1c565b825550505050565b600090565b62001ee862001ed9565b62001ef581848462001eae565b505050565b5b8181101562001f1d5762001f1160008262001ede565b60018101905062001efb565b5050565b601f82111562001f6c5762001f368162001dea565b62001f418462001dff565b8101602085101562001f51578190505b62001f6962001f608562001dff565b83018262001efa565b50505b505050565b600082821c905092915050565b600062001f916000198460080262001f71565b1980831691505092915050565b600062001fac838362001f7e565b9150826002028217905092915050565b62001fc8838362001db0565b67ffffffffffffffff81111562001fe45762001fe362001dbb565b5b62001ff0825462001b7c565b62001ffd82828562001f21565b6000601f8311600181146200203157600084156200201c578287013590505b62002028858262001f9e565b86555062002098565b601f198416620020418662001dea565b60005b828110156200206b5784890135825560018201915060208501945060208101905062002044565b868310156200208b578489013562002087601f89168262001f7e565b8355505b6001600288020188555050505b50505050505050565b7f4e487b7100000000000000000000000000000000000000000000000000000000600052603260045260246000fd5b7f4e487b7100000000000000000000000000000000000000000000000000000000600052601160045260246000fd5b60006200210c82620016b1565b915063ffffffff8203620021255762002124620020d0565b5b600182019050919050565b7f4d61696e3a204f6e6c792061646d696e2063616e20646f207468697321000000600082015250565b600062002168601d8362001bb1565b9150620021758262002130565b602082019050919050565b600060208201905081810360008301526200219b8162002159565b9050919050565b7f4d61696e3a205265656e7472616e742063616c6c2e0000000000000000000000600082015250565b6000620021da60158362001bb1565b9150620021e782620021a2565b602082019050919050565b600060208201905081810360008301526200220d81620021cb565b9050919050565b7f4d61696e3a2050726f64756374206e616d652073686f756c64206e6f7420626560008201527f20656d7074790000000000000000000000000000000000000000000000000000602082015250565b60006200227260268362001bb1565b91506200227f8262002214565b604082019050919050565b60006020820190508181036000830152620022a58162002263565b9050919050565b7f4d61696e3a204465736372697074696f6e2073686f756c64206e6f742062652060008201527f656d707479000000000000000000000000000000000000000000000000000000602082015250565b60006200230a60258362001bb1565b91506200231782620022ac565b604082019050919050565b600060208201905081810360008301526200233d81620022fb565b9050919050565b7f4d61696e3a20496d616765206861736865732073686f756c64206e6f7420626560008201527f20656d7074790000000000000000000000000000000000000000000000000000602082015250565b6000620023a260268362001bb1565b9150620023af8262002344565b604082019050919050565b60006020820190508181036000830152620023d58162002393565b9050919050565b82818337600083830152505050565b6000620023f9838562001bb1565b935062002408838584620023dc565b62002413836200165f565b840190509392505050565b600060a08201905062002435600083018b620019c1565b62002444602083018a620019c1565b81810360408301526200245981888a620023eb565b9050818103606083015262002470818688620023eb565b9050818103608083015262002487818486620023eb565b90509998505050505050505050565b620024a1816200177d565b8114620024ad57600080fd5b50565b600081519050620024c18162002496565b92915050565b600060208284031215620024e057620024df62001565565b5b6000620024f084828501620024b0565b91505092915050565b7f4d61696e3a2041646d696e2063616e27742062652077686974656c697374656460008201527f2100000000000000000000000000000000000000000000000000000000000000602082015250565b60006200255760218362001bb1565b91506200256482620024f9565b604082019050919050565b600060208201905081810360008301526200258a8162002548565b9050919050565b7f4d61696e3a205061727469636970616e742069732077686974656c697374656460008201527f2100000000000000000000000000000000000000000000000000000000000000602082015250565b6000620025ef60218362001bb1565b9150620025fc8262002591565b604082019050919050565b600060208201905081810360008301526200262281620025e0565b905091905056fe60806040526001600b60006101000a81548160ff021916908360ff1602179055503480156200002d57600080fd5b506040516200343b3803806200343b833981810160405281019062000053919062000456565b84600260006101000a81548173ffffffffffffffffffffffffffffffffffffffff021916908373ffffffffffffffffffffffffffffffffffffffff160217905550836000806101000a81548173ffffffffffffffffffffffffffffffffffffffff021916908373ffffffffffffffffffffffffffffffffffffffff16021790555083600160006101000a81548173ffffffffffffffffffffffffffffffffffffffff021916908373ffffffffffffffffffffffffffffffffffffffff160217905550600060405180608001604052806040518060600160405280878152602001868152602001858152508152602001600063ffffffff168152602001600063ffffffff168152602001600060048111156200017357620001726200053b565b5b815250905080600560008201518160000160008201518160000190816200019b9190620007b5565b506020820151816001019081620001b39190620007b5565b506040820151816002019081620001cb9190620007b5565b50505060208201518160030160006101000a81548163ffffffff021916908363ffffffff16021790555060408201518160030160046101000a81548163ffffffff021916908363ffffffff16021790555060608201518160030160086101000a81548160ff021916908360048111156200024a57620002496200053b565b5b02179055509050505050505050506200089c565b6000604051905090565b600080fd5b600080fd5b600073ffffffffffffffffffffffffffffffffffffffff82169050919050565b60006200029f8262000272565b9050919050565b620002b18162000292565b8114620002bd57600080fd5b50565b600081519050620002d181620002a6565b92915050565b600080fd5b600080fd5b6000601f19601f8301169050919050565b7f4e487b7100000000000000000000000000000000000000000000000000000000600052604160045260246000fd5b6200032c82620002e1565b810181811067ffffffffffffffff821117156200034e576200034d620002f2565b5b80604052505050565b6000620003636200025e565b905062000371828262000321565b919050565b600067ffffffffffffffff821115620003945762000393620002f2565b5b6200039f82620002e1565b9050602081019050919050565b60005b83811015620003cc578082015181840152602081019050620003af565b60008484015250505050565b6000620003ef620003e98462000376565b62000357565b9050828152602081018484840111156200040e576200040d620002dc565b5b6200041b848285620003ac565b509392505050565b600082601f8301126200043b576200043a620002d7565b5b81516200044d848260208601620003d8565b91505092915050565b600080600080600060a0868803121562000475576200047462000268565b5b60006200048588828901620002c0565b95505060206200049888828901620002c0565b945050604086015167ffffffffffffffff811115620004bc57620004bb6200026d565b5b620004ca8882890162000423565b935050606086015167ffffffffffffffff811115620004ee57620004ed6200026d565b5b620004fc8882890162000423565b925050608086015167ffffffffffffffff81111562000520576200051f6200026d565b5b6200052e8882890162000423565b9150509295509295909350565b7f4e487b7100000000000000000000000000000000000000000000000000000000600052602160045260246000fd5b600081519050919050565b7f4e487b7100000000000000000000000000000000000000000000000000000000600052602260045260246000fd5b60006002820490506001821680620005bd57607f821691505b602082108103620005d357620005d262000575565b5b50919050565b60008190508160005260206000209050919050565b60006020601f8301049050919050565b600082821b905092915050565b6000600883026200063d7fffffffffffffffffffffffffffffffffffffffffffffffffffffffffffffffff82620005fe565b620006498683620005fe565b95508019841693508086168417925050509392505050565b6000819050919050565b6000819050919050565b600062000696620006906200068a8462000661565b6200066b565b62000661565b9050919050565b6000819050919050565b620006b28362000675565b620006ca620006c1826200069d565b8484546200060b565b825550505050565b600090565b620006e1620006d2565b620006ee818484620006a7565b505050565b5b8181101562000716576200070a600082620006d7565b600181019050620006f4565b5050565b601f82111562000765576200072f81620005d9565b6200073a84620005ee565b810160208510156200074a578190505b620007626200075985620005ee565b830182620006f3565b50505b505050565b600082821c905092915050565b60006200078a600019846008026200076a565b1980831691505092915050565b6000620007a5838362000777565b9150826002028217905092915050565b620007c0826200056a565b67ffffffffffffffff811115620007dc57620007db620002f2565b5b620007e88254620005a4565b620007f58282856200071a565b600060209050601f8311600181146200082d576000841562000818578287015190505b62000824858262000797565b86555062000894565b601f1984166200083d86620005d9565b60005b82811015620008675784890151825560018201915060208501945060208101905062000840565b8683101562000887578489015162000883601f89168262000777565b8355505b6001600288020188555050505b505050505050565b612b8f80620008ac6000396000f3fe608060405234801561001057600080fd5b50600436106100a95760003560e01c80639463b1cd116100715780639463b1cd14610166578063cbd8c61314610184578063d270e7ab1461018e578063de09beed146101ac578063f851a440146101c8578063fe0ae165146101e6576100a9565b80630a7a25b9146100ae578063217d51a9146100cc57806325a69288146100ea5780632b3abd37146101065780638f764df514610136575b600080fd5b6100b66101f0565b6040516100c39190611ca9565b60405180910390f35b6100d4610249565b6040516100e19190611ce3565b60405180910390f35b61010460048036038101906100ff9190611d3e565b610486565b005b610120600480360381019061011b9190611dc9565b610c73565b60405161012d9190611e12565b60405180910390f35b610150600480360381019061014b9190611e59565b610d37565b60405161015d9190611ed3565b60405180910390f35b61016e610de6565b60405161017b91906120b6565b60405180910390f35b61018c611051565b005b610196611274565b6040516101a391906120e7565b60405180910390f35b6101c660048036038101906101c19190611d3e565b611298565b005b6101d061164b565b6040516101dd91906120e7565b60405180910390f35b6101ee611671565b005b60003060008054906101000a900473ffffffffffffffffffffffffffffffffffffffff1660405160200161022592919061214a565b60405160208183030381529060405280519060200120600381905550600354905090565b60006001600b60009054906101000a900460ff1660ff16116102a0576040517f08c379a0000000000000000000000000000000000000000000000000000000008152600401610297906121d3565b60405180910390fd5b6000806000806000600190505b600b60009054906101000a900460ff1660ff168160ff161015610438576000600960008360ff1660ff16815260200190815260200160002060000160149054906101000a900463ffffffff1690506000600960008460ff1660ff16815260200190815260200160002060000160009054906101000a900473ffffffffffffffffffffffffffffffffffffffff1690506103e8600160009054906101000a900473ffffffffffffffffffffffffffffffffffffffff1673ffffffffffffffffffffffffffffffffffffffff166309e69ede836040518263ffffffff1660e01b815260040161039a91906120e7565b600060405180830381865afa1580156103b7573d6000803e3d6000fd5b505050506040513d6000823e3d601f19601f820116820180604052508101906103e09190612411565b608001516103ee91906124b8565b965086866103fc91906124e9565b955086606461040b9190612521565b826104169190612559565b8561042191906124e9565b94505050808061043090612596565b9150506102ad565b50826001600b60009054906101000a900460ff1661045691906125bf565b60ff1660646104659190612559565b61046f9190612521565b8261047a91906124b8565b90508094505050505090565b6001600481111561049a57610499611fdc565b5b600560030160089054906101000a900460ff1660048111156104bf576104be611fdc565b5b14806105015750600260048111156104da576104d9611fdc565b5b600560030160089054906101000a900460ff1660048111156104ff576104fe611fdc565b5b145b610540576040517f08c379a000000000000000000000000000000000000000000000000000000000815260040161053790612666565b60405180910390fd5b600160009054906101000a900473ffffffffffffffffffffffffffffffffffffffff1673ffffffffffffffffffffffffffffffffffffffff1663736a6a7c336040518263ffffffff1660e01b815260040161059b91906120e7565b602060405180830381865afa1580156105b8573d6000803e3d6000fd5b505050506040513d601f19601f820116820180604052508101906105dc91906126be565b61061b576040517f08c379a00000000000000000000000000000000000000000000000000000000081526004016106129061275d565b60405180910390fd5b600160009054906101000a900473ffffffffffffffffffffffffffffffffffffffff1673ffffffffffffffffffffffffffffffffffffffff1663ef73f485336040518263ffffffff1660e01b815260040161067691906120e7565b602060405180830381865afa158015610693573d6000803e3d6000fd5b505050506040513d601f19601f820116820180604052508101906106b791906126be565b6106f6576040517f08c379a00000000000000000000000000000000000000000000000000000000081526004016106ed906127ef565b60405180910390fd5b600460009054906101000a900460ff1615610746576040517f08c379a000000000000000000000000000000000000000000000000000000000815260040161073d9061285b565b60405180910390fd5b6001600460006101000a81548160ff02191690831515021790555060008163ffffffff161161077457600080fd5b600033905060003090506000600160009054906101000a900473ffffffffffffffffffffffffffffffffffffffff1673ffffffffffffffffffffffffffffffffffffffff166367ac2c3884846040518363ffffffff1660e01b81526004016107dd92919061287b565b602060405180830381865afa1580156107fa573d6000803e3d6000fd5b505050506040513d601f19601f8201168201806040525081019061081e91906126be565b610ae857600160009054906101000a900473ffffffffffffffffffffffffffffffffffffffff1673ffffffffffffffffffffffffffffffffffffffff1663dc3ff17d84846040518363ffffffff1660e01b815260040161087f92919061287b565b6020604051808303816000875af115801561089e573d6000803e3d6000fd5b505050506040513d601f19601f820116820180604052508101906108c291906126be565b508260096000600b60009054906101000a900460ff1660ff1660ff16815260200190815260200160002060000160006101000a81548173ffffffffffffffffffffffffffffffffffffffff021916908373ffffffffffffffffffffffffffffffffffffffff1602179055508360096000600b60009054906101000a900460ff1660ff1660ff16815260200190815260200160002060000160146101000a81548163ffffffff021916908363ffffffff160217905550600b60009054906101000a900460ff16600a60008573ffffffffffffffffffffffffffffffffffffffff1673ffffffffffffffffffffffffffffffffffffffff16815260200190815260200160002060006101000a81548160ff021916908360ff1602179055506002600560030160086101000a81548160ff02191690836004811115610a0757610a06611fdc565b5b0217905550600160009054906101000a900473ffffffffffffffffffffffffffffffffffffffff1673ffffffffffffffffffffffffffffffffffffffff1663852b2579846040518263ffffffff1660e01b8152600401610a6791906120e7565b6020604051808303816000875af1158015610a86573d6000803e3d6000fd5b505050506040513d601f19601f82011682018060405250810190610aaa91906128a4565b50600b600081819054906101000a900460ff1680929190610aca90612596565b91906101000a81548160ff021916908360ff16021790555050610beb565b60096000600a60008673ffffffffffffffffffffffffffffffffffffffff1673ffffffffffffffffffffffffffffffffffffffff16815260200190815260200160002060009054906101000a900460ff1660ff1660ff16815260200190815260200160002060000160149054906101000a900463ffffffff1690508360096000600a60008773ffffffffffffffffffffffffffffffffffffffff1673ffffffffffffffffffffffffffffffffffffffff16815260200190815260200160002060009054906101000a900460ff1660ff1660ff16815260200190815260200160002060000160146101000a81548163ffffffff021916908363ffffffff1602179055505b8273ffffffffffffffffffffffffffffffffffffffff168273ffffffffffffffffffffffffffffffffffffffff167f55157585b98f59a735d3a524f3ec494ca2d7f9ee515abeebc6a26147e46e70c98387604051610c4a9291906128d1565b60405180910390a35050506000600460006101000a81548160ff02191690831515021790555050565b60008073ffffffffffffffffffffffffffffffffffffffff168273ffffffffffffffffffffffffffffffffffffffff1603610ce3576040517f08c379a0000000000000000000000000000000000000000000000000000000008152600401610cda90612946565b60405180910390fd5b600a60008373ffffffffffffffffffffffffffffffffffffffff1673ffffffffffffffffffffffffffffffffffffffff16815260200190815260200160002060009054906101000a900460ff169050919050565b610d3f611bed565b600960008360ff1660ff1681526020019081526020016000206040518060400160405290816000820160009054906101000a900473ffffffffffffffffffffffffffffffffffffffff1673ffffffffffffffffffffffffffffffffffffffff1673ffffffffffffffffffffffffffffffffffffffff1681526020016000820160149054906101000a900463ffffffff1663ffffffff1663ffffffff16815250509050919050565b610dee611c23565b600560405180608001604052908160008201604051806060016040529081600082018054610e1b90612995565b80601f0160208091040260200160405190810160405280929190818152602001828054610e4790612995565b8015610e945780601f10610e6957610100808354040283529160200191610e94565b820191906000526020600020905b815481529060010190602001808311610e7757829003601f168201915b50505050508152602001600182018054610ead90612995565b80601f0160208091040260200160405190810160405280929190818152602001828054610ed990612995565b8015610f265780601f10610efb57610100808354040283529160200191610f26565b820191906000526020600020905b815481529060010190602001808311610f0957829003601f168201915b50505050508152602001600282018054610f3f90612995565b80601f0160208091040260200160405190810160405280929190818152602001828054610f6b90612995565b8015610fb85780601f10610f8d57610100808354040283529160200191610fb8565b820191906000526020600020905b815481529060010190602001808311610f9b57829003601f168201915b50505050508152505081526020016003820160009054906101000a900463ffffffff1663ffffffff1663ffffffff1681526020016003820160049054906101000a900463ffffffff1663ffffffff1663ffffffff1681526020016003820160089054906101000a900460ff16600481111561103657611035611fdc565b5b600481111561104857611047611fdc565b5b81525050905090565b600280600481111561106657611065611fdc565b5b600560030160089054906101000a900460ff16600481111561108b5761108a611fdc565b5b146110cb576040517f08c379a00000000000000000000000000000000000000000000000000000000081526004016110c290612a38565b60405180910390fd5b600073ffffffffffffffffffffffffffffffffffffffff16600260009054906101000a900473ffffffffffffffffffffffffffffffffffffffff1673ffffffffffffffffffffffffffffffffffffffff160361115c576040517f08c379a000000000000000000000000000000000000000000000000000000000815260040161115390612aa4565b60405180910390fd5b3373ffffffffffffffffffffffffffffffffffffffff16600260009054906101000a900473ffffffffffffffffffffffffffffffffffffffff1673ffffffffffffffffffffffffffffffffffffffff16146111ec576040517f08c379a00000000000000000000000000000000000000000000000000000000081526004016111e390612b10565b60405180910390fd5b6003600560030160086101000a81548160ff0219169083600481111561121557611214611fdc565b5b02179055506003600481111561122e5761122d611fdc565b5b3073ffffffffffffffffffffffffffffffffffffffff167fb9d8da1dad982a47da9a81522b2a6ca5a69228f5d6644e928904fad64a5e3eda60405160405180910390a350565b60008054906101000a900473ffffffffffffffffffffffffffffffffffffffff1681565b60038060048111156112ad576112ac611fdc565b5b600560030160089054906101000a900460ff1660048111156112d2576112d1611fdc565b5b14611312576040517f08c379a000000000000000000000000000000000000000000000000000000000815260040161130990612a38565b60405180910390fd5b600073ffffffffffffffffffffffffffffffffffffffff16600260009054906101000a900473ffffffffffffffffffffffffffffffffffffffff1673ffffffffffffffffffffffffffffffffffffffff16036113a3576040517f08c379a000000000000000000000000000000000000000000000000000000000815260040161139a90612aa4565b60405180910390fd5b3373ffffffffffffffffffffffffffffffffffffffff16600260009054906101000a900473ffffffffffffffffffffffffffffffffffffffff1673ffffffffffffffffffffffffffffffffffffffff1614611433576040517f08c379a000000000000000000000000000000000000000000000000000000000815260040161142a90612b10565b60405180910390fd5b60008263ffffffff161161144657600080fd5b6004600560030160086101000a81548160ff0219169083600481111561146f5761146e611fdc565b5b021790555061147c610249565b600560030160006101000a81548163ffffffff021916908363ffffffff16021790555081600560030160046101000a81548163ffffffff021916908363ffffffff1602179055506000600190505b600b60009054906101000a900460ff1660ff168160ff1610156115e057600160009054906101000a900473ffffffffffffffffffffffffffffffffffffffff1673ffffffffffffffffffffffffffffffffffffffff16633e024727600960008460ff1660ff16815260200190815260200160002060000160009054906101000a900473ffffffffffffffffffffffffffffffffffffffff1661156c8487611894565b6040518363ffffffff1660e01b8152600401611589929190612b30565b6020604051808303816000875af11580156115a8573d6000803e3d6000fd5b505050506040513d601f19601f820116820180604052508101906115cc91906128a4565b5080806115d890612596565b9150506114ca565b508163ffffffff16600560030160009054906101000a900463ffffffff1663ffffffff163073ffffffffffffffffffffffffffffffffffffffff167f21d197ab6873a90cf4d93db6cd029f415072e6607523229c199231d639eb0c1760405160405180910390a45050565b600260009054906101000a900473ffffffffffffffffffffffffffffffffffffffff1681565b600080600481111561168657611685611fdc565b5b600560030160089054906101000a900460ff1660048111156116ab576116aa611fdc565b5b146116eb576040517f08c379a00000000000000000000000000000000000000000000000000000000081526004016116e290612a38565b60405180910390fd5b600073ffffffffffffffffffffffffffffffffffffffff16600260009054906101000a900473ffffffffffffffffffffffffffffffffffffffff1673ffffffffffffffffffffffffffffffffffffffff160361177c576040517f08c379a000000000000000000000000000000000000000000000000000000000815260040161177390612aa4565b60405180910390fd5b3373ffffffffffffffffffffffffffffffffffffffff16600260009054906101000a900473ffffffffffffffffffffffffffffffffffffffff1673ffffffffffffffffffffffffffffffffffffffff161461180c576040517f08c379a000000000000000000000000000000000000000000000000000000000815260040161180390612b10565b60405180910390fd5b6001600560030160086101000a81548160ff0219169083600481111561183557611834611fdc565b5b02179055506001600481111561184e5761184d611fdc565b5b3073ffffffffffffffffffffffffffffffffffffffff167f48dcd0338d5a7d1172cde81c1ada6efa321f132cc89321510a677fe7c5dad28060405160405180910390a350565b60008073ffffffffffffffffffffffffffffffffffffffff16600260009054906101000a900473ffffffffffffffffffffffffffffffffffffffff1673ffffffffffffffffffffffffffffffffffffffff1603611926576040517f08c379a000000000000000000000000000000000000000000000000000000000815260040161191d90612aa4565b60405180910390fd5b3373ffffffffffffffffffffffffffffffffffffffff16600260009054906101000a900473ffffffffffffffffffffffffffffffffffffffff1673ffffffffffffffffffffffffffffffffffffffff16146119b6576040517f08c379a00000000000000000000000000000000000000000000000000000000081526004016119ad90612b10565b60405180910390fd5b60008360ff16116119c657600080fd5b60008263ffffffff16116119d957600080fd5b6000600960008560ff1660ff16815260200190815260200160002060000160009054906101000a900473ffffffffffffffffffffffffffffffffffffffff1690506000600960008660ff1660ff16815260200190815260200160002060000160149054906101000a900463ffffffff1690506000806000600160009054906101000a900473ffffffffffffffffffffffffffffffffffffffff1673ffffffffffffffffffffffffffffffffffffffff166309e69ede866040518263ffffffff1660e01b8152600401611aab91906120e7565b600060405180830381865afa158015611ac8573d6000803e3d6000fd5b505050506040513d6000823e3d601f19601f82011682018060405250810190611af19190612411565b6080015190508363ffffffff168763ffffffff1610611b4157866103e86064868a611b1c9190612521565b611b269190612559565b611b309190612559565b611b3a91906124b8565b9250611b74565b866103e860648987611b539190612521565b611b5d9190612559565b611b679190612559565b611b7191906124b8565b92505b600180600b60009054906101000a900460ff16611b9191906125bf565b60ff16611b9e91906124e9565b836001600b60009054906101000a900460ff16611bbb91906125bf565b60ff1683611bc99190612559565b611bd391906124e9565b611bdd91906124b8565b9150819550505050505092915050565b6040518060400160405280600073ffffffffffffffffffffffffffffffffffffffff168152602001600063ffffffff1681525090565b6040518060800160405280611c36611c6f565b8152602001600063ffffffff168152602001600063ffffffff16815260200160006004811115611c6957611c68611fdc565b5b81525090565b60405180606001604052806060815260200160608152602001606081525090565b6000819050919050565b611ca381611c90565b82525050565b6000602082019050611cbe6000830184611c9a565b92915050565b600063ffffffff82169050919050565b611cdd81611cc4565b82525050565b6000602082019050611cf86000830184611cd4565b92915050565b6000604051905090565b600080fd5b600080fd5b611d1b81611cc4565b8114611d2657600080fd5b50565b600081359050611d3881611d12565b92915050565b600060208284031215611d5457611d53611d08565b5b6000611d6284828501611d29565b91505092915050565b600073ffffffffffffffffffffffffffffffffffffffff82169050919050565b6000611d9682611d6b565b9050919050565b611da681611d8b565b8114611db157600080fd5b50565b600081359050611dc381611d9d565b92915050565b600060208284031215611ddf57611dde611d08565b5b6000611ded84828501611db4565b91505092915050565b600060ff82169050919050565b611e0c81611df6565b82525050565b6000602082019050611e276000830184611e03565b92915050565b611e3681611df6565b8114611e4157600080fd5b50565b600081359050611e5381611e2d565b92915050565b600060208284031215611e6f57611e6e611d08565b5b6000611e7d84828501611e44565b91505092915050565b611e8f81611d8b565b82525050565b611e9e81611cc4565b82525050565b604082016000820151611eba6000850182611e86565b506020820151611ecd6020850182611e95565b50505050565b6000604082019050611ee86000830184611ea4565b92915050565b600081519050919050565b600082825260208201905092915050565b60005b83811015611f28578082015181840152602081019050611f0d565b60008484015250505050565b6000601f19601f8301169050919050565b6000611f5082611eee565b611f5a8185611ef9565b9350611f6a818560208601611f0a565b611f7381611f34565b840191505092915050565b60006060830160008301518482036000860152611f9b8282611f45565b91505060208301518482036020860152611fb58282611f45565b91505060408301518482036040860152611fcf8282611f45565b9150508091505092915050565b7f4e487b7100000000000000000000000000000000000000000000000000000000600052602160045260246000fd5b6005811061201c5761201b611fdc565b5b50565b600081905061202d8261200b565b919050565b600061203d8261201f565b9050919050565b61204d81612032565b82525050565b600060808301600083015184820360008601526120708282611f7e565b91505060208301516120856020860182611e95565b5060408301516120986040860182611e95565b5060608301516120ab6060860182612044565b508091505092915050565b600060208201905081810360008301526120d08184612053565b905092915050565b6120e181611d8b565b82525050565b60006020820190506120fc60008301846120d8565b92915050565b60008160601b9050919050565b600061211a82612102565b9050919050565b600061212c8261210f565b9050919050565b61214461213f82611d8b565b612121565b82525050565b60006121568285612133565b6014820191506121668284612133565b6014820191508190509392505050565b600082825260208201905092915050565b7f53657373696f6e3a204e6f2062696464657220746f2063616c63756c61746521600082015250565b60006121bd602083612176565b91506121c882612187565b602082019050919050565b600060208201905081810360008301526121ec816121b0565b9050919050565b600080fd5b7f4e487b7100000000000000000000000000000000000000000000000000000000600052604160045260246000fd5b61223082611f34565b810181811067ffffffffffffffff8211171561224f5761224e6121f8565b5b80604052505050565b6000612262611cfe565b905061226e8282612227565b919050565b600080fd5b60008151905061228781611d9d565b92915050565b600080fd5b600080fd5b600067ffffffffffffffff8211156122b2576122b16121f8565b5b6122bb82611f34565b9050602081019050919050565b60006122db6122d684612297565b612258565b9050828152602081018484840111156122f7576122f6612292565b5b612302848285611f0a565b509392505050565b600082601f83011261231f5761231e61228d565b5b815161232f8482602086016122c8565b91505092915050565b60008151905061234781611d12565b92915050565b600060a08284031215612363576123626121f3565b5b61236d60a0612258565b9050600061237d84828501612278565b600083015250602082015167ffffffffffffffff8111156123a1576123a0612273565b5b6123ad8482850161230a565b602083015250604082015167ffffffffffffffff8111156123d1576123d0612273565b5b6123dd8482850161230a565b60408301525060606123f184828501612338565b606083015250608061240584828501612338565b60808301525092915050565b60006020828403121561242757612426611d08565b5b600082015167ffffffffffffffff81111561244557612444611d0d565b5b6124518482850161234d565b91505092915050565b7f4e487b7100000000000000000000000000000000000000000000000000000000600052601260045260246000fd5b7f4e487b7100000000000000000000000000000000000000000000000000000000600052601160045260246000fd5b60006124c382611cc4565b91506124ce83611cc4565b9250826124de576124dd61245a565b5b828204905092915050565b60006124f482611cc4565b91506124ff83611cc4565b9250828201905063ffffffff81111561251b5761251a612489565b5b92915050565b600061252c82611cc4565b915061253783611cc4565b9250828203905063ffffffff81111561255357612552612489565b5b92915050565b600061256482611cc4565b915061256f83611cc4565b925082820261257d81611cc4565b915080821461258f5761258e612489565b5b5092915050565b60006125a182611df6565b915060ff82036125b4576125b3612489565b5b600182019050919050565b60006125ca82611df6565b91506125d583611df6565b9250828203905060ff8111156125ee576125ed612489565b5b92915050565b7f53657373696f6e3a205374617465206d757374206265205354415254206f722060008201527f50524943494e4721000000000000000000000000000000000000000000000000602082015250565b6000612650602883612176565b915061265b826125f4565b604082019050919050565b6000602082019050818103600083015261267f81612643565b9050919050565b60008115159050919050565b61269b81612686565b81146126a657600080fd5b50565b6000815190506126b881612692565b92915050565b6000602082840312156126d4576126d3611d08565b5b60006126e2848285016126a9565b91505092915050565b7f53657373696f6e3a204f6e6c792072656769737465726564206164647265737360008201527f2063616e20646f20746869732100000000000000000000000000000000000000602082015250565b6000612747602d83612176565b9150612752826126eb565b604082019050919050565b600060208201905081810360008301526127768161273a565b9050919050565b7f53657373696f6e3a20526567697374657220796f7572204e616d6520616e642060008201527f456d61696c206669727374210000000000000000000000000000000000000000602082015250565b60006127d9602c83612176565b91506127e48261277d565b604082019050919050565b60006020820190508181036000830152612808816127cc565b9050919050565b7f53657373696f6e3a205265656e7472616e742063616c6c2e0000000000000000600082015250565b6000612845601883612176565b91506128508261280f565b602082019050919050565b6000602082019050818103600083015261287481612838565b9050919050565b600060408201905061289060008301856120d8565b61289d60208301846120d8565b9392505050565b6000602082840312156128ba576128b9611d08565b5b60006128c884828501612338565b91505092915050565b60006040820190506128e66000830185611cd4565b6128f36020830184611cd4565b9392505050565b7f53657373696f6e3a20496e76616c696420626964646572416464720000000000600082015250565b6000612930601b83612176565b915061293b826128fa565b602082019050919050565b6000602082019050818103600083015261295f81612923565b9050919050565b7f4e487b7100000000000000000000000000000000000000000000000000000000600052602260045260246000fd5b600060028204905060018216806129ad57607f821691505b6020821081036129c0576129bf612966565b5b50919050565b7f53657373696f6e3a204e6f7420616c6c6f7720776974682063757272656e742060008201527f73657373696f6e20737461746521000000000000000000000000000000000000602082015250565b6000612a22602e83612176565b9150612a2d826129c6565b604082019050919050565b60006020820190508181036000830152612a5181612a15565b9050919050565b7f53657373696f6e3a20496e76616c696420616464726573732030210000000000600082015250565b6000612a8e601b83612176565b9150612a9982612a58565b602082019050919050565b60006020820190508181036000830152612abd81612a81565b9050919050565b7f53657373696f6e3a204f6e6c792061646d696e2063616e20646f207468697321600082015250565b6000612afa602083612176565b9150612b0582612ac4565b602082019050919050565b60006020820190508181036000830152612b2981612aed565b9050919050565b6000604082019050612b4560008301856120d8565b612b526020830184611cd4565b939250505056fea264697066735822122024634027f91088669949808d0407be619deaeb166c3aa8ab69006d6a3c85865364736f6c63430008130033a264697066735822122096a8c659d872cd22b67844e9087c7051c8421425dbc7de5923ec57538ebde8b264736f6c63430008130033",
  "immutableReferences": {},
  "source": "// SPDX-License-Identifier: MIT\n\npragma solidity ^0.8.14;\nimport \"./Session.sol\";\n\ncontract Main {\n    address public admin;\n\n    // Structure to hold details of Bidder\n    struct IParticipant {\n        address account;\n        string name;\n        string email;\n        uint32 bidCount;\n        uint32 bidDeviation;\n    }\n    //map to IParticipant\n    mapping(address => IParticipant) private _participants;\n    address[] private _iParticipants;\n\n    mapping(address => bool) public hasWhitelisted;\n    mapping(address => bool) public completeAccount;\n\n    //map to save session addr\n    address[] private _sessions;\n    //map to save session hash\n    mapping(address => bytes32) private _sessionHashes;\n\n    //hasBis[bidderAddr][sessionAddr] --> check bidder has bid or not\n    mapping(address => mapping(address => bool)) private _hasBid;\n\n    // For re-entrance guarantee\n    bool private locked;\n\n    event NewSessionCreated(\n        address indexed sessionAddress,\n        bytes32 indexed sessionHash\n    );\n\n    constructor(address[] memory _accounts) {\n        admin = msg.sender;\n        uint256 accountsLength = _accounts.length;\n        for (uint256 i = 1; i < accountsLength; i++) {\n            whitelist(_accounts[i]);\n        }\n    }\n\n    // Register/update user name and email by registed participants\n    function register(\n        string calldata _name,\n        string calldata _email\n    ) external _onlyWhitelisted {\n        address account = msg.sender;\n        require(bytes(_name).length > 0, \"Main: Name should not be empty\");\n        require(bytes(_email).length > 0, \"Main: Email should not be empty\");\n        require(!completeAccount[account], \"Main: Your account is completed!\");\n\n        _participants[account].name = _name;\n        _participants[account].email = _email;\n        completeAccount[account] = true;\n    }\n\n    // Add a Session Contract\n    function addSession(\n        address _maincontract,\n        string calldata _productName,\n        string calldata _description,\n        string calldata _imageHashes\n    ) external _onlyAdmin nonReentrant {\n        require(_maincontract != address(0));\n        require(\n            bytes(_productName).length > 0,\n            \"Main: Product name should not be empty\"\n        );\n        require(\n            bytes(_description).length > 0,\n            \"Main: Description should not be empty\"\n        );\n        require(\n            bytes(_imageHashes).length > 0,\n            \"Main: Image hashes should not be empty\"\n        );\n        // New instance of Session each time called\n        Session newSession = new Session(\n            admin,\n            _maincontract,\n            _productName,\n            _description,\n            _imageHashes\n        );\n        address sessionAddr = address(newSession);\n        bytes32 sessionHash = newSession.SessionHash();\n\n        //save address by ID\n        _sessions.push(sessionAddr);\n        //save session hash to Main contract\n        _sessionHashes[sessionAddr] = sessionHash;\n\n        emit NewSessionCreated(sessionAddr, sessionHash);\n    }\n\n    // For admin to add a new participant\n    function addWhitelist(\n        address _newParticipant\n    ) external _onlyAdmin nonReentrant returns (bool) {\n        whitelist(_newParticipant);\n        return true;\n    }\n\n    // Register new participant by admin\n    function whitelist(address _newParticipant) private _onlyAdmin {\n        require(_newParticipant != address(0));\n        require(_newParticipant != admin, \"Main: Admin can't be whitelisted!\");\n        require(\n            !hasWhitelisted[_newParticipant],\n            \"Main: Participant is whitelisted!\"\n        );\n\n        //Update map to IParticipant\n        _participants[_newParticipant].account = _newParticipant;\n\n        // Update to save address of participant\n        _iParticipants.push(_newParticipant);\n        hasWhitelisted[_newParticipant] = true;\n    }\n\n    // Get participant by address\n    function participants(\n        address _addr\n    ) external view returns (IParticipant memory) {\n        return _participants[_addr];\n    }\n\n    // Update bidCount of participant\n    function setBidCount(address _addr) external returns (uint32) {\n        return _participants[_addr].bidCount++;\n    }\n\n    // Update bidDeviation of participant\n    function setBidDev(address _addr, uint32 _dev) external returns (uint32) {\n        _participants[_addr].bidDeviation = _dev;\n        return _dev;\n    }\n\n    // Get number of participants\n    function nParticipants() external view returns (uint256) {\n        return _iParticipants.length;\n    }\n\n    // Get address of participant by index (use to loop through the list of participants)\n    function iParticipants(uint32 _index) external view returns (address) {\n        return _iParticipants[_index];\n    }\n\n    //Check that participant addr has bidded\n    function hasBid(\n        address _participant,\n        address _sessionAddr\n    ) external view returns (bool) {\n        return _hasBid[_participant][_sessionAddr];\n    }\n\n    function setHasBid(\n        address _participant,\n        address _sessionAddr\n    ) external returns (bool) {\n        bool setBid = true;\n        _hasBid[_participant][_sessionAddr] = setBid;\n        return setBid;\n    }\n\n    // Get number of sessions\n    function nSessions() external view returns (uint256) {\n        return _sessions.length;\n    }\n\n    // Get address of session by index (use to loop through the list of sessions)\n    function sessions(uint32 _index) external view returns (address) {\n        return _sessions[_index];\n    }\n\n    // Get saved session hash in Main contract\n    function getSessionHash(address _addr) external view returns (bytes32) {\n        return _sessionHashes[_addr];\n    }\n\n    modifier _onlyAdmin() {\n        require(admin == msg.sender, \"Main: Only admin can do this!\");\n        _;\n    }\n\n    modifier _onlyWhitelisted() {\n        require(\n            hasWhitelisted[msg.sender],\n            \"Main: Only registered user can do it!\"\n        );\n        _;\n    }\n\n    modifier nonReentrant() {\n        require(!locked, \"Main: Reentrant call.\");\n        locked = true;\n        _;\n        locked = false;\n    }\n}\n",
  "sourcePath": "/home/canvy/funix/BDP305-Final/FunixPricingChain/truffle/contracts/Main.sol",
  "compiler": {
    "name": "solc",
    "version": "0.8.19+commit.7dd6d404.Emscripten.clang"
  },
  "schemaVersion": "3.4.13",
  "updatedAt": "2023-04-21T04:44:59.471Z",
  "networkType": "ethereum",
  "devdoc": {
    "kind": "dev",
    "methods": {},
    "version": 1
  },
  "userdoc": {
    "kind": "user",
    "methods": {},
    "version": 1
  }
}