{
  "contractName": "Session",
  "abi": [
    {
      "inputs": [
        {
          "internalType": "address",
          "name": "_admin",
          "type": "address"
        },
        {
          "internalType": "address",
          "name": "_mainContract",
          "type": "address"
        },
        {
          "internalType": "string",
          "name": "_productName",
          "type": "string"
        },
        {
          "internalType": "string",
          "name": "_description",
          "type": "string"
        },
        {
          "internalType": "string",
          "name": "_imageHashes",
          "type": "string"
        }
      ],
      "stateMutability": "nonpayable",
      "type": "constructor"
    },
    {
      "anonymous": false,
      "inputs": [
        {
          "indexed": true,
          "internalType": "address",
          "name": "sessionAddr",
          "type": "address"
        },
        {
          "indexed": true,
          "internalType": "uint256",
          "name": "suggestedPrice",
          "type": "uint256"
        },
        {
          "indexed": true,
          "internalType": "uint256",
          "name": "finalPrice",
          "type": "uint256"
        }
      ],
      "name": "SessionClosed",
      "type": "event"
    },
    {
      "anonymous": false,
      "inputs": [
        {
          "indexed": true,
          "internalType": "address",
          "name": "sessionAddr",
          "type": "address"
        },
        {
          "indexed": true,
          "internalType": "address",
          "name": "account",
          "type": "address"
        },
        {
          "indexed": false,
          "internalType": "uint256",
          "name": "oldPrice",
          "type": "uint256"
        },
        {
          "indexed": false,
          "internalType": "uint256",
          "name": "newPrice",
          "type": "uint256"
        }
      ],
      "name": "SessionPricing",
      "type": "event"
    },
    {
      "anonymous": false,
      "inputs": [
        {
          "indexed": true,
          "internalType": "address",
          "name": "sessionAddr",
          "type": "address"
        },
        {
          "indexed": true,
          "internalType": "enum Session.SessionState",
          "name": "curState",
          "type": "uint8"
        }
      ],
      "name": "SessionStarted",
      "type": "event"
    },
    {
      "anonymous": false,
      "inputs": [
        {
          "indexed": true,
          "internalType": "address",
          "name": "sessionAddr",
          "type": "address"
        },
        {
          "indexed": true,
          "internalType": "enum Session.SessionState",
          "name": "curState",
          "type": "uint8"
        }
      ],
      "name": "SessionStopped",
      "type": "event"
    },
    {
      "inputs": [],
      "name": "admin",
      "outputs": [
        {
          "internalType": "address",
          "name": "",
          "type": "address"
        }
      ],
      "stateMutability": "view",
      "type": "function"
    },
    {
      "inputs": [],
      "name": "mainContract",
      "outputs": [
        {
          "internalType": "address",
          "name": "",
          "type": "address"
        }
      ],
      "stateMutability": "view",
      "type": "function"
    },
    {
      "inputs": [],
      "name": "startSession",
      "outputs": [],
      "stateMutability": "nonpayable",
      "type": "function"
    },
    {
      "inputs": [
        {
          "internalType": "uint256",
          "name": "_newPrice",
          "type": "uint256"
        }
      ],
      "name": "pricingSession",
      "outputs": [],
      "stateMutability": "nonpayable",
      "type": "function"
    },
    {
      "inputs": [],
      "name": "stopSession",
      "outputs": [],
      "stateMutability": "nonpayable",
      "type": "function"
    },
    {
      "inputs": [
        {
          "internalType": "uint256",
          "name": "_actual",
          "type": "uint256"
        }
      ],
      "name": "closeSession",
      "outputs": [],
      "stateMutability": "nonpayable",
      "type": "function"
    },
    {
      "inputs": [],
      "name": "getBidderCount",
      "outputs": [
        {
          "internalType": "uint256",
          "name": "",
          "type": "uint256"
        }
      ],
      "stateMutability": "view",
      "type": "function"
    },
    {
      "inputs": [
        {
          "internalType": "address",
          "name": "_bidderAddr",
          "type": "address"
        }
      ],
      "name": "getBidderId",
      "outputs": [
        {
          "internalType": "uint256",
          "name": "",
          "type": "uint256"
        }
      ],
      "stateMutability": "view",
      "type": "function"
    },
    {
      "inputs": [
        {
          "internalType": "uint256",
          "name": "_index",
          "type": "uint256"
        }
      ],
      "name": "getBidderInfo",
      "outputs": [
        {
          "components": [
            {
              "internalType": "address",
              "name": "account",
              "type": "address"
            },
            {
              "internalType": "uint256",
              "name": "price",
              "type": "uint256"
            }
          ],
          "internalType": "struct Session.Bidder",
          "name": "",
          "type": "tuple"
        }
      ],
      "stateMutability": "view",
      "type": "function"
    },
    {
      "inputs": [],
      "name": "getSessionInfo",
      "outputs": [
        {
          "components": [
            {
              "components": [
                {
                  "internalType": "string",
                  "name": "name",
                  "type": "string"
                },
                {
                  "internalType": "string",
                  "name": "description",
                  "type": "string"
                },
                {
                  "internalType": "string",
                  "name": "imageHashes",
                  "type": "string"
                }
              ],
              "internalType": "struct Session.Product",
              "name": "product",
              "type": "tuple"
            },
            {
              "internalType": "uint256",
              "name": "suggestedPrice",
              "type": "uint256"
            },
            {
              "internalType": "uint256",
              "name": "finalPrice",
              "type": "uint256"
            },
            {
              "internalType": "enum Session.SessionState",
              "name": "currentState",
              "type": "uint8"
            }
          ],
          "internalType": "struct Session.ISession",
          "name": "",
          "type": "tuple"
        }
      ],
      "stateMutability": "view",
      "type": "function"
    },
    {
      "inputs": [],
      "name": "SessionHash",
      "outputs": [
        {
          "internalType": "bytes32",
          "name": "",
          "type": "bytes32"
        }
      ],
      "stateMutability": "nonpayable",
      "type": "function"
    }
  ],
  "bytecode": "0x60806040523480156200001157600080fd5b5060405162002eb338038062002eb38339818101604052810190620000379190620003f4565b84600260006101000a81548173ffffffffffffffffffffffffffffffffffffffff021916908373ffffffffffffffffffffffffffffffffffffffff160217905550836000806101000a81548173ffffffffffffffffffffffffffffffffffffffff021916908373ffffffffffffffffffffffffffffffffffffffff16021790555083600160006101000a81548173ffffffffffffffffffffffffffffffffffffffff021916908373ffffffffffffffffffffffffffffffffffffffff1602179055506000604051806080016040528060405180606001604052808781526020018681526020018581525081526020016000815260200160008152602001600060048111156200014b576200014a620004d9565b5b8152509050806005600082015181600001600082015181600001908162000173919062000753565b5060208201518160010190816200018b919062000753565b506040820151816002019081620001a3919062000753565b505050602082015181600301556040820151816004015560608201518160050160006101000a81548160ff02191690836004811115620001e857620001e7620004d9565b5b02179055509050505050505050506200083a565b6000604051905090565b600080fd5b600080fd5b600073ffffffffffffffffffffffffffffffffffffffff82169050919050565b60006200023d8262000210565b9050919050565b6200024f8162000230565b81146200025b57600080fd5b50565b6000815190506200026f8162000244565b92915050565b600080fd5b600080fd5b6000601f19601f8301169050919050565b7f4e487b7100000000000000000000000000000000000000000000000000000000600052604160045260246000fd5b620002ca826200027f565b810181811067ffffffffffffffff82111715620002ec57620002eb62000290565b5b80604052505050565b600062000301620001fc565b90506200030f8282620002bf565b919050565b600067ffffffffffffffff82111562000332576200033162000290565b5b6200033d826200027f565b9050602081019050919050565b60005b838110156200036a5780820151818401526020810190506200034d565b60008484015250505050565b60006200038d620003878462000314565b620002f5565b905082815260208101848484011115620003ac57620003ab6200027a565b5b620003b98482856200034a565b509392505050565b600082601f830112620003d957620003d862000275565b5b8151620003eb84826020860162000376565b91505092915050565b600080600080600060a0868803121562000413576200041262000206565b5b600062000423888289016200025e565b955050602062000436888289016200025e565b945050604086015167ffffffffffffffff8111156200045a57620004596200020b565b5b6200046888828901620003c1565b935050606086015167ffffffffffffffff8111156200048c576200048b6200020b565b5b6200049a88828901620003c1565b925050608086015167ffffffffffffffff811115620004be57620004bd6200020b565b5b620004cc88828901620003c1565b9150509295509295909350565b7f4e487b7100000000000000000000000000000000000000000000000000000000600052602160045260246000fd5b600081519050919050565b7f4e487b7100000000000000000000000000000000000000000000000000000000600052602260045260246000fd5b600060028204905060018216806200055b57607f821691505b60208210810362000571576200057062000513565b5b50919050565b60008190508160005260206000209050919050565b60006020601f8301049050919050565b600082821b905092915050565b600060088302620005db7fffffffffffffffffffffffffffffffffffffffffffffffffffffffffffffffff826200059c565b620005e786836200059c565b95508019841693508086168417925050509392505050565b6000819050919050565b6000819050919050565b6000620006346200062e6200062884620005ff565b62000609565b620005ff565b9050919050565b6000819050919050565b620006508362000613565b620006686200065f826200063b565b848454620005a9565b825550505050565b600090565b6200067f62000670565b6200068c81848462000645565b505050565b5b81811015620006b457620006a860008262000675565b60018101905062000692565b5050565b601f8211156200070357620006cd8162000577565b620006d8846200058c565b81016020851015620006e8578190505b62000700620006f7856200058c565b83018262000691565b50505b505050565b600082821c905092915050565b6000620007286000198460080262000708565b1980831691505092915050565b600062000743838362000715565b9150826002028217905092915050565b6200075e8262000508565b67ffffffffffffffff8111156200077a576200077962000290565b5b62000786825462000542565b62000793828285620006b8565b600060209050601f831160018114620007cb5760008415620007b6578287015190505b620007c2858262000735565b86555062000832565b601f198416620007db8662000577565b60005b828110156200080557848901518255600182019150602085019450602081019050620007de565b8683101562000825578489015162000821601f89168262000715565b8355505b6001600288020188555050505b505050505050565b612669806200084a6000396000f3fe608060405234801561001057600080fd5b50600436106100a95760003560e01c8063c87da02d11610071578063c87da02d14610152578063cbd8c61314610170578063d270e7ab1461017a578063f851a44014610198578063fe0ae165146101b6578063ff6a6d65146101c0576100a9565b80630a7a25b9146100ae5780632b3abd37146100cc578063546905e3146100fc5780639463b1cd14610118578063a3bfdf4714610136575b600080fd5b6100b66101f0565b6040516100c3919061189e565b60405180910390f35b6100e660048036038101906100e1919061192b565b610249565b6040516100f39190611971565b60405180910390f35b610116600480360381019061011191906119b8565b610300565b005b610120610ab7565b60405161012d9190611bbc565b60405180910390f35b610150600480360381019061014b91906119b8565b610cea565b005b61015a611091565b6040516101679190611971565b60405180910390f35b61017861109b565b005b6101826112b1565b60405161018f9190611bed565b60405180910390f35b6101a06112d5565b6040516101ad9190611bed565b60405180910390f35b6101be6112fb565b005b6101da60048036038101906101d591906119b8565b611511565b6040516101e79190611c46565b60405180910390f35b60003060008054906101000a900473ffffffffffffffffffffffffffffffffffffffff16604051602001610225929190611ca9565b60405160208183030381529060405280519060200120600381905550600354905090565b60008073ffffffffffffffffffffffffffffffffffffffff168273ffffffffffffffffffffffffffffffffffffffff16036102b9576040517f08c379a00000000000000000000000000000000000000000000000000000000081526004016102b090611d32565b60405180910390fd5b600c60008373ffffffffffffffffffffffffffffffffffffffff1673ffffffffffffffffffffffffffffffffffffffff168152602001908152602001600020549050919050565b6001600481111561031457610313611ae2565b5b6005800160009054906101000a900460ff16600481111561033857610337611ae2565b5b148061037957506002600481111561035357610352611ae2565b5b6005800160009054906101000a900460ff16600481111561037757610376611ae2565b5b145b6103b8576040517f08c379a00000000000000000000000000000000000000000000000000000000081526004016103af90611dc4565b60405180910390fd5b600160009054906101000a900473ffffffffffffffffffffffffffffffffffffffff1673ffffffffffffffffffffffffffffffffffffffff1663b2dd5c07336040518263ffffffff1660e01b81526004016104139190611bed565b602060405180830381865afa158015610430573d6000803e3d6000fd5b505050506040513d601f19601f820116820180604052508101906104549190611e1c565b610493576040517f08c379a000000000000000000000000000000000000000000000000000000000815260040161048a90611ebb565b60405180910390fd5b600160009054906101000a900473ffffffffffffffffffffffffffffffffffffffff1673ffffffffffffffffffffffffffffffffffffffff1663a569b83d336040518263ffffffff1660e01b81526004016104ee9190611bed565b602060405180830381865afa15801561050b573d6000803e3d6000fd5b505050506040513d601f19601f8201168201806040525081019061052f9190611e1c565b61056e576040517f08c379a000000000000000000000000000000000000000000000000000000000815260040161056590611f4d565b60405180910390fd5b600460009054906101000a900460ff16156105be576040517f08c379a00000000000000000000000000000000000000000000000000000000081526004016105b590611fb9565b60405180910390fd5b6001600460006101000a81548160ff0219169083151502179055506000339050600030905060008073ffffffffffffffffffffffffffffffffffffffff168373ffffffffffffffffffffffffffffffffffffffff1603610653576040517f08c379a000000000000000000000000000000000000000000000000000000000815260040161064a90612025565b60405180910390fd5b60008411610696576040517f08c379a000000000000000000000000000000000000000000000000000000000815260040161068d906120b7565b60405180910390fd5b600160009054906101000a900473ffffffffffffffffffffffffffffffffffffffff1673ffffffffffffffffffffffffffffffffffffffff166367ac2c3884846040518363ffffffff1660e01b81526004016106f39291906120d7565b602060405180830381865afa158015610710573d6000803e3d6000fd5b505050506040513d601f19601f820116820180604052508101906107349190611e1c565b61097c57600160009054906101000a900473ffffffffffffffffffffffffffffffffffffffff1673ffffffffffffffffffffffffffffffffffffffff1663dc3ff17d84846040518363ffffffff1660e01b81526004016107959291906120d7565b6020604051808303816000875af11580156107b4573d6000803e3d6000fd5b505050506040513d601f19601f820116820180604052508101906107d89190611e1c565b5082600b6000600d54815260200190815260200160002060000160006101000a81548173ffffffffffffffffffffffffffffffffffffffff021916908373ffffffffffffffffffffffffffffffffffffffff16021790555083600b6000600d54815260200190815260200160002060010181905550600d54600c60008573ffffffffffffffffffffffffffffffffffffffff1673ffffffffffffffffffffffffffffffffffffffff1681526020019081526020016000208190555060026005800160006101000a81548160ff021916908360048111156108bb576108ba611ae2565b5b0217905550600160009054906101000a900473ffffffffffffffffffffffffffffffffffffffff1673ffffffffffffffffffffffffffffffffffffffff1663852b2579846040518263ffffffff1660e01b815260040161091b9190611bed565b6020604051808303816000875af115801561093a573d6000803e3d6000fd5b505050506040513d601f19601f8201168201806040525081019061095e9190612115565b50600d600081548092919061097290612171565b9190505550610a2f565b600b6000600c60008673ffffffffffffffffffffffffffffffffffffffff1673ffffffffffffffffffffffffffffffffffffffff16815260200190815260200160002054815260200190815260200160002060010154905083600b6000600c60008773ffffffffffffffffffffffffffffffffffffffff1673ffffffffffffffffffffffffffffffffffffffff168152602001908152602001600020548152602001908152602001600020600101819055505b8273ffffffffffffffffffffffffffffffffffffffff168273ffffffffffffffffffffffffffffffffffffffff167f16998438c1125bcbd2d3e02b75155344463330c3643f9892640287bfa618696e8387604051610a8e9291906121b9565b60405180910390a35050506000600460006101000a81548160ff02191690831515021790555050565b610abf6117f4565b600560405180608001604052908160008201604051806060016040529081600082018054610aec90612211565b80601f0160208091040260200160405190810160405280929190818152602001828054610b1890612211565b8015610b655780601f10610b3a57610100808354040283529160200191610b65565b820191906000526020600020905b815481529060010190602001808311610b4857829003601f168201915b50505050508152602001600182018054610b7e90612211565b80601f0160208091040260200160405190810160405280929190818152602001828054610baa90612211565b8015610bf75780601f10610bcc57610100808354040283529160200191610bf7565b820191906000526020600020905b815481529060010190602001808311610bda57829003601f168201915b50505050508152602001600282018054610c1090612211565b80601f0160208091040260200160405190810160405280929190818152602001828054610c3c90612211565b8015610c895780601f10610c5e57610100808354040283529160200191610c89565b820191906000526020600020905b815481529060010190602001808311610c6c57829003601f168201915b505050505081525050815260200160038201548152602001600482015481526020016005820160009054906101000a900460ff166004811115610ccf57610cce611ae2565b5b6004811115610ce157610ce0611ae2565b5b81525050905090565b6003806004811115610cff57610cfe611ae2565b5b6005800160009054906101000a900460ff166004811115610d2357610d22611ae2565b5b14610d63576040517f08c379a0000000000000000000000000000000000000000000000000000000008152600401610d5a90611dc4565b60405180910390fd5b3373ffffffffffffffffffffffffffffffffffffffff16600260009054906101000a900473ffffffffffffffffffffffffffffffffffffffff1673ffffffffffffffffffffffffffffffffffffffff1614610df3576040517f08c379a0000000000000000000000000000000000000000000000000000000008152600401610dea9061228e565b60405180910390fd5b600460009054906101000a900460ff1615610e43576040517f08c379a0000000000000000000000000000000000000000000000000000000008152600401610e3a90611fb9565b60405180910390fd5b6001600460006101000a81548160ff0219169083151502179055506000600d54905060008060008560056004018190555060046005800160006101000a81548160ff02191690836004811115610e9c57610e9b611ae2565b5b021790555060005b84811015610ff7576000600b60008381526020019081526020016000206001015490506000600b600084815260200190815260200160002060000160009054906101000a900473ffffffffffffffffffffffffffffffffffffffff169050610f0c838a61159e565b95508585610f1a91906122ae565b9450856064610f2991906122e2565b82610f349190612316565b84610f3f91906122ae565b9350600160009054906101000a900473ffffffffffffffffffffffffffffffffffffffff1673ffffffffffffffffffffffffffffffffffffffff1663291cace482886040518363ffffffff1660e01b8152600401610f9e929190612358565b6020604051808303816000875af1158015610fbd573d6000803e3d6000fd5b505050506040513d601f19601f82011682018060405250810190610fe19190612115565b5050508080610fef90612171565b915050610ea4565b50818460646110069190612316565b61101091906122e2565b8161101b91906123b0565b600560030181905550856005600301543073ffffffffffffffffffffffffffffffffffffffff167f82f2875e1f7150881b873d3109dfaae5dab5d194d3ffed405b015104c0fea3f760405160405180910390a4505050506000600460006101000a81548160ff0219169083151502179055505050565b6000600d54905090565b60028060048111156110b0576110af611ae2565b5b6005800160009054906101000a900460ff1660048111156110d4576110d3611ae2565b5b14611114576040517f08c379a000000000000000000000000000000000000000000000000000000000815260040161110b90611dc4565b60405180910390fd5b3373ffffffffffffffffffffffffffffffffffffffff16600260009054906101000a900473ffffffffffffffffffffffffffffffffffffffff1673ffffffffffffffffffffffffffffffffffffffff16146111a4576040517f08c379a000000000000000000000000000000000000000000000000000000000815260040161119b9061228e565b60405180910390fd5b600460009054906101000a900460ff16156111f4576040517f08c379a00000000000000000000000000000000000000000000000000000000081526004016111eb90611fb9565b60405180910390fd5b6001600460006101000a81548160ff02191690831515021790555060036005800160006101000a81548160ff0219169083600481111561123757611236611ae2565b5b0217905550600360048111156112505761124f611ae2565b5b3073ffffffffffffffffffffffffffffffffffffffff167fb9d8da1dad982a47da9a81522b2a6ca5a69228f5d6644e928904fad64a5e3eda60405160405180910390a36000600460006101000a81548160ff02191690831515021790555050565b60008054906101000a900473ffffffffffffffffffffffffffffffffffffffff1681565b600260009054906101000a900473ffffffffffffffffffffffffffffffffffffffff1681565b60008060048111156113105761130f611ae2565b5b6005800160009054906101000a900460ff16600481111561133457611333611ae2565b5b14611374576040517f08c379a000000000000000000000000000000000000000000000000000000000815260040161136b90611dc4565b60405180910390fd5b3373ffffffffffffffffffffffffffffffffffffffff16600260009054906101000a900473ffffffffffffffffffffffffffffffffffffffff1673ffffffffffffffffffffffffffffffffffffffff1614611404576040517f08c379a00000000000000000000000000000000000000000000000000000000081526004016113fb9061228e565b60405180910390fd5b600460009054906101000a900460ff1615611454576040517f08c379a000000000000000000000000000000000000000000000000000000000815260040161144b90611fb9565b60405180910390fd5b6001600460006101000a81548160ff02191690831515021790555060016005800160006101000a81548160ff0219169083600481111561149757611496611ae2565b5b0217905550600160048111156114b0576114af611ae2565b5b3073ffffffffffffffffffffffffffffffffffffffff167f48dcd0338d5a7d1172cde81c1ada6efa321f132cc89321510a677fe7c5dad28060405160405180910390a36000600460006101000a81548160ff02191690831515021790555050565b611519611834565b600b60008381526020019081526020016000206040518060400160405290816000820160009054906101000a900473ffffffffffffffffffffffffffffffffffffffff1673ffffffffffffffffffffffffffffffffffffffff1673ffffffffffffffffffffffffffffffffffffffff1681526020016001820154815250509050919050565b60003373ffffffffffffffffffffffffffffffffffffffff16600260009054906101000a900473ffffffffffffffffffffffffffffffffffffffff1673ffffffffffffffffffffffffffffffffffffffff1614611630576040517f08c379a00000000000000000000000000000000000000000000000000000000081526004016116279061228e565b60405180910390fd5b600080600080600d5490506000600b600089815260200190815260200160002060000160009054906101000a900473ffffffffffffffffffffffffffffffffffffffff169050600160009054906101000a900473ffffffffffffffffffffffffffffffffffffffff1673ffffffffffffffffffffffffffffffffffffffff166309e69ede826040518263ffffffff1660e01b81526004016116d19190611bed565b600060405180830381865afa1580156116ee573d6000803e3d6000fd5b505050506040513d6000823e3d601f19601f8201168201806040525081019061171791906125ea565b608001519450600b600089815260200190815260200160002060010154871061177a57866064600b60008b8152602001908152602001600020600101548961175f91906122e2565b6117699190612316565b61177391906123b0565b93506117b6565b86606488600b60008c81526020019081526020016000206001015461179f91906122e2565b6117a99190612316565b6117b391906123b0565b93505b6001826117c391906122ae565b8483876117d09190612316565b6117da91906122ae565b6117e491906123b0565b9250829550505050505092915050565b6040518060800160405280611807611864565b815260200160008152602001600081526020016000600481111561182e5761182d611ae2565b5b81525090565b6040518060400160405280600073ffffffffffffffffffffffffffffffffffffffff168152602001600081525090565b60405180606001604052806060815260200160608152602001606081525090565b6000819050919050565b61189881611885565b82525050565b60006020820190506118b3600083018461188f565b92915050565b6000604051905090565b600080fd5b600080fd5b600073ffffffffffffffffffffffffffffffffffffffff82169050919050565b60006118f8826118cd565b9050919050565b611908816118ed565b811461191357600080fd5b50565b600081359050611925816118ff565b92915050565b600060208284031215611941576119406118c3565b5b600061194f84828501611916565b91505092915050565b6000819050919050565b61196b81611958565b82525050565b60006020820190506119866000830184611962565b92915050565b61199581611958565b81146119a057600080fd5b50565b6000813590506119b28161198c565b92915050565b6000602082840312156119ce576119cd6118c3565b5b60006119dc848285016119a3565b91505092915050565b600081519050919050565b600082825260208201905092915050565b60005b83811015611a1f578082015181840152602081019050611a04565b60008484015250505050565b6000601f19601f8301169050919050565b6000611a47826119e5565b611a5181856119f0565b9350611a61818560208601611a01565b611a6a81611a2b565b840191505092915050565b60006060830160008301518482036000860152611a928282611a3c565b91505060208301518482036020860152611aac8282611a3c565b91505060408301518482036040860152611ac68282611a3c565b9150508091505092915050565b611adc81611958565b82525050565b7f4e487b7100000000000000000000000000000000000000000000000000000000600052602160045260246000fd5b60058110611b2257611b21611ae2565b5b50565b6000819050611b3382611b11565b919050565b6000611b4382611b25565b9050919050565b611b5381611b38565b82525050565b60006080830160008301518482036000860152611b768282611a75565b9150506020830151611b8b6020860182611ad3565b506040830151611b9e6040860182611ad3565b506060830151611bb16060860182611b4a565b508091505092915050565b60006020820190508181036000830152611bd68184611b59565b905092915050565b611be7816118ed565b82525050565b6000602082019050611c026000830184611bde565b92915050565b611c11816118ed565b82525050565b604082016000820151611c2d6000850182611c08565b506020820151611c406020850182611ad3565b50505050565b6000604082019050611c5b6000830184611c17565b92915050565b60008160601b9050919050565b6000611c7982611c61565b9050919050565b6000611c8b82611c6e565b9050919050565b611ca3611c9e826118ed565b611c80565b82525050565b6000611cb58285611c92565b601482019150611cc58284611c92565b6014820191508190509392505050565b600082825260208201905092915050565b7f53657373696f6e3a20496e76616c696420626964646572416464720000000000600082015250565b6000611d1c601b83611cd5565b9150611d2782611ce6565b602082019050919050565b60006020820190508181036000830152611d4b81611d0f565b9050919050565b7f53657373696f6e3a204e6f7420616c6c6f7720776974682063757272656e742060008201527f73657373696f6e20737461746521000000000000000000000000000000000000602082015250565b6000611dae602e83611cd5565b9150611db982611d52565b604082019050919050565b60006020820190508181036000830152611ddd81611da1565b9050919050565b60008115159050919050565b611df981611de4565b8114611e0457600080fd5b50565b600081519050611e1681611df0565b92915050565b600060208284031215611e3257611e316118c3565b5b6000611e4084828501611e07565b91505092915050565b7f53657373696f6e3a204f6e6c792072656769737465726564206164647265737360008201527f2063616e20646f20746869732100000000000000000000000000000000000000602082015250565b6000611ea5602d83611cd5565b9150611eb082611e49565b604082019050919050565b60006020820190508181036000830152611ed481611e98565b9050919050565b7f53657373696f6e3a20526567697374657220796f7572204e616d6520616e642060008201527f456d61696c206669727374210000000000000000000000000000000000000000602082015250565b6000611f37602c83611cd5565b9150611f4282611edb565b604082019050919050565b60006020820190508181036000830152611f6681611f2a565b9050919050565b7f53657373696f6e3a205265656e7472616e742063616c6c2e0000000000000000600082015250565b6000611fa3601883611cd5565b9150611fae82611f6d565b602082019050919050565b60006020820190508181036000830152611fd281611f96565b9050919050565b7f53657373696f6e3a204269646465722061646472283029000000000000000000600082015250565b600061200f601783611cd5565b915061201a82611fd9565b602082019050919050565b6000602082019050818103600083015261203e81612002565b9050919050565b7f53657373696f6e3a205f7072696365206d75737420626520677265617465722060008201527f7468616e20300000000000000000000000000000000000000000000000000000602082015250565b60006120a1602683611cd5565b91506120ac82612045565b604082019050919050565b600060208201905081810360008301526120d081612094565b9050919050565b60006040820190506120ec6000830185611bde565b6120f96020830184611bde565b9392505050565b60008151905061210f8161198c565b92915050565b60006020828403121561212b5761212a6118c3565b5b600061213984828501612100565b91505092915050565b7f4e487b7100000000000000000000000000000000000000000000000000000000600052601160045260246000fd5b600061217c82611958565b91507fffffffffffffffffffffffffffffffffffffffffffffffffffffffffffffffff82036121ae576121ad612142565b5b600182019050919050565b60006040820190506121ce6000830185611962565b6121db6020830184611962565b9392505050565b7f4e487b7100000000000000000000000000000000000000000000000000000000600052602260045260246000fd5b6000600282049050600182168061222957607f821691505b60208210810361223c5761223b6121e2565b5b50919050565b7f53657373696f6e3a204f6e6c792061646d696e2063616e20646f207468697321600082015250565b6000612278602083611cd5565b915061228382612242565b602082019050919050565b600060208201905081810360008301526122a78161226b565b9050919050565b60006122b982611958565b91506122c483611958565b92508282019050808211156122dc576122db612142565b5b92915050565b60006122ed82611958565b91506122f883611958565b92508282039050818111156123105761230f612142565b5b92915050565b600061232182611958565b915061232c83611958565b925082820261233a81611958565b9150828204841483151761235157612350612142565b5b5092915050565b600060408201905061236d6000830185611bde565b61237a6020830184611962565b9392505050565b7f4e487b7100000000000000000000000000000000000000000000000000000000600052601260045260246000fd5b60006123bb82611958565b91506123c683611958565b9250826123d6576123d5612381565b5b828204905092915050565b600080fd5b7f4e487b7100000000000000000000000000000000000000000000000000000000600052604160045260246000fd5b61241e82611a2b565b810181811067ffffffffffffffff8211171561243d5761243c6123e6565b5b80604052505050565b60006124506118b9565b905061245c8282612415565b919050565b600080fd5b600081519050612475816118ff565b92915050565b600080fd5b600080fd5b600067ffffffffffffffff8211156124a05761249f6123e6565b5b6124a982611a2b565b9050602081019050919050565b60006124c96124c484612485565b612446565b9050828152602081018484840111156124e5576124e4612480565b5b6124f0848285611a01565b509392505050565b600082601f83011261250d5761250c61247b565b5b815161251d8482602086016124b6565b91505092915050565b600060a0828403121561253c5761253b6123e1565b5b61254660a0612446565b9050600061255684828501612466565b600083015250602082015167ffffffffffffffff81111561257a57612579612461565b5b612586848285016124f8565b602083015250604082015167ffffffffffffffff8111156125aa576125a9612461565b5b6125b6848285016124f8565b60408301525060606125ca84828501612100565b60608301525060806125de84828501612100565b60808301525092915050565b600060208284031215612600576125ff6118c3565b5b600082015167ffffffffffffffff81111561261e5761261d6118c8565b5b61262a84828501612526565b9150509291505056fea2646970667358221220da33cb479f3031f3f031352878e10e1e45c791af028853a7b695219eba95564364736f6c63430008130033",
  "immutableReferences": {},
  "source": "// SPDX-License-Identifier: MIT\n\npragma solidity ^0.8.14;\nimport \"./Main.sol\";\n\ncontract Session {\n    // Variable to hold Main Contract Address when create new Session Contract\n    address public mainContract;\n    // Variable to hold Main Contract instance to call functions from Main\n    Main MainContractInstance;\n\n    address public admin;\n    bytes32 private sessionHash;\n    bool private locked;\n\n    //Struct to hold product info\n    struct Product {\n        string name;\n        string description;\n        string imageHashes;\n    }\n\n    //Struct to hold bidder info\n    struct Bidder {\n        address account;\n        uint256 price;\n    }\n\n    //State of session\n    enum SessionState {\n        CREATE,\n        START,\n        PRICING,\n        STOP,\n        CLOSED\n    }\n\n    //Struct to hold general info of a session\n    struct ISession {\n        Product product; // 1 product/session\n        //Bidder[] bidded;\n        uint256 suggestedPrice;\n        uint256 finalPrice;\n        SessionState currentState;\n    }\n    ISession private _sessions;\n\n    //Map to save bidder info\n    mapping(uint256 => Bidder) private _bidders;\n    mapping(address => uint256) private _idOf;\n    uint256 private _bidderCount;\n\n    //Event that need to be listened\n    event SessionStarted(\n        address indexed sessionAddr,\n        SessionState indexed curState\n    );\n    event SessionStopped(\n        address indexed sessionAddr,\n        SessionState indexed curState\n    );\n    event SessionPricing(\n        address indexed sessionAddr,\n        address indexed account,\n        uint256 oldPrice,\n        uint256 newPrice\n    );\n    event SessionClosed(\n        address indexed sessionAddr,\n        uint256 indexed suggestedPrice,\n        uint256 indexed finalPrice\n    );\n\n    constructor(\n        address _admin,\n        address _mainContract,\n        string memory _productName,\n        string memory _description,\n        string memory _imageHashes\n    ) {\n        admin = _admin;\n        //Get Main Contract address\n        mainContract = _mainContract;\n        // Get Main Contract instance\n        MainContractInstance = Main(_mainContract);\n\n        ISession memory newSession = ISession({\n            product: Product({\n                name: _productName,\n                description: _description,\n                imageHashes: _imageHashes\n            }),\n            //bidded: new Bidder[](0),\n            suggestedPrice: 0,\n            finalPrice: 0,\n            currentState: SessionState.CREATE\n        });\n\n        _sessions = newSession;\n    }\n\n    function startSession()\n        external\n        _instate(SessionState.CREATE)\n        _onlyAdmin\n        nonReentrant\n    {\n        _sessions.currentState = SessionState.START;\n        emit SessionStarted(address(this), SessionState.START);\n    }\n\n    function pricingSession(\n        uint256 _newPrice\n    ) external _pricing _isRegistered _isCompleteRegistered nonReentrant {\n        address _currentBidder = msg.sender;\n        address _sessionAddr = address(this);\n        uint256 oldPrice;\n\n        require(_currentBidder != address(0), \"Session: Bidder addr(0)\");\n\n        require(_newPrice > 0, \"Session: _price must be greater than 0\");\n\n        if (!MainContractInstance.hasBid(_currentBidder, _sessionAddr)) {\n            MainContractInstance.setHasBid(_currentBidder, _sessionAddr);\n            //Update bidder in 1st time\n            _bidders[_bidderCount].account = _currentBidder;\n            _bidders[_bidderCount].price = _newPrice;\n            _idOf[_currentBidder] = _bidderCount;\n            _sessions.currentState = SessionState.PRICING;\n\n            //If bidded, IParticipant -> bidCount need update\n            MainContractInstance.setBidCount(_currentBidder); // +1 when called\n            //Increase ID only once\n            _bidderCount++;\n        } else {\n            oldPrice = _bidders[_idOf[_currentBidder]].price;\n            _bidders[_idOf[_currentBidder]].price = _newPrice;\n        }\n\n        emit SessionPricing(_sessionAddr, _currentBidder, oldPrice, _newPrice);\n    }\n\n    function stopSession()\n        external\n        _instate(SessionState.PRICING)\n        _onlyAdmin\n        nonReentrant\n    {\n        _sessions.currentState = SessionState.STOP;\n        emit SessionStopped(address(this), SessionState.STOP);\n    }\n\n    function closeSession(\n        uint256 _actual\n    ) external _instate(SessionState.STOP) _onlyAdmin nonReentrant {\n        uint256 _participantCount = _bidderCount;\n        uint256 _errorOfId;\n        uint256 _errorSum;\n        uint256 _priceSum;\n\n        _sessions.finalPrice = _actual;\n        _sessions.currentState = SessionState.CLOSED;\n\n        for (uint256 id = 0; id < _participantCount; id++) {\n            uint256 bidderPrice = _bidders[id].price;\n            address account = _bidders[id].account;\n\n            _errorOfId = _deviationOf(id, _actual);\n            _errorSum += _errorOfId;\n            _priceSum += bidderPrice * (100 - _errorOfId);\n\n            //Update IParticipant info setBidCount (addrBidder, bidCount)\n            MainContractInstance.setBidDev(account, _errorOfId);\n        }\n\n        _sessions.suggestedPrice =\n            _priceSum /\n            ((100 * _participantCount) - _errorSum);\n\n        emit SessionClosed(address(this), _sessions.suggestedPrice, _actual);\n    }\n\n    //Calculate the deviation of bidder\n    function _deviationOf(\n        uint256 _idBidder,\n        uint256 _actualPrice\n    ) private view _onlyAdmin returns (uint256) {\n        uint256 curDev;\n        uint256 newDev;\n        uint256 calDev;\n        uint256 _participantCount = _bidderCount;\n        address bidderAddr = _bidders[_idBidder].account;\n\n        //Get current deviation of participant\n        curDev = MainContractInstance.participants(bidderAddr).bidDeviation;\n\n        //Calculate new deviation of participant base on actual price\n        if (_actualPrice >= _bidders[_idBidder].price) {\n            newDev =\n                ((_actualPrice - _bidders[_idBidder].price) * 100) /\n                _actualPrice;\n        } else {\n            newDev =\n                ((_bidders[_idBidder].price - _actualPrice) * 100) /\n                _actualPrice;\n        }\n\n        //Update deviation of participant base on current and new deviation\n        calDev =\n            (curDev * _participantCount + newDev) /\n            (_participantCount + 1);\n\n        return calDev;\n    }\n\n    function getBidderCount() external view returns (uint256) {\n        return _bidderCount;\n    }\n\n    function getBidderId(address _bidderAddr) external view returns (uint256) {\n        require(_bidderAddr != address(0), \"Session: Invalid bidderAddr\");\n        return _idOf[_bidderAddr];\n    }\n\n    function getBidderInfo(\n        uint256 _index\n    ) external view returns (Bidder memory) {\n        return _bidders[_index];\n    }\n\n    function getSessionInfo() public view returns (ISession memory) {\n        return _sessions;\n    }\n\n    function SessionHash() external returns (bytes32) {\n        sessionHash = keccak256(abi.encodePacked(address(this), mainContract));\n        return sessionHash;\n    }\n\n    modifier _instate(SessionState expected_state) {\n        require(\n            _sessions.currentState == expected_state,\n            \"Session: Not allow with current session state!\"\n        );\n        _;\n    }\n\n    modifier _pricing() {\n        require(\n            _sessions.currentState == SessionState.START ||\n                _sessions.currentState == SessionState.PRICING,\n            \"Session: Not allow with current session state!\"\n        );\n        _;\n    }\n\n    modifier _isRegistered() {\n        require(\n            MainContractInstance.registered(msg.sender),\n            \"Session: Only registered address can do this!\"\n        );\n        _;\n    }\n\n    modifier _isCompleteRegistered() {\n        require(\n            MainContractInstance._completeAccount(msg.sender),\n            \"Session: Register your Name and Email first!\"\n        );\n        _;\n    }\n\n    modifier _onlyAdmin() {\n        require(admin == msg.sender, \"Session: Only admin can do this!\");\n        _;\n    }\n\n    modifier nonReentrant() {\n        require(!locked, \"Session: Reentrant call.\");\n        locked = true;\n        _;\n        locked = false;\n    }\n}\n",
  "sourcePath": "/home/canvy/funix/BDP305-Final/FunixPricingChain/truffle/contracts/Session.sol",
  "compiler": {
    "name": "solc",
    "version": "0.8.19+commit.7dd6d404.Emscripten.clang"
  },
  "schemaVersion": "3.4.13",
  "updatedAt": "2023-04-05T12:41:36.843Z",
  "devdoc": {
    "kind": "dev",
    "methods": {},
    "version": 1
  },
  "userdoc": {
    "kind": "user",
    "methods": {},
    "version": 1
  }
}