{
  "contractName": "Session",
  "abi": [
    {
      "inputs": [
        {
          "internalType": "address",
          "name": "_admin",
          "type": "address"
        },
        {
          "internalType": "address",
          "name": "_mainContract",
          "type": "address"
        },
        {
          "internalType": "string",
          "name": "_productName",
          "type": "string"
        },
        {
          "internalType": "string",
          "name": "_description",
          "type": "string"
        },
        {
          "internalType": "string",
          "name": "_imageHashes",
          "type": "string"
        }
      ],
      "stateMutability": "nonpayable",
      "type": "constructor"
    },
    {
      "anonymous": false,
      "inputs": [
        {
          "indexed": true,
          "internalType": "address",
          "name": "sessionAddr",
          "type": "address"
        },
        {
          "indexed": true,
          "internalType": "uint32",
          "name": "suggestedPrice",
          "type": "uint32"
        },
        {
          "indexed": true,
          "internalType": "uint32",
          "name": "finalPrice",
          "type": "uint32"
        }
      ],
      "name": "SessionClosed",
      "type": "event"
    },
    {
      "anonymous": false,
      "inputs": [
        {
          "indexed": true,
          "internalType": "address",
          "name": "sessionAddr",
          "type": "address"
        },
        {
          "indexed": true,
          "internalType": "address",
          "name": "account",
          "type": "address"
        },
        {
          "indexed": false,
          "internalType": "uint32",
          "name": "oldPrice",
          "type": "uint32"
        },
        {
          "indexed": false,
          "internalType": "uint32",
          "name": "newPrice",
          "type": "uint32"
        }
      ],
      "name": "SessionPricing",
      "type": "event"
    },
    {
      "anonymous": false,
      "inputs": [
        {
          "indexed": true,
          "internalType": "address",
          "name": "sessionAddr",
          "type": "address"
        },
        {
          "indexed": true,
          "internalType": "enum Session.SessionState",
          "name": "curState",
          "type": "uint8"
        }
      ],
      "name": "SessionStarted",
      "type": "event"
    },
    {
      "anonymous": false,
      "inputs": [
        {
          "indexed": true,
          "internalType": "address",
          "name": "sessionAddr",
          "type": "address"
        },
        {
          "indexed": true,
          "internalType": "enum Session.SessionState",
          "name": "curState",
          "type": "uint8"
        }
      ],
      "name": "SessionStopped",
      "type": "event"
    },
    {
      "inputs": [],
      "name": "admin",
      "outputs": [
        {
          "internalType": "address",
          "name": "",
          "type": "address"
        }
      ],
      "stateMutability": "view",
      "type": "function"
    },
    {
      "inputs": [],
      "name": "mainContract",
      "outputs": [
        {
          "internalType": "address",
          "name": "",
          "type": "address"
        }
      ],
      "stateMutability": "view",
      "type": "function"
    },
    {
      "inputs": [],
      "name": "startSession",
      "outputs": [],
      "stateMutability": "nonpayable",
      "type": "function"
    },
    {
      "inputs": [
        {
          "internalType": "uint32",
          "name": "_newPrice",
          "type": "uint32"
        }
      ],
      "name": "pricingSession",
      "outputs": [],
      "stateMutability": "nonpayable",
      "type": "function"
    },
    {
      "inputs": [],
      "name": "stopSession",
      "outputs": [],
      "stateMutability": "nonpayable",
      "type": "function"
    },
    {
      "inputs": [
        {
          "internalType": "uint32",
          "name": "_actual",
          "type": "uint32"
        }
      ],
      "name": "closeSession",
      "outputs": [],
      "stateMutability": "nonpayable",
      "type": "function"
    },
    {
      "inputs": [],
      "name": "calSuggestPrice",
      "outputs": [
        {
          "internalType": "uint32",
          "name": "",
          "type": "uint32"
        }
      ],
      "stateMutability": "view",
      "type": "function"
    },
    {
      "inputs": [
        {
          "internalType": "address",
          "name": "_bidderAddr",
          "type": "address"
        }
      ],
      "name": "getBidderId",
      "outputs": [
        {
          "internalType": "uint8",
          "name": "",
          "type": "uint8"
        }
      ],
      "stateMutability": "view",
      "type": "function"
    },
    {
      "inputs": [
        {
          "internalType": "uint8",
          "name": "_index",
          "type": "uint8"
        }
      ],
      "name": "getBidderInfo",
      "outputs": [
        {
          "components": [
            {
              "internalType": "address",
              "name": "account",
              "type": "address"
            },
            {
              "internalType": "uint32",
              "name": "price",
              "type": "uint32"
            }
          ],
          "internalType": "struct Session.Bidder",
          "name": "",
          "type": "tuple"
        }
      ],
      "stateMutability": "view",
      "type": "function"
    },
    {
      "inputs": [],
      "name": "getSessionInfo",
      "outputs": [
        {
          "components": [
            {
              "components": [
                {
                  "internalType": "string",
                  "name": "name",
                  "type": "string"
                },
                {
                  "internalType": "string",
                  "name": "description",
                  "type": "string"
                },
                {
                  "internalType": "string",
                  "name": "imageHashes",
                  "type": "string"
                }
              ],
              "internalType": "struct Session.Product",
              "name": "product",
              "type": "tuple"
            },
            {
              "internalType": "uint32",
              "name": "suggestedPrice",
              "type": "uint32"
            },
            {
              "internalType": "uint32",
              "name": "finalPrice",
              "type": "uint32"
            },
            {
              "internalType": "enum Session.SessionState",
              "name": "currentState",
              "type": "uint8"
            }
          ],
          "internalType": "struct Session.ISession",
          "name": "",
          "type": "tuple"
        }
      ],
      "stateMutability": "view",
      "type": "function"
    },
    {
      "inputs": [],
      "name": "SessionHash",
      "outputs": [
        {
          "internalType": "bytes32",
          "name": "",
          "type": "bytes32"
        }
      ],
      "stateMutability": "nonpayable",
      "type": "function"
    }
  ],
  "bytecode": "0x60806040526001600b60006101000a81548160ff021916908360ff1602179055503480156200002d57600080fd5b506040516200343b3803806200343b833981810160405281019062000053919062000456565b84600260006101000a81548173ffffffffffffffffffffffffffffffffffffffff021916908373ffffffffffffffffffffffffffffffffffffffff160217905550836000806101000a81548173ffffffffffffffffffffffffffffffffffffffff021916908373ffffffffffffffffffffffffffffffffffffffff16021790555083600160006101000a81548173ffffffffffffffffffffffffffffffffffffffff021916908373ffffffffffffffffffffffffffffffffffffffff160217905550600060405180608001604052806040518060600160405280878152602001868152602001858152508152602001600063ffffffff168152602001600063ffffffff168152602001600060048111156200017357620001726200053b565b5b815250905080600560008201518160000160008201518160000190816200019b9190620007b5565b506020820151816001019081620001b39190620007b5565b506040820151816002019081620001cb9190620007b5565b50505060208201518160030160006101000a81548163ffffffff021916908363ffffffff16021790555060408201518160030160046101000a81548163ffffffff021916908363ffffffff16021790555060608201518160030160086101000a81548160ff021916908360048111156200024a57620002496200053b565b5b02179055509050505050505050506200089c565b6000604051905090565b600080fd5b600080fd5b600073ffffffffffffffffffffffffffffffffffffffff82169050919050565b60006200029f8262000272565b9050919050565b620002b18162000292565b8114620002bd57600080fd5b50565b600081519050620002d181620002a6565b92915050565b600080fd5b600080fd5b6000601f19601f8301169050919050565b7f4e487b7100000000000000000000000000000000000000000000000000000000600052604160045260246000fd5b6200032c82620002e1565b810181811067ffffffffffffffff821117156200034e576200034d620002f2565b5b80604052505050565b6000620003636200025e565b905062000371828262000321565b919050565b600067ffffffffffffffff821115620003945762000393620002f2565b5b6200039f82620002e1565b9050602081019050919050565b60005b83811015620003cc578082015181840152602081019050620003af565b60008484015250505050565b6000620003ef620003e98462000376565b62000357565b9050828152602081018484840111156200040e576200040d620002dc565b5b6200041b848285620003ac565b509392505050565b600082601f8301126200043b576200043a620002d7565b5b81516200044d848260208601620003d8565b91505092915050565b600080600080600060a0868803121562000475576200047462000268565b5b60006200048588828901620002c0565b95505060206200049888828901620002c0565b945050604086015167ffffffffffffffff811115620004bc57620004bb6200026d565b5b620004ca8882890162000423565b935050606086015167ffffffffffffffff811115620004ee57620004ed6200026d565b5b620004fc8882890162000423565b925050608086015167ffffffffffffffff81111562000520576200051f6200026d565b5b6200052e8882890162000423565b9150509295509295909350565b7f4e487b7100000000000000000000000000000000000000000000000000000000600052602160045260246000fd5b600081519050919050565b7f4e487b7100000000000000000000000000000000000000000000000000000000600052602260045260246000fd5b60006002820490506001821680620005bd57607f821691505b602082108103620005d357620005d262000575565b5b50919050565b60008190508160005260206000209050919050565b60006020601f8301049050919050565b600082821b905092915050565b6000600883026200063d7fffffffffffffffffffffffffffffffffffffffffffffffffffffffffffffffff82620005fe565b620006498683620005fe565b95508019841693508086168417925050509392505050565b6000819050919050565b6000819050919050565b600062000696620006906200068a8462000661565b6200066b565b62000661565b9050919050565b6000819050919050565b620006b28362000675565b620006ca620006c1826200069d565b8484546200060b565b825550505050565b600090565b620006e1620006d2565b620006ee818484620006a7565b505050565b5b8181101562000716576200070a600082620006d7565b600181019050620006f4565b5050565b601f82111562000765576200072f81620005d9565b6200073a84620005ee565b810160208510156200074a578190505b620007626200075985620005ee565b830182620006f3565b50505b505050565b600082821c905092915050565b60006200078a600019846008026200076a565b1980831691505092915050565b6000620007a5838362000777565b9150826002028217905092915050565b620007c0826200056a565b67ffffffffffffffff811115620007dc57620007db620002f2565b5b620007e88254620005a4565b620007f58282856200071a565b600060209050601f8311600181146200082d576000841562000818578287015190505b62000824858262000797565b86555062000894565b601f1984166200083d86620005d9565b60005b82811015620008675784890151825560018201915060208501945060208101905062000840565b8683101562000887578489015162000883601f89168262000777565b8355505b6001600288020188555050505b505050505050565b612b8f80620008ac6000396000f3fe608060405234801561001057600080fd5b50600436106100a95760003560e01c80639463b1cd116100715780639463b1cd14610166578063cbd8c61314610184578063d270e7ab1461018e578063de09beed146101ac578063f851a440146101c8578063fe0ae165146101e6576100a9565b80630a7a25b9146100ae578063217d51a9146100cc57806325a69288146100ea5780632b3abd37146101065780638f764df514610136575b600080fd5b6100b66101f0565b6040516100c39190611ca9565b60405180910390f35b6100d4610249565b6040516100e19190611ce3565b60405180910390f35b61010460048036038101906100ff9190611d3e565b610486565b005b610120600480360381019061011b9190611dc9565b610c73565b60405161012d9190611e12565b60405180910390f35b610150600480360381019061014b9190611e59565b610d37565b60405161015d9190611ed3565b60405180910390f35b61016e610de6565b60405161017b91906120b6565b60405180910390f35b61018c611051565b005b610196611274565b6040516101a391906120e7565b60405180910390f35b6101c660048036038101906101c19190611d3e565b611298565b005b6101d061164b565b6040516101dd91906120e7565b60405180910390f35b6101ee611671565b005b60003060008054906101000a900473ffffffffffffffffffffffffffffffffffffffff1660405160200161022592919061214a565b60405160208183030381529060405280519060200120600381905550600354905090565b60006001600b60009054906101000a900460ff1660ff16116102a0576040517f08c379a0000000000000000000000000000000000000000000000000000000008152600401610297906121d3565b60405180910390fd5b6000806000806000600190505b600b60009054906101000a900460ff1660ff168160ff161015610438576000600960008360ff1660ff16815260200190815260200160002060000160149054906101000a900463ffffffff1690506000600960008460ff1660ff16815260200190815260200160002060000160009054906101000a900473ffffffffffffffffffffffffffffffffffffffff1690506103e8600160009054906101000a900473ffffffffffffffffffffffffffffffffffffffff1673ffffffffffffffffffffffffffffffffffffffff166309e69ede836040518263ffffffff1660e01b815260040161039a91906120e7565b600060405180830381865afa1580156103b7573d6000803e3d6000fd5b505050506040513d6000823e3d601f19601f820116820180604052508101906103e09190612411565b608001516103ee91906124b8565b965086866103fc91906124e9565b955086606461040b9190612521565b826104169190612559565b8561042191906124e9565b94505050808061043090612596565b9150506102ad565b50826001600b60009054906101000a900460ff1661045691906125bf565b60ff1660646104659190612559565b61046f9190612521565b8261047a91906124b8565b90508094505050505090565b6001600481111561049a57610499611fdc565b5b600560030160089054906101000a900460ff1660048111156104bf576104be611fdc565b5b14806105015750600260048111156104da576104d9611fdc565b5b600560030160089054906101000a900460ff1660048111156104ff576104fe611fdc565b5b145b610540576040517f08c379a000000000000000000000000000000000000000000000000000000000815260040161053790612666565b60405180910390fd5b600160009054906101000a900473ffffffffffffffffffffffffffffffffffffffff1673ffffffffffffffffffffffffffffffffffffffff1663736a6a7c336040518263ffffffff1660e01b815260040161059b91906120e7565b602060405180830381865afa1580156105b8573d6000803e3d6000fd5b505050506040513d601f19601f820116820180604052508101906105dc91906126be565b61061b576040517f08c379a00000000000000000000000000000000000000000000000000000000081526004016106129061275d565b60405180910390fd5b600160009054906101000a900473ffffffffffffffffffffffffffffffffffffffff1673ffffffffffffffffffffffffffffffffffffffff1663ef73f485336040518263ffffffff1660e01b815260040161067691906120e7565b602060405180830381865afa158015610693573d6000803e3d6000fd5b505050506040513d601f19601f820116820180604052508101906106b791906126be565b6106f6576040517f08c379a00000000000000000000000000000000000000000000000000000000081526004016106ed906127ef565b60405180910390fd5b600460009054906101000a900460ff1615610746576040517f08c379a000000000000000000000000000000000000000000000000000000000815260040161073d9061285b565b60405180910390fd5b6001600460006101000a81548160ff02191690831515021790555060008163ffffffff161161077457600080fd5b600033905060003090506000600160009054906101000a900473ffffffffffffffffffffffffffffffffffffffff1673ffffffffffffffffffffffffffffffffffffffff166367ac2c3884846040518363ffffffff1660e01b81526004016107dd92919061287b565b602060405180830381865afa1580156107fa573d6000803e3d6000fd5b505050506040513d601f19601f8201168201806040525081019061081e91906126be565b610ae857600160009054906101000a900473ffffffffffffffffffffffffffffffffffffffff1673ffffffffffffffffffffffffffffffffffffffff1663dc3ff17d84846040518363ffffffff1660e01b815260040161087f92919061287b565b6020604051808303816000875af115801561089e573d6000803e3d6000fd5b505050506040513d601f19601f820116820180604052508101906108c291906126be565b508260096000600b60009054906101000a900460ff1660ff1660ff16815260200190815260200160002060000160006101000a81548173ffffffffffffffffffffffffffffffffffffffff021916908373ffffffffffffffffffffffffffffffffffffffff1602179055508360096000600b60009054906101000a900460ff1660ff1660ff16815260200190815260200160002060000160146101000a81548163ffffffff021916908363ffffffff160217905550600b60009054906101000a900460ff16600a60008573ffffffffffffffffffffffffffffffffffffffff1673ffffffffffffffffffffffffffffffffffffffff16815260200190815260200160002060006101000a81548160ff021916908360ff1602179055506002600560030160086101000a81548160ff02191690836004811115610a0757610a06611fdc565b5b0217905550600160009054906101000a900473ffffffffffffffffffffffffffffffffffffffff1673ffffffffffffffffffffffffffffffffffffffff1663852b2579846040518263ffffffff1660e01b8152600401610a6791906120e7565b6020604051808303816000875af1158015610a86573d6000803e3d6000fd5b505050506040513d601f19601f82011682018060405250810190610aaa91906128a4565b50600b600081819054906101000a900460ff1680929190610aca90612596565b91906101000a81548160ff021916908360ff16021790555050610beb565b60096000600a60008673ffffffffffffffffffffffffffffffffffffffff1673ffffffffffffffffffffffffffffffffffffffff16815260200190815260200160002060009054906101000a900460ff1660ff1660ff16815260200190815260200160002060000160149054906101000a900463ffffffff1690508360096000600a60008773ffffffffffffffffffffffffffffffffffffffff1673ffffffffffffffffffffffffffffffffffffffff16815260200190815260200160002060009054906101000a900460ff1660ff1660ff16815260200190815260200160002060000160146101000a81548163ffffffff021916908363ffffffff1602179055505b8273ffffffffffffffffffffffffffffffffffffffff168273ffffffffffffffffffffffffffffffffffffffff167f55157585b98f59a735d3a524f3ec494ca2d7f9ee515abeebc6a26147e46e70c98387604051610c4a9291906128d1565b60405180910390a35050506000600460006101000a81548160ff02191690831515021790555050565b60008073ffffffffffffffffffffffffffffffffffffffff168273ffffffffffffffffffffffffffffffffffffffff1603610ce3576040517f08c379a0000000000000000000000000000000000000000000000000000000008152600401610cda90612946565b60405180910390fd5b600a60008373ffffffffffffffffffffffffffffffffffffffff1673ffffffffffffffffffffffffffffffffffffffff16815260200190815260200160002060009054906101000a900460ff169050919050565b610d3f611bed565b600960008360ff1660ff1681526020019081526020016000206040518060400160405290816000820160009054906101000a900473ffffffffffffffffffffffffffffffffffffffff1673ffffffffffffffffffffffffffffffffffffffff1673ffffffffffffffffffffffffffffffffffffffff1681526020016000820160149054906101000a900463ffffffff1663ffffffff1663ffffffff16815250509050919050565b610dee611c23565b600560405180608001604052908160008201604051806060016040529081600082018054610e1b90612995565b80601f0160208091040260200160405190810160405280929190818152602001828054610e4790612995565b8015610e945780601f10610e6957610100808354040283529160200191610e94565b820191906000526020600020905b815481529060010190602001808311610e7757829003601f168201915b50505050508152602001600182018054610ead90612995565b80601f0160208091040260200160405190810160405280929190818152602001828054610ed990612995565b8015610f265780601f10610efb57610100808354040283529160200191610f26565b820191906000526020600020905b815481529060010190602001808311610f0957829003601f168201915b50505050508152602001600282018054610f3f90612995565b80601f0160208091040260200160405190810160405280929190818152602001828054610f6b90612995565b8015610fb85780601f10610f8d57610100808354040283529160200191610fb8565b820191906000526020600020905b815481529060010190602001808311610f9b57829003601f168201915b50505050508152505081526020016003820160009054906101000a900463ffffffff1663ffffffff1663ffffffff1681526020016003820160049054906101000a900463ffffffff1663ffffffff1663ffffffff1681526020016003820160089054906101000a900460ff16600481111561103657611035611fdc565b5b600481111561104857611047611fdc565b5b81525050905090565b600280600481111561106657611065611fdc565b5b600560030160089054906101000a900460ff16600481111561108b5761108a611fdc565b5b146110cb576040517f08c379a00000000000000000000000000000000000000000000000000000000081526004016110c290612a38565b60405180910390fd5b600073ffffffffffffffffffffffffffffffffffffffff16600260009054906101000a900473ffffffffffffffffffffffffffffffffffffffff1673ffffffffffffffffffffffffffffffffffffffff160361115c576040517f08c379a000000000000000000000000000000000000000000000000000000000815260040161115390612aa4565b60405180910390fd5b3373ffffffffffffffffffffffffffffffffffffffff16600260009054906101000a900473ffffffffffffffffffffffffffffffffffffffff1673ffffffffffffffffffffffffffffffffffffffff16146111ec576040517f08c379a00000000000000000000000000000000000000000000000000000000081526004016111e390612b10565b60405180910390fd5b6003600560030160086101000a81548160ff0219169083600481111561121557611214611fdc565b5b02179055506003600481111561122e5761122d611fdc565b5b3073ffffffffffffffffffffffffffffffffffffffff167fb9d8da1dad982a47da9a81522b2a6ca5a69228f5d6644e928904fad64a5e3eda60405160405180910390a350565b60008054906101000a900473ffffffffffffffffffffffffffffffffffffffff1681565b60038060048111156112ad576112ac611fdc565b5b600560030160089054906101000a900460ff1660048111156112d2576112d1611fdc565b5b14611312576040517f08c379a000000000000000000000000000000000000000000000000000000000815260040161130990612a38565b60405180910390fd5b600073ffffffffffffffffffffffffffffffffffffffff16600260009054906101000a900473ffffffffffffffffffffffffffffffffffffffff1673ffffffffffffffffffffffffffffffffffffffff16036113a3576040517f08c379a000000000000000000000000000000000000000000000000000000000815260040161139a90612aa4565b60405180910390fd5b3373ffffffffffffffffffffffffffffffffffffffff16600260009054906101000a900473ffffffffffffffffffffffffffffffffffffffff1673ffffffffffffffffffffffffffffffffffffffff1614611433576040517f08c379a000000000000000000000000000000000000000000000000000000000815260040161142a90612b10565b60405180910390fd5b60008263ffffffff161161144657600080fd5b6004600560030160086101000a81548160ff0219169083600481111561146f5761146e611fdc565b5b021790555061147c610249565b600560030160006101000a81548163ffffffff021916908363ffffffff16021790555081600560030160046101000a81548163ffffffff021916908363ffffffff1602179055506000600190505b600b60009054906101000a900460ff1660ff168160ff1610156115e057600160009054906101000a900473ffffffffffffffffffffffffffffffffffffffff1673ffffffffffffffffffffffffffffffffffffffff16633e024727600960008460ff1660ff16815260200190815260200160002060000160009054906101000a900473ffffffffffffffffffffffffffffffffffffffff1661156c8487611894565b6040518363ffffffff1660e01b8152600401611589929190612b30565b6020604051808303816000875af11580156115a8573d6000803e3d6000fd5b505050506040513d601f19601f820116820180604052508101906115cc91906128a4565b5080806115d890612596565b9150506114ca565b508163ffffffff16600560030160009054906101000a900463ffffffff1663ffffffff163073ffffffffffffffffffffffffffffffffffffffff167f21d197ab6873a90cf4d93db6cd029f415072e6607523229c199231d639eb0c1760405160405180910390a45050565b600260009054906101000a900473ffffffffffffffffffffffffffffffffffffffff1681565b600080600481111561168657611685611fdc565b5b600560030160089054906101000a900460ff1660048111156116ab576116aa611fdc565b5b146116eb576040517f08c379a00000000000000000000000000000000000000000000000000000000081526004016116e290612a38565b60405180910390fd5b600073ffffffffffffffffffffffffffffffffffffffff16600260009054906101000a900473ffffffffffffffffffffffffffffffffffffffff1673ffffffffffffffffffffffffffffffffffffffff160361177c576040517f08c379a000000000000000000000000000000000000000000000000000000000815260040161177390612aa4565b60405180910390fd5b3373ffffffffffffffffffffffffffffffffffffffff16600260009054906101000a900473ffffffffffffffffffffffffffffffffffffffff1673ffffffffffffffffffffffffffffffffffffffff161461180c576040517f08c379a000000000000000000000000000000000000000000000000000000000815260040161180390612b10565b60405180910390fd5b6001600560030160086101000a81548160ff0219169083600481111561183557611834611fdc565b5b02179055506001600481111561184e5761184d611fdc565b5b3073ffffffffffffffffffffffffffffffffffffffff167f48dcd0338d5a7d1172cde81c1ada6efa321f132cc89321510a677fe7c5dad28060405160405180910390a350565b60008073ffffffffffffffffffffffffffffffffffffffff16600260009054906101000a900473ffffffffffffffffffffffffffffffffffffffff1673ffffffffffffffffffffffffffffffffffffffff1603611926576040517f08c379a000000000000000000000000000000000000000000000000000000000815260040161191d90612aa4565b60405180910390fd5b3373ffffffffffffffffffffffffffffffffffffffff16600260009054906101000a900473ffffffffffffffffffffffffffffffffffffffff1673ffffffffffffffffffffffffffffffffffffffff16146119b6576040517f08c379a00000000000000000000000000000000000000000000000000000000081526004016119ad90612b10565b60405180910390fd5b60008360ff16116119c657600080fd5b60008263ffffffff16116119d957600080fd5b6000600960008560ff1660ff16815260200190815260200160002060000160009054906101000a900473ffffffffffffffffffffffffffffffffffffffff1690506000600960008660ff1660ff16815260200190815260200160002060000160149054906101000a900463ffffffff1690506000806000600160009054906101000a900473ffffffffffffffffffffffffffffffffffffffff1673ffffffffffffffffffffffffffffffffffffffff166309e69ede866040518263ffffffff1660e01b8152600401611aab91906120e7565b600060405180830381865afa158015611ac8573d6000803e3d6000fd5b505050506040513d6000823e3d601f19601f82011682018060405250810190611af19190612411565b6080015190508363ffffffff168763ffffffff1610611b4157866103e86064868a611b1c9190612521565b611b269190612559565b611b309190612559565b611b3a91906124b8565b9250611b74565b866103e860648987611b539190612521565b611b5d9190612559565b611b679190612559565b611b7191906124b8565b92505b600180600b60009054906101000a900460ff16611b9191906125bf565b60ff16611b9e91906124e9565b836001600b60009054906101000a900460ff16611bbb91906125bf565b60ff1683611bc99190612559565b611bd391906124e9565b611bdd91906124b8565b9150819550505050505092915050565b6040518060400160405280600073ffffffffffffffffffffffffffffffffffffffff168152602001600063ffffffff1681525090565b6040518060800160405280611c36611c6f565b8152602001600063ffffffff168152602001600063ffffffff16815260200160006004811115611c6957611c68611fdc565b5b81525090565b60405180606001604052806060815260200160608152602001606081525090565b6000819050919050565b611ca381611c90565b82525050565b6000602082019050611cbe6000830184611c9a565b92915050565b600063ffffffff82169050919050565b611cdd81611cc4565b82525050565b6000602082019050611cf86000830184611cd4565b92915050565b6000604051905090565b600080fd5b600080fd5b611d1b81611cc4565b8114611d2657600080fd5b50565b600081359050611d3881611d12565b92915050565b600060208284031215611d5457611d53611d08565b5b6000611d6284828501611d29565b91505092915050565b600073ffffffffffffffffffffffffffffffffffffffff82169050919050565b6000611d9682611d6b565b9050919050565b611da681611d8b565b8114611db157600080fd5b50565b600081359050611dc381611d9d565b92915050565b600060208284031215611ddf57611dde611d08565b5b6000611ded84828501611db4565b91505092915050565b600060ff82169050919050565b611e0c81611df6565b82525050565b6000602082019050611e276000830184611e03565b92915050565b611e3681611df6565b8114611e4157600080fd5b50565b600081359050611e5381611e2d565b92915050565b600060208284031215611e6f57611e6e611d08565b5b6000611e7d84828501611e44565b91505092915050565b611e8f81611d8b565b82525050565b611e9e81611cc4565b82525050565b604082016000820151611eba6000850182611e86565b506020820151611ecd6020850182611e95565b50505050565b6000604082019050611ee86000830184611ea4565b92915050565b600081519050919050565b600082825260208201905092915050565b60005b83811015611f28578082015181840152602081019050611f0d565b60008484015250505050565b6000601f19601f8301169050919050565b6000611f5082611eee565b611f5a8185611ef9565b9350611f6a818560208601611f0a565b611f7381611f34565b840191505092915050565b60006060830160008301518482036000860152611f9b8282611f45565b91505060208301518482036020860152611fb58282611f45565b91505060408301518482036040860152611fcf8282611f45565b9150508091505092915050565b7f4e487b7100000000000000000000000000000000000000000000000000000000600052602160045260246000fd5b6005811061201c5761201b611fdc565b5b50565b600081905061202d8261200b565b919050565b600061203d8261201f565b9050919050565b61204d81612032565b82525050565b600060808301600083015184820360008601526120708282611f7e565b91505060208301516120856020860182611e95565b5060408301516120986040860182611e95565b5060608301516120ab6060860182612044565b508091505092915050565b600060208201905081810360008301526120d08184612053565b905092915050565b6120e181611d8b565b82525050565b60006020820190506120fc60008301846120d8565b92915050565b60008160601b9050919050565b600061211a82612102565b9050919050565b600061212c8261210f565b9050919050565b61214461213f82611d8b565b612121565b82525050565b60006121568285612133565b6014820191506121668284612133565b6014820191508190509392505050565b600082825260208201905092915050565b7f53657373696f6e3a204e6f2062696464657220746f2063616c63756c61746521600082015250565b60006121bd602083612176565b91506121c882612187565b602082019050919050565b600060208201905081810360008301526121ec816121b0565b9050919050565b600080fd5b7f4e487b7100000000000000000000000000000000000000000000000000000000600052604160045260246000fd5b61223082611f34565b810181811067ffffffffffffffff8211171561224f5761224e6121f8565b5b80604052505050565b6000612262611cfe565b905061226e8282612227565b919050565b600080fd5b60008151905061228781611d9d565b92915050565b600080fd5b600080fd5b600067ffffffffffffffff8211156122b2576122b16121f8565b5b6122bb82611f34565b9050602081019050919050565b60006122db6122d684612297565b612258565b9050828152602081018484840111156122f7576122f6612292565b5b612302848285611f0a565b509392505050565b600082601f83011261231f5761231e61228d565b5b815161232f8482602086016122c8565b91505092915050565b60008151905061234781611d12565b92915050565b600060a08284031215612363576123626121f3565b5b61236d60a0612258565b9050600061237d84828501612278565b600083015250602082015167ffffffffffffffff8111156123a1576123a0612273565b5b6123ad8482850161230a565b602083015250604082015167ffffffffffffffff8111156123d1576123d0612273565b5b6123dd8482850161230a565b60408301525060606123f184828501612338565b606083015250608061240584828501612338565b60808301525092915050565b60006020828403121561242757612426611d08565b5b600082015167ffffffffffffffff81111561244557612444611d0d565b5b6124518482850161234d565b91505092915050565b7f4e487b7100000000000000000000000000000000000000000000000000000000600052601260045260246000fd5b7f4e487b7100000000000000000000000000000000000000000000000000000000600052601160045260246000fd5b60006124c382611cc4565b91506124ce83611cc4565b9250826124de576124dd61245a565b5b828204905092915050565b60006124f482611cc4565b91506124ff83611cc4565b9250828201905063ffffffff81111561251b5761251a612489565b5b92915050565b600061252c82611cc4565b915061253783611cc4565b9250828203905063ffffffff81111561255357612552612489565b5b92915050565b600061256482611cc4565b915061256f83611cc4565b925082820261257d81611cc4565b915080821461258f5761258e612489565b5b5092915050565b60006125a182611df6565b915060ff82036125b4576125b3612489565b5b600182019050919050565b60006125ca82611df6565b91506125d583611df6565b9250828203905060ff8111156125ee576125ed612489565b5b92915050565b7f53657373696f6e3a205374617465206d757374206265205354415254206f722060008201527f50524943494e4721000000000000000000000000000000000000000000000000602082015250565b6000612650602883612176565b915061265b826125f4565b604082019050919050565b6000602082019050818103600083015261267f81612643565b9050919050565b60008115159050919050565b61269b81612686565b81146126a657600080fd5b50565b6000815190506126b881612692565b92915050565b6000602082840312156126d4576126d3611d08565b5b60006126e2848285016126a9565b91505092915050565b7f53657373696f6e3a204f6e6c792072656769737465726564206164647265737360008201527f2063616e20646f20746869732100000000000000000000000000000000000000602082015250565b6000612747602d83612176565b9150612752826126eb565b604082019050919050565b600060208201905081810360008301526127768161273a565b9050919050565b7f53657373696f6e3a20526567697374657220796f7572204e616d6520616e642060008201527f456d61696c206669727374210000000000000000000000000000000000000000602082015250565b60006127d9602c83612176565b91506127e48261277d565b604082019050919050565b60006020820190508181036000830152612808816127cc565b9050919050565b7f53657373696f6e3a205265656e7472616e742063616c6c2e0000000000000000600082015250565b6000612845601883612176565b91506128508261280f565b602082019050919050565b6000602082019050818103600083015261287481612838565b9050919050565b600060408201905061289060008301856120d8565b61289d60208301846120d8565b9392505050565b6000602082840312156128ba576128b9611d08565b5b60006128c884828501612338565b91505092915050565b60006040820190506128e66000830185611cd4565b6128f36020830184611cd4565b9392505050565b7f53657373696f6e3a20496e76616c696420626964646572416464720000000000600082015250565b6000612930601b83612176565b915061293b826128fa565b602082019050919050565b6000602082019050818103600083015261295f81612923565b9050919050565b7f4e487b7100000000000000000000000000000000000000000000000000000000600052602260045260246000fd5b600060028204905060018216806129ad57607f821691505b6020821081036129c0576129bf612966565b5b50919050565b7f53657373696f6e3a204e6f7420616c6c6f7720776974682063757272656e742060008201527f73657373696f6e20737461746521000000000000000000000000000000000000602082015250565b6000612a22602e83612176565b9150612a2d826129c6565b604082019050919050565b60006020820190508181036000830152612a5181612a15565b9050919050565b7f53657373696f6e3a20496e76616c696420616464726573732030210000000000600082015250565b6000612a8e601b83612176565b9150612a9982612a58565b602082019050919050565b60006020820190508181036000830152612abd81612a81565b9050919050565b7f53657373696f6e3a204f6e6c792061646d696e2063616e20646f207468697321600082015250565b6000612afa602083612176565b9150612b0582612ac4565b602082019050919050565b60006020820190508181036000830152612b2981612aed565b9050919050565b6000604082019050612b4560008301856120d8565b612b526020830184611cd4565b939250505056fea264697066735822122024634027f91088669949808d0407be619deaeb166c3aa8ab69006d6a3c85865364736f6c63430008130033",
  "immutableReferences": {},
  "source": "// SPDX-License-Identifier: MIT\n\npragma solidity ^0.8.14;\nimport \"./Main.sol\";\n\ncontract Session {\n    // Variable to hold Main Contract Address when create new Session Contract\n    address public mainContract;\n    // Variable to hold Main Contract instance to call functions from Main\n    Main MainContractInstance;\n\n    address public admin;\n    bytes32 private sessionHash;\n    bool private locked;\n\n    //Struct to hold product info\n    struct Product {\n        string name;\n        string description;\n        string imageHashes;\n    }\n\n    //Struct to hold bidder info\n    struct Bidder {\n        address account;\n        uint32 price;\n    }\n\n    //State of session\n    enum SessionState {\n        CREATE,\n        START,\n        PRICING,\n        STOP,\n        CLOSED\n    }\n\n    //Struct to hold general info of a session\n    struct ISession {\n        Product product; // 1 product/session\n        //Bidder[] _bidders;\n        uint32 suggestedPrice;\n        uint32 finalPrice;\n        SessionState currentState;\n    }\n    ISession private _sessions;\n\n    //Map to save bidder info\n    mapping(uint8 => Bidder) private _bidders;\n    mapping(address => uint8) private _idOf;\n    uint8 private _bidderCount = 1;\n\n    //Event that need to be listened\n    event SessionStarted(\n        address indexed sessionAddr,\n        SessionState indexed curState\n    );\n    event SessionStopped(\n        address indexed sessionAddr,\n        SessionState indexed curState\n    );\n    event SessionPricing(\n        address indexed sessionAddr,\n        address indexed account,\n        uint32 oldPrice,\n        uint32 newPrice\n    );\n    event SessionClosed(\n        address indexed sessionAddr,\n        uint32 indexed suggestedPrice,\n        uint32 indexed finalPrice\n    );\n\n    constructor(\n        address _admin,\n        address _mainContract,\n        string memory _productName,\n        string memory _description,\n        string memory _imageHashes\n    ) {\n        admin = _admin;\n        //Get Main Contract address\n        mainContract = _mainContract;\n        // Get Main Contract instance\n        MainContractInstance = Main(_mainContract);\n\n        ISession memory newSession = ISession({\n            product: Product({\n                name: _productName,\n                description: _description,\n                imageHashes: _imageHashes\n            }),\n            //_bidders: new Bidder[](0),\n            suggestedPrice: 0,\n            finalPrice: 0,\n            currentState: SessionState.CREATE\n        });\n\n        _sessions = newSession;\n    }\n\n    function startSession() external _instate(SessionState.CREATE) _onlyAdmin {\n        _sessions.currentState = SessionState.START;\n        emit SessionStarted(address(this), SessionState.START);\n    }\n\n    function pricingSession(\n        uint32 _newPrice\n    ) external _pricing _isWhitelisted _isCompleteRegistered nonReentrant {\n        require(_newPrice > 0);\n\n        address _currentBidder = msg.sender;\n        address _sessionAddr = address(this);\n        uint32 oldPrice;\n\n        if (!MainContractInstance.hasBid(_currentBidder, _sessionAddr)) {\n            MainContractInstance.setHasBid(_currentBidder, _sessionAddr);\n            //Update bidder in 1st time\n            _bidders[_bidderCount].account = _currentBidder;\n            _bidders[_bidderCount].price = _newPrice;\n            _idOf[_currentBidder] = _bidderCount;\n            _sessions.currentState = SessionState.PRICING;\n\n            //If bidded, IParticipant -> bidCount need update\n            MainContractInstance.setBidCount(_currentBidder); // +1 when called\n            //Increase ID only once\n            _bidderCount++;\n        } else {\n            oldPrice = _bidders[_idOf[_currentBidder]].price;\n            _bidders[_idOf[_currentBidder]].price = _newPrice;\n        }\n\n        emit SessionPricing(_sessionAddr, _currentBidder, oldPrice, _newPrice);\n    }\n\n    function stopSession() external _instate(SessionState.PRICING) _onlyAdmin {\n        _sessions.currentState = SessionState.STOP;\n        emit SessionStopped(address(this), SessionState.STOP);\n    }\n\n    function closeSession(\n        uint32 _actual\n    ) external _instate(SessionState.STOP) _onlyAdmin {\n        require(_actual > 0);\n\n        _sessions.currentState = SessionState.CLOSED;\n        _sessions.suggestedPrice = calSuggestPrice();\n        _sessions.finalPrice = _actual;\n\n        for (uint8 id = 1; id < _bidderCount; id++) {\n            //Update IParticipant info setBidCount (addrBidder, bidCount)\n            MainContractInstance.setBidDev(\n                _bidders[id].account,\n                calDeviation(id, _actual)\n            );\n        }\n\n        emit SessionClosed(address(this), _sessions.suggestedPrice, _actual);\n    }\n\n    //Calculate the deviation of bidder\n    function calDeviation(\n        uint8 _id,\n        uint32 _actualPrice\n    ) private view _onlyAdmin returns (uint32) {\n        require(_id > 0);\n        require(_actualPrice > 0);\n\n        address bidderAddr = _bidders[_id].account;\n        uint32 curPrice = _bidders[_id].price;\n        uint32 newDev;\n        uint32 calDev;\n        //Get current deviation of participant\n        uint32 curDev = MainContractInstance\n            .participants(bidderAddr)\n            .bidDeviation;\n\n        //Calculate new deviation of participant base on actual price\n        //Get 3 decimal point by newDev(*10^decimal) = newDev*1000\n        //The unit here is percentage, 500 (because of decimal above) mean 5%\n        if (_actualPrice >= curPrice) {\n            newDev = (((_actualPrice - curPrice) * 100) * 1000) / _actualPrice;\n        } else {\n            newDev = (((curPrice - _actualPrice) * 100) * 1000) / _actualPrice;\n        }\n\n        //Update deviation of participant base on current and new deviation\n        calDev =\n            (curDev * uint32(_bidderCount - 1) + newDev) /\n            (uint32(_bidderCount - 1) + 1); //because init of bidderCount = 1\n\n        return calDev; // to get correct display, now div by 10^decimal = 10^3\n    }\n\n    function calSuggestPrice() public view returns (uint32) {\n        require(_bidderCount > 1, \"Session: No bidder to calculate!\");\n\n        uint32 _curDev;\n        uint32 _devSum;\n        uint32 _priceSum;\n        uint32 _suggestedPrice;\n\n        for (uint8 id = 1; id < _bidderCount; id++) {\n            uint32 bidderPrice = _bidders[id].price;\n            address account = _bidders[id].account;\n\n            _curDev =\n                MainContractInstance.participants(account).bidDeviation /\n                1000; //div by 10^decimal\n            _devSum += _curDev;\n            _priceSum += bidderPrice * (100 - _curDev);\n        }\n\n        //  Get 2 decimal point by _suggestedPrice(*10^decimal) = _suggestedPrice*100\n        _suggestedPrice =\n            _priceSum /\n            ((100 * uint32(_bidderCount - 1)) - _devSum);\n        return _suggestedPrice;\n    }\n\n    function getBidderId(address _bidderAddr) external view returns (uint8) {\n        require(_bidderAddr != address(0), \"Session: Invalid bidderAddr\");\n        return _idOf[_bidderAddr];\n    }\n\n    function getBidderInfo(uint8 _index) external view returns (Bidder memory) {\n        return _bidders[_index];\n    }\n\n    function getSessionInfo() public view returns (ISession memory) {\n        return _sessions;\n    }\n\n    function SessionHash() external returns (bytes32) {\n        sessionHash = keccak256(abi.encodePacked(address(this), mainContract));\n        return sessionHash;\n    }\n\n    modifier _instate(SessionState expected_state) {\n        require(\n            _sessions.currentState == expected_state,\n            \"Session: Not allow with current session state!\"\n        );\n        _;\n    }\n\n    modifier _pricing() {\n        require(\n            _sessions.currentState == SessionState.START ||\n                _sessions.currentState == SessionState.PRICING,\n            \"Session: State must be START or PRICING!\"\n        );\n        _;\n    }\n\n    modifier _isWhitelisted() {\n        require(\n            MainContractInstance.hasWhitelisted(msg.sender),\n            \"Session: Only registered address can do this!\"\n        );\n        _;\n    }\n\n    modifier _isCompleteRegistered() {\n        require(\n            MainContractInstance.completeAccount(msg.sender),\n            \"Session: Register your Name and Email first!\"\n        );\n        _;\n    }\n\n    modifier _onlyAdmin() {\n        require(admin != address(0), \"Session: Invalid address 0!\");\n        require(admin == msg.sender, \"Session: Only admin can do this!\");\n        _;\n    }\n\n    modifier nonReentrant() {\n        require(!locked, \"Session: Reentrant call.\");\n        locked = true;\n        _;\n        locked = false;\n    }\n}\n",
  "sourcePath": "/home/canvy/funix/BDP305-Final/FunixPricingChain/truffle/contracts/Session.sol",
  "compiler": {
    "name": "solc",
    "version": "0.8.19+commit.7dd6d404.Emscripten.clang"
  },
  "schemaVersion": "3.4.13",
  "updatedAt": "2023-04-19T08:43:39.193Z",
  "devdoc": {
    "kind": "dev",
    "methods": {},
    "version": 1
  },
  "userdoc": {
    "kind": "user",
    "methods": {},
    "version": 1
  }
}